{
	"abi": [
		{
			"type": "constructor",
			"inputs": [],
			"stateMutability": "nonpayable"
		},
		{
			"type": "function",
			"name": "DEFAULT_ADMIN_ROLE",
			"inputs": [],
			"outputs": [
				{
					"name": "",
					"type": "bytes32",
					"internalType": "bytes32"
				}
			],
			"stateMutability": "view"
		},
		{
			"type": "function",
			"name": "UPDATER_ROLE",
			"inputs": [],
			"outputs": [
				{
					"name": "",
					"type": "bytes32",
					"internalType": "bytes32"
				}
			],
			"stateMutability": "view"
		},
		{
			"type": "function",
			"name": "approve",
			"inputs": [
				{
					"name": "to",
					"type": "address",
					"internalType": "address"
				},
				{
					"name": "tokenId",
					"type": "uint256",
					"internalType": "uint256"
				}
			],
			"outputs": [],
			"stateMutability": "nonpayable"
		},
		{
			"type": "function",
			"name": "balanceOf",
			"inputs": [
				{
					"name": "owner",
					"type": "address",
					"internalType": "address"
				}
			],
			"outputs": [
				{
					"name": "",
					"type": "uint256",
					"internalType": "uint256"
				}
			],
			"stateMutability": "view"
		},
		{
			"type": "function",
			"name": "buyTicket",
			"inputs": [
				{
					"name": "campaignId",
					"type": "uint256",
					"internalType": "uint256"
				},
				{
					"name": "imageUrl",
					"type": "string",
					"internalType": "string"
				}
			],
			"outputs": [
				{
					"name": "",
					"type": "uint256",
					"internalType": "uint256"
				}
			],
			"stateMutability": "payable"
		},
		{
			"type": "function",
			"name": "campaignCount",
			"inputs": [],
			"outputs": [
				{
					"name": "",
					"type": "uint256",
					"internalType": "uint256"
				}
			],
			"stateMutability": "view"
		},
		{
			"type": "function",
			"name": "campaigns",
			"inputs": [
				{
					"name": "",
					"type": "uint256",
					"internalType": "uint256"
				}
			],
			"outputs": [
				{
					"name": "name",
					"type": "string",
					"internalType": "string"
				},
				{
					"name": "description",
					"type": "string",
					"internalType": "string"
				},
				{
					"name": "pricePerTicket",
					"type": "uint96",
					"internalType": "uint96"
				},
				{
					"name": "platformFeePercentage",
					"type": "uint8",
					"internalType": "uint8"
				},
				{
					"name": "transferFeePercentage",
					"type": "uint8",
					"internalType": "uint8"
				},
				{
					"name": "startDate",
					"type": "uint40",
					"internalType": "uint40"
				},
				{
					"name": "expirationDate",
					"type": "uint40",
					"internalType": "uint40"
				},
				{
					"name": "imageUrl",
					"type": "string",
					"internalType": "string"
				},
				{
					"name": "city",
					"type": "string",
					"internalType": "string"
				},
				{
					"name": "country",
					"type": "string",
					"internalType": "string"
				},
				{
					"name": "owner",
					"type": "address",
					"internalType": "address"
				},
				{
					"name": "ticketsAvailable",
					"type": "uint32",
					"internalType": "uint32"
				},
				{
					"name": "ticketsSold",
					"type": "uint32",
					"internalType": "uint32"
				},
				{
					"name": "exists",
					"type": "bool",
					"internalType": "bool"
				},
				{
					"name": "storeId",
					"type": "string",
					"internalType": "string"
				},
				{
					"name": "secretName",
					"type": "string",
					"internalType": "string"
				},
				{
					"name": "category",
					"type": "string",
					"internalType": "string"
				},
				{
					"name": "eventType",
					"type": "string",
					"internalType": "string"
				}
			],
			"stateMutability": "view"
		},
		{
			"type": "function",
			"name": "cancelTransfer",
			"inputs": [
				{
					"name": "transferId",
					"type": "uint256",
					"internalType": "uint256"
				}
			],
			"outputs": [],
			"stateMutability": "nonpayable"
		},
		{
			"type": "function",
			"name": "completeTransfer",
			"inputs": [
				{
					"name": "transferId",
					"type": "uint256",
					"internalType": "uint256"
				}
			],
			"outputs": [],
			"stateMutability": "payable"
		},
		{
			"type": "function",
			"name": "createCampaign",
			"inputs": [
				{
					"name": "_name",
					"type": "string",
					"internalType": "string"
				},
				{
					"name": "_description",
					"type": "string",
					"internalType": "string"
				},
				{
					"name": "_pricePerTicket",
					"type": "uint96",
					"internalType": "uint96"
				},
				{
					"name": "_platformFeePercentage",
					"type": "uint8",
					"internalType": "uint8"
				},
				{
					"name": "_transferFeePercentage",
					"type": "uint8",
					"internalType": "uint8"
				},
				{
					"name": "_startDate",
					"type": "uint40",
					"internalType": "uint40"
				},
				{
					"name": "_expirationDate",
					"type": "uint40",
					"internalType": "uint40"
				},
				{
					"name": "_imageUrl",
					"type": "string",
					"internalType": "string"
				},
				{
					"name": "_city",
					"type": "string",
					"internalType": "string"
				},
				{
					"name": "_country",
					"type": "string",
					"internalType": "string"
				},
				{
					"name": "_ticketsAvailable",
					"type": "uint32",
					"internalType": "uint32"
				},
				{
					"name": "_storeId",
					"type": "string",
					"internalType": "string"
				},
				{
					"name": "_secretName",
					"type": "string",
					"internalType": "string"
				},
				{
					"name": "_category",
					"type": "string",
					"internalType": "string"
				},
				{
					"name": "_eventType",
					"type": "string",
					"internalType": "string"
				}
			],
			"outputs": [
				{
					"name": "",
					"type": "uint256",
					"internalType": "uint256"
				}
			],
			"stateMutability": "nonpayable"
		},
		{
			"type": "function",
			"name": "createTransfer",
			"inputs": [
				{
					"name": "tokenId",
					"type": "uint256",
					"internalType": "uint256"
				},
				{
					"name": "amount",
					"type": "uint256",
					"internalType": "uint256"
				}
			],
			"outputs": [
				{
					"name": "",
					"type": "uint256",
					"internalType": "uint256"
				}
			],
			"stateMutability": "nonpayable"
		},
		{
			"type": "function",
			"name": "getApproved",
			"inputs": [
				{
					"name": "tokenId",
					"type": "uint256",
					"internalType": "uint256"
				}
			],
			"outputs": [
				{
					"name": "",
					"type": "address",
					"internalType": "address"
				}
			],
			"stateMutability": "view"
		},
		{
			"type": "function",
			"name": "getCampaignById",
			"inputs": [
				{
					"name": "campaignId",
					"type": "uint256",
					"internalType": "uint256"
				}
			],
			"outputs": [
				{
					"name": "",
					"type": "tuple",
					"internalType": "struct TicketingSystem.Campaign",
					"components": [
						{
							"name": "name",
							"type": "string",
							"internalType": "string"
						},
						{
							"name": "description",
							"type": "string",
							"internalType": "string"
						},
						{
							"name": "pricePerTicket",
							"type": "uint96",
							"internalType": "uint96"
						},
						{
							"name": "platformFeePercentage",
							"type": "uint8",
							"internalType": "uint8"
						},
						{
							"name": "transferFeePercentage",
							"type": "uint8",
							"internalType": "uint8"
						},
						{
							"name": "startDate",
							"type": "uint40",
							"internalType": "uint40"
						},
						{
							"name": "expirationDate",
							"type": "uint40",
							"internalType": "uint40"
						},
						{
							"name": "imageUrl",
							"type": "string",
							"internalType": "string"
						},
						{
							"name": "city",
							"type": "string",
							"internalType": "string"
						},
						{
							"name": "country",
							"type": "string",
							"internalType": "string"
						},
						{
							"name": "owner",
							"type": "address",
							"internalType": "address"
						},
						{
							"name": "ticketsAvailable",
							"type": "uint32",
							"internalType": "uint32"
						},
						{
							"name": "ticketsSold",
							"type": "uint32",
							"internalType": "uint32"
						},
						{
							"name": "exists",
							"type": "bool",
							"internalType": "bool"
						},
						{
							"name": "storeId",
							"type": "string",
							"internalType": "string"
						},
						{
							"name": "secretName",
							"type": "string",
							"internalType": "string"
						},
						{
							"name": "category",
							"type": "string",
							"internalType": "string"
						},
						{
							"name": "eventType",
							"type": "string",
							"internalType": "string"
						}
					]
				}
			],
			"stateMutability": "view"
		},
		{
			"type": "function",
			"name": "getCampaignTickets",
			"inputs": [
				{
					"name": "campaignId",
					"type": "uint256",
					"internalType": "uint256"
				}
			],
			"outputs": [
				{
					"name": "",
					"type": "tuple[]",
					"internalType": "struct TicketingSystem.Ticket[]",
					"components": [
						{
							"name": "campaignId",
							"type": "uint256",
							"internalType": "uint256"
						},
						{
							"name": "purchaseDate",
							"type": "uint40",
							"internalType": "uint40"
						},
						{
							"name": "owner",
							"type": "address",
							"internalType": "address"
						},
						{
							"name": "ticketIndex",
							"type": "uint32",
							"internalType": "uint32"
						},
						{
							"name": "secret",
							"type": "string",
							"internalType": "string"
						},
						{
							"name": "imageUrl",
							"type": "string",
							"internalType": "string"
						}
					]
				}
			],
			"stateMutability": "view"
		},
		{
			"type": "function",
			"name": "getCampaignsByCity",
			"inputs": [
				{
					"name": "_city",
					"type": "string",
					"internalType": "string"
				},
				{
					"name": "page",
					"type": "uint256",
					"internalType": "uint256"
				},
				{
					"name": "pageSize",
					"type": "uint256",
					"internalType": "uint256"
				}
			],
			"outputs": [
				{
					"name": "",
					"type": "tuple[]",
					"internalType": "struct TicketingSystem.Campaign[]",
					"components": [
						{
							"name": "name",
							"type": "string",
							"internalType": "string"
						},
						{
							"name": "description",
							"type": "string",
							"internalType": "string"
						},
						{
							"name": "pricePerTicket",
							"type": "uint96",
							"internalType": "uint96"
						},
						{
							"name": "platformFeePercentage",
							"type": "uint8",
							"internalType": "uint8"
						},
						{
							"name": "transferFeePercentage",
							"type": "uint8",
							"internalType": "uint8"
						},
						{
							"name": "startDate",
							"type": "uint40",
							"internalType": "uint40"
						},
						{
							"name": "expirationDate",
							"type": "uint40",
							"internalType": "uint40"
						},
						{
							"name": "imageUrl",
							"type": "string",
							"internalType": "string"
						},
						{
							"name": "city",
							"type": "string",
							"internalType": "string"
						},
						{
							"name": "country",
							"type": "string",
							"internalType": "string"
						},
						{
							"name": "owner",
							"type": "address",
							"internalType": "address"
						},
						{
							"name": "ticketsAvailable",
							"type": "uint32",
							"internalType": "uint32"
						},
						{
							"name": "ticketsSold",
							"type": "uint32",
							"internalType": "uint32"
						},
						{
							"name": "exists",
							"type": "bool",
							"internalType": "bool"
						},
						{
							"name": "storeId",
							"type": "string",
							"internalType": "string"
						},
						{
							"name": "secretName",
							"type": "string",
							"internalType": "string"
						},
						{
							"name": "category",
							"type": "string",
							"internalType": "string"
						},
						{
							"name": "eventType",
							"type": "string",
							"internalType": "string"
						}
					]
				}
			],
			"stateMutability": "view"
		},
		{
			"type": "function",
			"name": "getCampaignsByCountry",
			"inputs": [
				{
					"name": "_country",
					"type": "string",
					"internalType": "string"
				},
				{
					"name": "page",
					"type": "uint256",
					"internalType": "uint256"
				},
				{
					"name": "pageSize",
					"type": "uint256",
					"internalType": "uint256"
				}
			],
			"outputs": [
				{
					"name": "",
					"type": "tuple[]",
					"internalType": "struct TicketingSystem.Campaign[]",
					"components": [
						{
							"name": "name",
							"type": "string",
							"internalType": "string"
						},
						{
							"name": "description",
							"type": "string",
							"internalType": "string"
						},
						{
							"name": "pricePerTicket",
							"type": "uint96",
							"internalType": "uint96"
						},
						{
							"name": "platformFeePercentage",
							"type": "uint8",
							"internalType": "uint8"
						},
						{
							"name": "transferFeePercentage",
							"type": "uint8",
							"internalType": "uint8"
						},
						{
							"name": "startDate",
							"type": "uint40",
							"internalType": "uint40"
						},
						{
							"name": "expirationDate",
							"type": "uint40",
							"internalType": "uint40"
						},
						{
							"name": "imageUrl",
							"type": "string",
							"internalType": "string"
						},
						{
							"name": "city",
							"type": "string",
							"internalType": "string"
						},
						{
							"name": "country",
							"type": "string",
							"internalType": "string"
						},
						{
							"name": "owner",
							"type": "address",
							"internalType": "address"
						},
						{
							"name": "ticketsAvailable",
							"type": "uint32",
							"internalType": "uint32"
						},
						{
							"name": "ticketsSold",
							"type": "uint32",
							"internalType": "uint32"
						},
						{
							"name": "exists",
							"type": "bool",
							"internalType": "bool"
						},
						{
							"name": "storeId",
							"type": "string",
							"internalType": "string"
						},
						{
							"name": "secretName",
							"type": "string",
							"internalType": "string"
						},
						{
							"name": "category",
							"type": "string",
							"internalType": "string"
						},
						{
							"name": "eventType",
							"type": "string",
							"internalType": "string"
						}
					]
				}
			],
			"stateMutability": "view"
		},
		{
			"type": "function",
			"name": "getCampaignsByPage",
			"inputs": [
				{
					"name": "page",
					"type": "uint256",
					"internalType": "uint256"
				},
				{
					"name": "pageSize",
					"type": "uint256",
					"internalType": "uint256"
				}
			],
			"outputs": [
				{
					"name": "",
					"type": "tuple[]",
					"internalType": "struct TicketingSystem.Campaign[]",
					"components": [
						{
							"name": "name",
							"type": "string",
							"internalType": "string"
						},
						{
							"name": "description",
							"type": "string",
							"internalType": "string"
						},
						{
							"name": "pricePerTicket",
							"type": "uint96",
							"internalType": "uint96"
						},
						{
							"name": "platformFeePercentage",
							"type": "uint8",
							"internalType": "uint8"
						},
						{
							"name": "transferFeePercentage",
							"type": "uint8",
							"internalType": "uint8"
						},
						{
							"name": "startDate",
							"type": "uint40",
							"internalType": "uint40"
						},
						{
							"name": "expirationDate",
							"type": "uint40",
							"internalType": "uint40"
						},
						{
							"name": "imageUrl",
							"type": "string",
							"internalType": "string"
						},
						{
							"name": "city",
							"type": "string",
							"internalType": "string"
						},
						{
							"name": "country",
							"type": "string",
							"internalType": "string"
						},
						{
							"name": "owner",
							"type": "address",
							"internalType": "address"
						},
						{
							"name": "ticketsAvailable",
							"type": "uint32",
							"internalType": "uint32"
						},
						{
							"name": "ticketsSold",
							"type": "uint32",
							"internalType": "uint32"
						},
						{
							"name": "exists",
							"type": "bool",
							"internalType": "bool"
						},
						{
							"name": "storeId",
							"type": "string",
							"internalType": "string"
						},
						{
							"name": "secretName",
							"type": "string",
							"internalType": "string"
						},
						{
							"name": "category",
							"type": "string",
							"internalType": "string"
						},
						{
							"name": "eventType",
							"type": "string",
							"internalType": "string"
						}
					]
				}
			],
			"stateMutability": "view"
		},
		{
			"type": "function",
			"name": "getPendingTransfersByCampaign",
			"inputs": [
				{
					"name": "campaignId",
					"type": "uint256",
					"internalType": "uint256"
				}
			],
			"outputs": [
				{
					"name": "",
					"type": "tuple[]",
					"internalType": "struct TicketingSystem.TransferListing[]",
					"components": [
						{
							"name": "transferId",
							"type": "uint256",
							"internalType": "uint256"
						},
						{
							"name": "tokenId",
							"type": "uint256",
							"internalType": "uint256"
						},
						{
							"name": "campaignId",
							"type": "uint256",
							"internalType": "uint256"
						},
						{
							"name": "from",
							"type": "address",
							"internalType": "address"
						},
						{
							"name": "to",
							"type": "address",
							"internalType": "address"
						},
						{
							"name": "amount",
							"type": "uint256",
							"internalType": "uint256"
						},
						{
							"name": "isCompleted",
							"type": "bool",
							"internalType": "bool"
						},
						{
							"name": "createDate",
							"type": "uint40",
							"internalType": "uint40"
						}
					]
				}
			],
			"stateMutability": "view"
		},
		{
			"type": "function",
			"name": "getRoleAdmin",
			"inputs": [
				{
					"name": "role",
					"type": "bytes32",
					"internalType": "bytes32"
				}
			],
			"outputs": [
				{
					"name": "",
					"type": "bytes32",
					"internalType": "bytes32"
				}
			],
			"stateMutability": "view"
		},
		{
			"type": "function",
			"name": "getTicket",
			"inputs": [
				{
					"name": "tokenId",
					"type": "uint256",
					"internalType": "uint256"
				}
			],
			"outputs": [
				{
					"name": "",
					"type": "tuple",
					"internalType": "struct TicketingSystem.Ticket",
					"components": [
						{
							"name": "campaignId",
							"type": "uint256",
							"internalType": "uint256"
						},
						{
							"name": "purchaseDate",
							"type": "uint40",
							"internalType": "uint40"
						},
						{
							"name": "owner",
							"type": "address",
							"internalType": "address"
						},
						{
							"name": "ticketIndex",
							"type": "uint32",
							"internalType": "uint32"
						},
						{
							"name": "secret",
							"type": "string",
							"internalType": "string"
						},
						{
							"name": "imageUrl",
							"type": "string",
							"internalType": "string"
						}
					]
				}
			],
			"stateMutability": "view"
		},
		{
			"type": "function",
			"name": "getTicketSecret",
			"inputs": [
				{
					"name": "tokenId",
					"type": "uint256",
					"internalType": "uint256"
				}
			],
			"outputs": [
				{
					"name": "",
					"type": "string",
					"internalType": "string"
				}
			],
			"stateMutability": "view"
		},
		{
			"type": "function",
			"name": "getTransfer",
			"inputs": [
				{
					"name": "transferId",
					"type": "uint256",
					"internalType": "uint256"
				}
			],
			"outputs": [
				{
					"name": "",
					"type": "tuple",
					"internalType": "struct TicketingSystem.TransferListing",
					"components": [
						{
							"name": "transferId",
							"type": "uint256",
							"internalType": "uint256"
						},
						{
							"name": "tokenId",
							"type": "uint256",
							"internalType": "uint256"
						},
						{
							"name": "campaignId",
							"type": "uint256",
							"internalType": "uint256"
						},
						{
							"name": "from",
							"type": "address",
							"internalType": "address"
						},
						{
							"name": "to",
							"type": "address",
							"internalType": "address"
						},
						{
							"name": "amount",
							"type": "uint256",
							"internalType": "uint256"
						},
						{
							"name": "isCompleted",
							"type": "bool",
							"internalType": "bool"
						},
						{
							"name": "createDate",
							"type": "uint40",
							"internalType": "uint40"
						}
					]
				}
			],
			"stateMutability": "view"
		},
		{
			"type": "function",
			"name": "grantRole",
			"inputs": [
				{
					"name": "role",
					"type": "bytes32",
					"internalType": "bytes32"
				},
				{
					"name": "account",
					"type": "address",
					"internalType": "address"
				}
			],
			"outputs": [],
			"stateMutability": "nonpayable"
		},
		{
			"type": "function",
			"name": "hasRole",
			"inputs": [
				{
					"name": "role",
					"type": "bytes32",
					"internalType": "bytes32"
				},
				{
					"name": "account",
					"type": "address",
					"internalType": "address"
				}
			],
			"outputs": [
				{
					"name": "",
					"type": "bool",
					"internalType": "bool"
				}
			],
			"stateMutability": "view"
		},
		{
			"type": "function",
			"name": "isApprovedForAll",
			"inputs": [
				{
					"name": "owner",
					"type": "address",
					"internalType": "address"
				},
				{
					"name": "operator",
					"type": "address",
					"internalType": "address"
				}
			],
			"outputs": [
				{
					"name": "",
					"type": "bool",
					"internalType": "bool"
				}
			],
			"stateMutability": "view"
		},
		{
			"type": "function",
			"name": "name",
			"inputs": [],
			"outputs": [
				{
					"name": "",
					"type": "string",
					"internalType": "string"
				}
			],
			"stateMutability": "view"
		},
		{
			"type": "function",
			"name": "ownerOf",
			"inputs": [
				{
					"name": "tokenId",
					"type": "uint256",
					"internalType": "uint256"
				}
			],
			"outputs": [
				{
					"name": "",
					"type": "address",
					"internalType": "address"
				}
			],
			"stateMutability": "view"
		},
		{
			"type": "function",
			"name": "pause",
			"inputs": [],
			"outputs": [],
			"stateMutability": "nonpayable"
		},
		{
			"type": "function",
			"name": "paused",
			"inputs": [],
			"outputs": [
				{
					"name": "",
					"type": "bool",
					"internalType": "bool"
				}
			],
			"stateMutability": "view"
		},
		{
			"type": "function",
			"name": "platformOwner",
			"inputs": [],
			"outputs": [
				{
					"name": "",
					"type": "address",
					"internalType": "address"
				}
			],
			"stateMutability": "view"
		},
		{
			"type": "function",
			"name": "removeUpdater",
			"inputs": [
				{
					"name": "account",
					"type": "address",
					"internalType": "address"
				}
			],
			"outputs": [],
			"stateMutability": "nonpayable"
		},
		{
			"type": "function",
			"name": "renounceRole",
			"inputs": [
				{
					"name": "role",
					"type": "bytes32",
					"internalType": "bytes32"
				},
				{
					"name": "callerConfirmation",
					"type": "address",
					"internalType": "address"
				}
			],
			"outputs": [],
			"stateMutability": "nonpayable"
		},
		{
			"type": "function",
			"name": "revokeRole",
			"inputs": [
				{
					"name": "role",
					"type": "bytes32",
					"internalType": "bytes32"
				},
				{
					"name": "account",
					"type": "address",
					"internalType": "address"
				}
			],
			"outputs": [],
			"stateMutability": "nonpayable"
		},
		{
			"type": "function",
			"name": "safeTransferFrom",
			"inputs": [
				{
					"name": "from",
					"type": "address",
					"internalType": "address"
				},
				{
					"name": "to",
					"type": "address",
					"internalType": "address"
				},
				{
					"name": "tokenId",
					"type": "uint256",
					"internalType": "uint256"
				}
			],
			"outputs": [],
			"stateMutability": "nonpayable"
		},
		{
			"type": "function",
			"name": "safeTransferFrom",
			"inputs": [
				{
					"name": "from",
					"type": "address",
					"internalType": "address"
				},
				{
					"name": "to",
					"type": "address",
					"internalType": "address"
				},
				{
					"name": "tokenId",
					"type": "uint256",
					"internalType": "uint256"
				},
				{
					"name": "data",
					"type": "bytes",
					"internalType": "bytes"
				}
			],
			"outputs": [],
			"stateMutability": "nonpayable"
		},
		{
			"type": "function",
			"name": "setApprovalForAll",
			"inputs": [
				{
					"name": "operator",
					"type": "address",
					"internalType": "address"
				},
				{
					"name": "approved",
					"type": "bool",
					"internalType": "bool"
				}
			],
			"outputs": [],
			"stateMutability": "nonpayable"
		},
		{
			"type": "function",
			"name": "setTicketSecret",
			"inputs": [
				{
					"name": "campaignId",
					"type": "uint256",
					"internalType": "uint256"
				},
				{
					"name": "ticketIndex",
					"type": "uint32",
					"internalType": "uint32"
				},
				{
					"name": "secret",
					"type": "string",
					"internalType": "string"
				}
			],
			"outputs": [],
			"stateMutability": "nonpayable"
		},
		{
			"type": "function",
			"name": "setUpdater",
			"inputs": [
				{
					"name": "account",
					"type": "address",
					"internalType": "address"
				}
			],
			"outputs": [],
			"stateMutability": "nonpayable"
		},
		{
			"type": "function",
			"name": "supportsInterface",
			"inputs": [
				{
					"name": "interfaceId",
					"type": "bytes4",
					"internalType": "bytes4"
				}
			],
			"outputs": [
				{
					"name": "",
					"type": "bool",
					"internalType": "bool"
				}
			],
			"stateMutability": "view"
		},
		{
			"type": "function",
			"name": "symbol",
			"inputs": [],
			"outputs": [
				{
					"name": "",
					"type": "string",
					"internalType": "string"
				}
			],
			"stateMutability": "view"
		},
		{
			"type": "function",
			"name": "tickets",
			"inputs": [
				{
					"name": "",
					"type": "uint256",
					"internalType": "uint256"
				}
			],
			"outputs": [
				{
					"name": "campaignId",
					"type": "uint256",
					"internalType": "uint256"
				},
				{
					"name": "purchaseDate",
					"type": "uint40",
					"internalType": "uint40"
				},
				{
					"name": "owner",
					"type": "address",
					"internalType": "address"
				},
				{
					"name": "ticketIndex",
					"type": "uint32",
					"internalType": "uint32"
				},
				{
					"name": "secret",
					"type": "string",
					"internalType": "string"
				},
				{
					"name": "imageUrl",
					"type": "string",
					"internalType": "string"
				}
			],
			"stateMutability": "view"
		},
		{
			"type": "function",
			"name": "tokenIdCounter",
			"inputs": [],
			"outputs": [
				{
					"name": "",
					"type": "uint256",
					"internalType": "uint256"
				}
			],
			"stateMutability": "view"
		},
		{
			"type": "function",
			"name": "tokenURI",
			"inputs": [
				{
					"name": "tokenId",
					"type": "uint256",
					"internalType": "uint256"
				}
			],
			"outputs": [
				{
					"name": "",
					"type": "string",
					"internalType": "string"
				}
			],
			"stateMutability": "view"
		},
		{
			"type": "function",
			"name": "transferCount",
			"inputs": [],
			"outputs": [
				{
					"name": "",
					"type": "uint256",
					"internalType": "uint256"
				}
			],
			"stateMutability": "view"
		},
		{
			"type": "function",
			"name": "transferFrom",
			"inputs": [
				{
					"name": "from",
					"type": "address",
					"internalType": "address"
				},
				{
					"name": "to",
					"type": "address",
					"internalType": "address"
				},
				{
					"name": "tokenId",
					"type": "uint256",
					"internalType": "uint256"
				}
			],
			"outputs": [],
			"stateMutability": "nonpayable"
		},
		{
			"type": "function",
			"name": "transfers",
			"inputs": [
				{
					"name": "",
					"type": "uint256",
					"internalType": "uint256"
				}
			],
			"outputs": [
				{
					"name": "transferId",
					"type": "uint256",
					"internalType": "uint256"
				},
				{
					"name": "tokenId",
					"type": "uint256",
					"internalType": "uint256"
				},
				{
					"name": "campaignId",
					"type": "uint256",
					"internalType": "uint256"
				},
				{
					"name": "from",
					"type": "address",
					"internalType": "address"
				},
				{
					"name": "to",
					"type": "address",
					"internalType": "address"
				},
				{
					"name": "amount",
					"type": "uint256",
					"internalType": "uint256"
				},
				{
					"name": "isCompleted",
					"type": "bool",
					"internalType": "bool"
				},
				{
					"name": "createDate",
					"type": "uint40",
					"internalType": "uint40"
				}
			],
			"stateMutability": "view"
		},
		{
			"type": "function",
			"name": "unpause",
			"inputs": [],
			"outputs": [],
			"stateMutability": "nonpayable"
		},
		{
			"type": "event",
			"name": "Approval",
			"inputs": [
				{
					"name": "owner",
					"type": "address",
					"indexed": true,
					"internalType": "address"
				},
				{
					"name": "approved",
					"type": "address",
					"indexed": true,
					"internalType": "address"
				},
				{
					"name": "tokenId",
					"type": "uint256",
					"indexed": true,
					"internalType": "uint256"
				}
			],
			"anonymous": false
		},
		{
			"type": "event",
			"name": "ApprovalForAll",
			"inputs": [
				{
					"name": "owner",
					"type": "address",
					"indexed": true,
					"internalType": "address"
				},
				{
					"name": "operator",
					"type": "address",
					"indexed": true,
					"internalType": "address"
				},
				{
					"name": "approved",
					"type": "bool",
					"indexed": false,
					"internalType": "bool"
				}
			],
			"anonymous": false
		},
		{
			"type": "event",
			"name": "CampaignCreated",
			"inputs": [
				{
					"name": "campaignId",
					"type": "uint256",
					"indexed": true,
					"internalType": "uint256"
				},
				{
					"name": "name",
					"type": "string",
					"indexed": false,
					"internalType": "string"
				},
				{
					"name": "pricePerTicket",
					"type": "uint96",
					"indexed": false,
					"internalType": "uint96"
				},
				{
					"name": "startDate",
					"type": "uint40",
					"indexed": false,
					"internalType": "uint40"
				},
				{
					"name": "expirationDate",
					"type": "uint40",
					"indexed": false,
					"internalType": "uint40"
				},
				{
					"name": "owner",
					"type": "address",
					"indexed": true,
					"internalType": "address"
				},
				{
					"name": "category",
					"type": "string",
					"indexed": false,
					"internalType": "string"
				}
			],
			"anonymous": false
		},
		{
			"type": "event",
			"name": "Paused",
			"inputs": [
				{
					"name": "account",
					"type": "address",
					"indexed": false,
					"internalType": "address"
				}
			],
			"anonymous": false
		},
		{
			"type": "event",
			"name": "RoleAdminChanged",
			"inputs": [
				{
					"name": "role",
					"type": "bytes32",
					"indexed": true,
					"internalType": "bytes32"
				},
				{
					"name": "previousAdminRole",
					"type": "bytes32",
					"indexed": true,
					"internalType": "bytes32"
				},
				{
					"name": "newAdminRole",
					"type": "bytes32",
					"indexed": true,
					"internalType": "bytes32"
				}
			],
			"anonymous": false
		},
		{
			"type": "event",
			"name": "RoleGranted",
			"inputs": [
				{
					"name": "role",
					"type": "bytes32",
					"indexed": true,
					"internalType": "bytes32"
				},
				{
					"name": "account",
					"type": "address",
					"indexed": true,
					"internalType": "address"
				},
				{
					"name": "sender",
					"type": "address",
					"indexed": true,
					"internalType": "address"
				}
			],
			"anonymous": false
		},
		{
			"type": "event",
			"name": "RoleRevoked",
			"inputs": [
				{
					"name": "role",
					"type": "bytes32",
					"indexed": true,
					"internalType": "bytes32"
				},
				{
					"name": "account",
					"type": "address",
					"indexed": true,
					"internalType": "address"
				},
				{
					"name": "sender",
					"type": "address",
					"indexed": true,
					"internalType": "address"
				}
			],
			"anonymous": false
		},
		{
			"type": "event",
			"name": "SecretSet",
			"inputs": [
				{
					"name": "campaignId",
					"type": "uint256",
					"indexed": true,
					"internalType": "uint256"
				},
				{
					"name": "ticketIndex",
					"type": "uint32",
					"indexed": false,
					"internalType": "uint32"
				}
			],
			"anonymous": false
		},
		{
			"type": "event",
			"name": "TicketBought",
			"inputs": [
				{
					"name": "tokenId",
					"type": "uint256",
					"indexed": true,
					"internalType": "uint256"
				},
				{
					"name": "campaignId",
					"type": "uint256",
					"indexed": true,
					"internalType": "uint256"
				},
				{
					"name": "buyer",
					"type": "address",
					"indexed": true,
					"internalType": "address"
				}
			],
			"anonymous": false
		},
		{
			"type": "event",
			"name": "TicketTransferred",
			"inputs": [
				{
					"name": "tokenId",
					"type": "uint256",
					"indexed": true,
					"internalType": "uint256"
				},
				{
					"name": "from",
					"type": "address",
					"indexed": true,
					"internalType": "address"
				},
				{
					"name": "to",
					"type": "address",
					"indexed": true,
					"internalType": "address"
				},
				{
					"name": "amount",
					"type": "uint256",
					"indexed": false,
					"internalType": "uint256"
				}
			],
			"anonymous": false
		},
		{
			"type": "event",
			"name": "Transfer",
			"inputs": [
				{
					"name": "from",
					"type": "address",
					"indexed": true,
					"internalType": "address"
				},
				{
					"name": "to",
					"type": "address",
					"indexed": true,
					"internalType": "address"
				},
				{
					"name": "tokenId",
					"type": "uint256",
					"indexed": true,
					"internalType": "uint256"
				}
			],
			"anonymous": false
		},
		{
			"type": "event",
			"name": "TransferCancelled",
			"inputs": [
				{
					"name": "transferId",
					"type": "uint256",
					"indexed": true,
					"internalType": "uint256"
				},
				{
					"name": "tokenId",
					"type": "uint256",
					"indexed": true,
					"internalType": "uint256"
				}
			],
			"anonymous": false
		},
		{
			"type": "event",
			"name": "TransferCompleted",
			"inputs": [
				{
					"name": "transferId",
					"type": "uint256",
					"indexed": true,
					"internalType": "uint256"
				},
				{
					"name": "tokenId",
					"type": "uint256",
					"indexed": true,
					"internalType": "uint256"
				},
				{
					"name": "to",
					"type": "address",
					"indexed": true,
					"internalType": "address"
				},
				{
					"name": "amount",
					"type": "uint256",
					"indexed": false,
					"internalType": "uint256"
				}
			],
			"anonymous": false
		},
		{
			"type": "event",
			"name": "TransferCreated",
			"inputs": [
				{
					"name": "transferId",
					"type": "uint256",
					"indexed": true,
					"internalType": "uint256"
				},
				{
					"name": "tokenId",
					"type": "uint256",
					"indexed": true,
					"internalType": "uint256"
				},
				{
					"name": "from",
					"type": "address",
					"indexed": true,
					"internalType": "address"
				},
				{
					"name": "amount",
					"type": "uint256",
					"indexed": false,
					"internalType": "uint256"
				}
			],
			"anonymous": false
		},
		{
			"type": "event",
			"name": "Unpaused",
			"inputs": [
				{
					"name": "account",
					"type": "address",
					"indexed": false,
					"internalType": "address"
				}
			],
			"anonymous": false
		},
		{
			"type": "error",
			"name": "AccessControlBadConfirmation",
			"inputs": []
		},
		{
			"type": "error",
			"name": "AccessControlUnauthorizedAccount",
			"inputs": [
				{
					"name": "account",
					"type": "address",
					"internalType": "address"
				},
				{
					"name": "neededRole",
					"type": "bytes32",
					"internalType": "bytes32"
				}
			]
		},
		{
			"type": "error",
			"name": "CampaignExpired",
			"inputs": []
		},
		{
			"type": "error",
			"name": "CampaignNotFound",
			"inputs": []
		},
		{
			"type": "error",
			"name": "CampaignNotStarted",
			"inputs": []
		},
		{
			"type": "error",
			"name": "ERC721IncorrectOwner",
			"inputs": [
				{
					"name": "sender",
					"type": "address",
					"internalType": "address"
				},
				{
					"name": "tokenId",
					"type": "uint256",
					"internalType": "uint256"
				},
				{
					"name": "owner",
					"type": "address",
					"internalType": "address"
				}
			]
		},
		{
			"type": "error",
			"name": "ERC721InsufficientApproval",
			"inputs": [
				{
					"name": "operator",
					"type": "address",
					"internalType": "address"
				},
				{
					"name": "tokenId",
					"type": "uint256",
					"internalType": "uint256"
				}
			]
		},
		{
			"type": "error",
			"name": "ERC721InvalidApprover",
			"inputs": [
				{
					"name": "approver",
					"type": "address",
					"internalType": "address"
				}
			]
		},
		{
			"type": "error",
			"name": "ERC721InvalidOperator",
			"inputs": [
				{
					"name": "operator",
					"type": "address",
					"internalType": "address"
				}
			]
		},
		{
			"type": "error",
			"name": "ERC721InvalidOwner",
			"inputs": [
				{
					"name": "owner",
					"type": "address",
					"internalType": "address"
				}
			]
		},
		{
			"type": "error",
			"name": "ERC721InvalidReceiver",
			"inputs": [
				{
					"name": "receiver",
					"type": "address",
					"internalType": "address"
				}
			]
		},
		{
			"type": "error",
			"name": "ERC721InvalidSender",
			"inputs": [
				{
					"name": "sender",
					"type": "address",
					"internalType": "address"
				}
			]
		},
		{
			"type": "error",
			"name": "ERC721NonexistentToken",
			"inputs": [
				{
					"name": "tokenId",
					"type": "uint256",
					"internalType": "uint256"
				}
			]
		},
		{
			"type": "error",
			"name": "EnforcedPause",
			"inputs": []
		},
		{
			"type": "error",
			"name": "ExpectedPause",
			"inputs": []
		},
		{
			"type": "error",
			"name": "InsufficientTickets",
			"inputs": []
		},
		{
			"type": "error",
			"name": "InvalidAmount",
			"inputs": []
		},
		{
			"type": "error",
			"name": "InvalidDates",
			"inputs": []
		},
		{
			"type": "error",
			"name": "InvalidFees",
			"inputs": []
		},
		{
			"type": "error",
			"name": "InvalidTransferState",
			"inputs": []
		},
		{
			"type": "error",
			"name": "ReentrancyGuardReentrantCall",
			"inputs": []
		},
		{
			"type": "error",
			"name": "SecretNotFound",
			"inputs": []
		},
		{
			"type": "error",
			"name": "TransferAlreadyCompleted",
			"inputs": []
		},
		{
			"type": "error",
			"name": "TransferFailed",
			"inputs": []
		},
		{
			"type": "error",
			"name": "TransferNotFound",
			"inputs": []
		},
		{
			"type": "error",
			"name": "Unauthorized",
			"inputs": []
		}
	],
	"bytecode": {
		"object": "0x60a06040523461035e57604080519081016001600160401b0381118282101761026b5760409081526009825268151a58dad95d13919560ba1b602083015280519081016001600160401b0381118282101761026b576040526006815265151250d2d15560d21b602082015281516001600160401b03811161026b57600054600181811c91168015610354575b602082101461024b57601f81116102f0575b50602092601f821160011461028c5792819293600092610281575b50508160011b916000199060031b1c1916176000555b80516001600160401b03811161026b57600154600181811c91168015610261575b602082101461024b57601f81116101e6575b50602091601f821160011461018257918192600092610177575b50508160011b916000199060031b1c1916176001555b600160075560ff19600854166008553360805261014d33610363565b50610157336103df565b50604051614738908161047882396080518181816109dc01526116f40152f35b01519050388061011b565b601f198216926001600052806000209160005b8581106101ce575083600195106101b5575b505050811b01600155610131565b015160001960f88460031b161c191690553880806101a7565b91926020600181928685015181550194019201610195565b60016000527fb10e2d527612073b26eecdfd717e6a320cf44b4afac2b0732d9fcbe2b7fa0cf6601f830160051c81019160208410610241575b601f0160051c01905b8181106102355750610101565b60008155600101610228565b909150819061021f565b634e487b7160e01b600052602260045260246000fd5b90607f16906100ef565b634e487b7160e01b600052604160045260246000fd5b0151905038806100b8565b601f1982169360008052806000209160005b8681106102d857508360019596106102bf575b505050811b016000556100ce565b015160001960f88460031b161c191690553880806102b1565b9192602060018192868501518155019401920161029e565b600080527f290decd9548b62a8d60345a988386fc84ba6bc95484008f6362f93160ef3e563601f830160051c8101916020841061034a575b601f0160051c01905b81811061033e575061009d565b60008155600101610331565b9091508190610328565b90607f169061008b565b600080fd5b6001600160a01b0381166000908152600080516020614bf0833981519152602052604090205460ff166103d9576001600160a01b03166000818152600080516020614bf083398151915260205260408120805460ff19166001179055339190600080516020614bb08339815191528180a4600190565b50600090565b6001600160a01b0381166000908152600080516020614bd0833981519152602052604090205460ff166103d9576001600160a01b03166000818152600080516020614bd083398151915260205260408120805460ff191660011790553391907f73e573f9566d61418a34d5de3ff49360f9c51fec37f7486551670290f6285dab90600080516020614bb08339815191529080a460019056fe6102e080604052600436101561001457600080fd5b60006101c0526101c0513560e01c90816301ffc9a714612de85750806304b07a5e14612dbf57806306fdde0314612d2d578063081812fc14612ceb578063095ea7b314612be65780630978780314612a2f578063141961bc1461286157806323b872dd1461284a578063248a9ca3146128155780632a467a73146127f85780632f2ff15d146127b857806336568abe1461276e57806337f690ee14612585578063381097b3146124f45780633d9ce1c5146118085780633f4ba83a1461179457806342842e0e1461176057806347e63380146117235780634df8ccb1146116dc57806350b447121461163d57806359caecb5146115815780635c975abb1461155c578063619c83ed146113055780636352211e146112d557806370a08231146112755780637274e30d146112555780637dc379fa146111925780638456cb591461113157806391d14854146110d75780639377d7111461104057806395d89b4114610f8457806398bdf6f514610f645780639afb93cb146108ea5780639d54f419146108c1578063a217fddf146108a1578063a22cb465146107e1578063b80450ba146107c7578063b88d4fde14610755578063bd5667f41461072c578063c16fe9071461067b578063c87b56dd14610620578063d547741f146105d3578063e3d33fc9146105b3578063e6ffcaa114610545578063e985e9c5146104e6578063ee44404d146104555763fe1e81b11461022d57600080fd5b3461044e57602036600319011261044e57600435806101c05152600960205260ff600660406101c05120015460e01c1615610439576101c080518290526009602052516040902060060154336001600160a01b038216036104255760c01c63ffffffff169061029b826135a6565b916102a96040519384612f98565b8083526102b8601f19916135a6565b016101c0515b81811061040e5750506101c051600e549160015b8381111561034457846040518091602082016020835281518091526040830190602060408260051b8601019301916101c051905b82821061031557505050500390f35b919360019193955060206103348192603f198a82030186528851613321565b9601920192018594939192610306565b806101c05152600a6020528160406101c05120541461036c575b61036790613581565b6102d2565b9161040661036791846101c05152600a60205260406101c051206103e660036040519261039884612f7d565b80548452600181015464ffffffffff81166020860152602881901c6001600160a01b0316604086015260c81c63ffffffff1660608501526103db60028201612fb9565b608085015201612fb9565b60a08201526103f582896136ff565b5261040081886136ff565b50613581565b92905061035e565b602090610419613e11565b828287010152016102be565b6282b42960e81b6101c0515260046101c051fd5b6337f9b70b60e11b6101c0515260046101c051fd5b6101c05180fd5b3461044e57602036600319011261044e576004356101c05152600a60205260406101c0512060018060a01b03600182015460281c16331415806104be575b610425576104a660026104ba9201612fb9565b604051918291602083526020830190612e9e565b0390f35b5080546101c05152600960205260018060a01b03600660406101c05120015416331415610493565b3461044e57604036600319011261044e576104ff612e6d565b610507612e88565b9060018060a01b03166101c05152600560205260406101c051209060018060a01b0316600052602052602060ff604060002054166040519015158152f35b3461044e57602036600319011261044e576004356105616135bd565b50806101c05152600960205260ff600660406101c05120015460e01c1615610439576101c0515260096020526104ba61059f60406101c05120613729565b6040519182916020835260208301906130fa565b3461044e576101c05136600319011261044e576020600f54604051908152f35b3461044e57604036600319011261044e576106186004356105f2612e88565b9061061361060e82600052600660205260016040600020015490565b6141dd565b6142c8565b506101c05180f35b3461044e57602036600319011261044e5761063c600435614355565b5060405161064b602082612f98565b6101c05190526040516104ba90610663602082612f98565b60008152604051918291602083526020830190612e9e565b3461044e57602036600319011261044e57610694613b81565b506004356101c05152600b60205261010060406101c0512064ffffffffff6006604051926106c184612f2f565b80548452600181015460208501526002810154604085015260018060a01b03600382015416606085015260018060a01b036004820154166080850152600581015460a0850152015460ff8116151560c084015260081c1660e082015261072a60405180926132bd565bf35b3461044e576104ba610749610740366130c4565b92919091613eff565b6040519182918261325d565b3461044e57608036600319011261044e5761076e612e6d565b610776612e88565b90604435606435926001600160401b03841161044e573660238501121561044e576107ae6107c09436906024816004013591016133a3565b926107ba8383836133da565b336145c6565b6101c05180f35b3461044e576104ba6107496107db36612edf565b90613e5e565b3461044e57604036600319011261044e576107fa612e6d565b602435908115159081830361044e576001600160a01b03169182156108885761085590336101c05152600560205260406101c051206101c05150846101c0515260205260406101c051209060ff801983541691151516179055565b6040519081527f17307eab39ab6107e8899845ad3d59bd9653f200f220920489ca2b5937696c3160203392a36101c05180f35b82630b61174360e31b6101c0515260045260246101c051fd5b3461044e576101c05136600319011261044e5760206040516101c0518152f35b3461044e57602036600319011261044e576106186108dd612e6d565b6108e561418a565b614472565b604036600319011261044e576004356024356001600160401b03811161044e57610918903690600401613097565b909161092261438c565b61092a6145a4565b806101c05152600960205260ff600660406101c05120015460e01c161561043957806101c05152600960205260406101c05120926006840193845463ffffffff808260c01c169160a01c161115610f4f576002015464ffffffffff8160701c164210610f3a5764ffffffffff8160981c164211610f25576001600160601b0381163410610f10576109c360ff60649260601c16346136d2565b046109ce81346136f2565b6101c05190918190819081907f00000000000000000000000000000000000000000000000000000000000000005af1610a05613de1565b5015610efb576101c051855490918291829182916001600160a01b03165af1610a2c613de1565b5015610efb57600e80546001908101909155845463ffffffff60c01b19811660c091821c63ffffffff16909201901b63ffffffff60c01b16178455600e546040516020959190610a7c8782612f98565b6101c05181523315610edf576001600160a01b03610a9a83336143a9565b16610ec3578690333b610dca575b505050826101c05152600c855263ffffffff60406101c05120915460c01c169063ffffffff610ad683613e45565b6101c05150166101c051528552610afb610af560406101c05120612fb9565b91613e45565b9160405192610b0984612f7d565b848452610ba2610b438886019364ffffffffff421685526040870198338a5263ffffffff60608901951685526080880196875236916133a3565b60a08601908152600e546101c0805191909152600a8a525160409020955186559251600186018054985165010000000000600160c81b0360289190911b1664ffffffffff9092166001600160c81b031990991698909817178755919591565b51815463ffffffff60c81b191660c89190911b63ffffffff60c81b1617905551805160028301916001600160401b038211610d3557610beb82610be58554612ef5565b85613b2f565b86906001601f841114610d5a579180610c229260039695946101c05192610d4f575b50508160011b916000199060031b1c19161790565b90555b0191519182516001600160401b038111610d3557610c4d81610c478454612ef5565b84613b2f565b84936001601f831114610ccb57610c8092939482916101c05192610cc05750508160011b916000199060031b1c19161790565b90555b600e54604051913390827fdfc495a9ab5027ebf451b0bde607c053b25fdebc892e8bd60c755d720bd51d1f6101c0516101c051a460016007558152f35b015190508680610c0d565b601f19821694836101c05152866101c05120916101c0515b88888210610d1f57505083600195969710610d06575b505050811b019055610c83565b015160001960f88460031b161c19169055858080610cf9565b6001849582939585015181550194019201610ce3565b634e487b7160e01b6101c05152604160045260246101c051fd5b015190508980610c0d565b90601f19831691846101c05152886101c05120926101c0515b8a828210610db457505091600193918560039897969410610d9c575b505050811b019055610c25565b015160001983881b60f8161c19169055888080610d8f565b6001859682939686015181550195019301610d73565b610e05926040519384928392630a85bd0160e11b84523360048501526101c05160248501526044840152608060648401526084830190612e9e565b03816101c051335af16101c0519181610e83575b50610e4b5785610e27613de1565b80519182610e4857633250574960e11b6101c051523360045260246101c051fd5b01fd5b6001600160e01b03191663757a42ff60e11b01610e6a57858581610aa8565b633250574960e11b6101c051523360045260246101c051fd5b9091508681813d8311610ebc575b610e9b8183612f98565b8101031261044e57516001600160e01b03198116810361044e579087610e19565b503d610e91565b6339e3563760e11b6101c051526101c05160045260246101c051fd5b633250574960e11b6101c051526101c05160045260246101c051fd5b6312171d8360e31b6101c0515260046101c051fd5b63162908e360e11b6101c0515260046101c051fd5b638320b48360e01b6101c0515260046101c051fd5b6333f44d6160e01b6101c0515260046101c051fd5b630678856f60e21b6101c0515260046101c051fd5b3461044e576101c05136600319011261044e576020600e54604051908152f35b3461044e576101c05136600319011261044e576101c051506040516101c051600154610faf81612ef5565b808452906001811690811561101c5750600114610fd7575b6104ba836104a681850382612f98565b6101c08051600190525160208120939250905b808210611002575090915081016020016104a6610fc7565b919260018160209254838588010152019101909291610fea565b60ff191660208086019190915291151560051b840190910191506104a69050610fc7565b3461044e57602036600319011261044e576004356101c05152600b60205261010060406101c0512064ffffffffff815491600181015490600281015460018060a01b0360038301541660018060a01b03600484015416916006600585015494015494604051978852602088015260408701526060860152608085015260a084015260ff8116151560c084015260081c1660e0820152f35b3461044e57604036600319011261044e576110f0612e88565b6004356101c05152600660205260406101c05120906101c0515060018060a01b03166101c05152602052602060ff60406101c0512054166040519015158152f35b3461044e576101c05136600319011261044e5761114c61418a565b61115461438c565b600160ff1960085416176008557f62e78cea01bee320cd4e420270b5ea74000d11b0c9f74754ebdbfc544b05a2586020604051338152a16101c05180f35b3461044e57602036600319011261044e576004356111ae613e11565b50806101c05152600a60205260018060a01b03600160406101c05120015460281c163314158061121c575b610425576101c05152600a6020526104ba60406101c0512061120360036040519261039884612f7d565b60a0820152604051918291602083526020830190613321565b50806101c05152600a60205260406101c05120546101c05152600960205260018060a01b03600660406101c051200154163314156111d9565b3461044e576101c05136600319011261044e576020600d54604051908152f35b3461044e57602036600319011261044e576001600160a01b03611296612e6d565b1680156112b9576101c051526003602052602060406101c0512054604051908152f35b6322718ad960e21b6101c051526101c05160045260246101c051fd5b3461044e57602036600319011261044e5760206112f3600435614355565b6040516001600160a01b039091168152f35b602036600319011261044e5760043561131c61438c565b6113246145a4565b80158015611551575b61153c57806101c05152600b60205260ff600660406101c0512001541661152757806101c05152600b60205260406101c051209060028201546101c05152600960205260406101c05120600281015464ffffffffff8160981c164211610f255760058401543403610f10576113aa60ff60649260681c16346136d2565b046113b581346136f2565b6101c0516006909301549092918291829182916001600160a01b03165af16113db613de1565b5015610efb576101c05160038401805490928291829182916001600160a01b03165af1611406613de1565b5015610efb57600183810180546101c0805191909152600a6020525160409020909101805465010000000000600160c81b0319163360281b65010000000000600160c81b03161790559054815493906001600160a01b03163315610edf576001600160a01b0361147686336143a9565b1690816114965785637e27328960e01b6101c0515260045260246101c051fd5b8086918303611509575050506006906004810160018060a01b0333166001600160601b0360a01b82541617905501600160ff1982541617905554604051913483527fb8341b5f21761d74fd01fb60b5ab4649f1aca6944d5c4d067e21fccd1a921cbc60203394a460016007556101c05180f35b6364283d7b60e01b6101c0515260045260245260445260646101c051fd5b6305de099160e31b6101c0515260046101c051fd5b632b44303360e11b6101c0515260046101c051fd5b50600f54811161132d565b3461044e576101c05136600319011261044e57602060ff600854166040519015158152f35b3461044e57602036600319011261044e5760043561159d61438c565b80158015611632575b61153c57806101c05152600b60205260ff600660406101c05120015416611527576101c08051829052600b602052516040902060038101546001600160a01b0316330361042557806006600192018260ff198254161790550154907f59c3e31ec8892c34508197e97c25f0e4da6d87733b22b22765425d203f44667a6101c0516101c051a36101c05180f35b50600f5481116115a6565b3461044e57602036600319011261044e576004356101c05152600a60205260406101c0512080546104ba6001830154926116ce611688600361168160028501612fb9565b9301612fb9565b9163ffffffff604051968796875264ffffffffff8116602088015260018060a01b038160281c16604088015260c81c16606086015260c0608086015260c0850190612e9e565b9083820360a0850152612e9e565b3461044e576101c05136600319011261044e576040517f00000000000000000000000000000000000000000000000000000000000000006001600160a01b03168152602090f35b3461044e576101c05136600319011261044e5760206040517f73e573f9566d61418a34d5de3ff49360f9c51fec37f7486551670290f6285dab8152f35b3461044e576107c06117713661305d565b60405192909190611783602085612f98565b6101c05184526107ba8383836133da565b3461044e576101c05136600319011261044e576117af61418a565b60085460ff8116156117f35760ff19166008557f5db9ee0a495bf2e6ff9c91a7834c1ba4fdd244a5e8aa4e537bd38aeae4b073aa6020604051338152a16101c05180f35b638dfc202b60e01b6101c0515260046101c051fd5b3461044e576101e036600319011261044e576004356001600160401b03811161044e57611839903690600401613097565b61026052610280526024356001600160401b03811161044e57611860903690600401613097565b6101a0526101e052604435610240526001600160601b036102405116610240510361044e5760643560ff8116810361044e576084359060ff8216820361044e5760a4356102a081905264ffffffffff8116900361044e5760c43561020081905264ffffffffff8116900361044e5760e4356001600160401b03811161044e576118ed903690600401613097565b6102c052610104356001600160401b03811161044e57611911903690600401613097565b92610124356001600160401b03811161044e57611932903690600401613097565b6101443595919390929163ffffffff8716870361044e57610164356001600160401b03811161044e57611969903690600401613097565b60a05260c052610184356001600160401b03811161044e5761198f903690600401613097565b61010052610120526101a4356001600160401b03811161044e576119b7903690600401613097565b61022052610180526101c4356001600160401b03811161044e576119df903690600401613097565b61014052610160526119ef61438c565b63ffffffff871615610f1057606460ff8416116124df57606460ff8916116124df5764ffffffffff610200511664ffffffffff6102a0511610156124ca57611ae1611afe9660ff63ffffffff9a81611aef976001600d540160e05260e051600d55604051608052611a61608051612f61565b611a723661026051610280516133a3565b60805152611a87366101a0516101e0516133a3565b602060805101526001600160601b0361024051166040608051015216606060805101521660808051015264ffffffffff6102a0511660a0608051015264ffffffffff610200511660c0608051015236906102c051906133a3565b60e0608051015236916133a3565b610100608051015236916133a3565b61012060805101523361014060805101521661016060805101526101c051610180608051015260016101a06080510152611b3d3660a05160c0516133a3565b6101c06080510152611b563661010051610120516133a3565b6101e06080510152611b6f3661022051610180516133a3565b6102006080510152611b883661014051610160516133a3565b610220608051015260e0516101c05152600960205260406101c05120608051518051906001600160401b038211610d3557611bc782610be58554612ef5565b6020906001601f84111461245957918091611bfa936101c051926120d15750508160011b916000199060031b1c19161790565b81555b602060805101518051906001600160401b038211610d3557611c2f82611c266001860154612ef5565b60018601613b2f565b6020906001601f8411146123e257918091611c62936101c051926120d15750508160011b916000199060031b1c19161790565b60018201555b600281016001600160601b03604060805101511681549060ff60601b6060608051015160601b169060ff60681b60808051015160681b169064ffffffffff60701b60a0608051015160701b169264ffffffffff60981b60c0608051015160981b169464ffffffffff60981b199264ffffffffff60701b19916dffffffffffffffffffffffffffff191617161716171717905560e060805101519081516001600160401b038111610d3557611d2c81611d236003850154612ef5565b60038501613b2f565b6020926001601f83111461237357611d5f929382916101c051926120d15750508160011b916000199060031b1c19161790565b60038201555b61010060805101519081516001600160401b038111610d3557611d9881611d8f6004850154612ef5565b60048501613b2f565b6020926001601f83111461230457611dcb929382916101c051926120d15750508160011b916000199060031b1c19161790565b60048201555b61012060805101519081516001600160401b038111610d3557611e0481611dfb6005850154612ef5565b60058501613b2f565b6020926001601f83111461229557611e37929382916101c051926120d15750508160011b916000199060031b1c19161790565b60058201555b6080516101408101516006830180546101608401516101808501516101a086015160c09190911b63ffffffff60c01b1660a09290921b63ffffffff60a01b166001600160a01b039095166001600160e81b031990931692909217939093179290921791151560e01b60ff60e01b169190911790556101c00151805190919060078201906001600160401b038111610d3557611edc81610c478454612ef5565b60206001601f83111461222a578190611f0f9394956101c051926121b45750508160011b916000199060031b1c19161790565b90555b60088101906101e060805101519182516001600160401b038111610d3557611f3e81610c478454612ef5565b60206001601f8311146121bf578190611f719394956101c051926121b45750508160011b916000199060031b1c19161790565b90555b60098101906102006080510151918251926001600160401b038411610d3557611fa184610c478454612ef5565b6020906001601f861114612145579380611fd692600a966101c05192610cc05750508160011b916000199060031b1c19161790565b90555b0161022060805101519081516001600160401b038111610d355761200181610c478454612ef5565b6020926001601f8311146120dc57612034929382916101c051926120d15750508160011b916000199060031b1c19161790565b90555b6020600d5460405160a08152817f4c37167085cc1e9c8f1268af0ef8e5b26afb72ea7aebd93341c8422efec2daca61207960a084016102605161028051613dc0565b926001600160601b0361024051168682015264ffffffffff6102a05116604082015264ffffffffff610200511660608201528084036080820152806120c633956102205161018051613dc0565b0390a3604051908152f35b015190508480610c0d565b601f19821693836101c05152806101c05120916101c0515b86811061212d5750836001959610612114575b505050811b019055612037565b015160001960f88460031b161c19169055838080612107565b919260206001819286850151815501940192016120f4565b90601f19851691836101c05152816101c05120926101c0515b81811061219c5750916001939187600a989410612183575b505050811b019055611fd9565b015160001960f88460031b161c19169055858080612176565b9293602060018192878601518155019501930161215e565b015190508580610c0d565b601f19821690836101c05152806101c05120916101c0515b818110612212575095836001959697106121f9575b505050811b019055611f74565b015160001960f88460031b161c191690558480806121ec565b9192602060018192868b0151815501940192016121d7565b601f19821690836101c05152806101c05120916101c0515b81811061227d57509583600195969710612264575b505050811b019055611f12565b015160001960f88460031b161c19169055848080612257565b9192602060018192868b015181550194019201612242565b601f19821693600584016101c05152806101c05120916101c0515b8681106122ec57508360019596106122d3575b505050811b016005820155611e3d565b015160001960f88460031b161c191690558380806122c3565b919260206001819286850151815501940192016122b0565b601f19821693600484016101c05152806101c05120916101c0515b86811061235b5750836001959610612342575b505050811b016004820155611dd1565b015160001960f88460031b161c19169055838080612332565b9192602060018192868501518155019401920161231f565b601f19821693600384016101c05152806101c05120916101c0515b8681106123ca57508360019596106123b1575b505050811b016003820155611d65565b015160001960f88460031b161c191690558380806123a1565b9192602060018192868501518155019401920161238e565b9190600184016101c05152806101c05120906101c051935b601f198416851061243e576001945083601f19811610612425575b505050811b016001820155611c68565b015160001960f88460031b161c19169055838080612415565b818101518355602094850194600190930192909101906123fa565b9190836101c05152806101c05120906101c051935b601f19841685106124af576001945083601f19811610612496575b505050811b018155611bfd565b015160001960f88460031b161c19169055838080612489565b8181015183556020948501946001909301929091019061246e565b63364dd21b60e21b6101c0515260046101c051fd5b632d8768f960e01b6101c0515260046101c051fd5b3461044e57602036600319011261044e57600435806101c05152600960205260ff600660406101c05120015460e01c16156104395761253290613bbe565b6040518091602082016020835281518091526020604084019201906101c0515b818110612560575050500390f35b9193509160206101008261257760019488516132bd565b019401910191849392612552565b3461044e57606036600319011261044e5760043560243563ffffffff81169081900361044e576044356001600160401b03811161044e576125ca903690600401613097565b836101c05152600960205260ff600660406101c05120015460e01c1615610439576101c080518590526009602052516040902060060154336001600160a01b038216036104255760a01c63ffffffff16831015610f1057836101c05152600c60205260406101c051206101c05150836101c0515260205260406101c05120916001600160401b038211610d355761266582610be58554612ef5565b6101c05190601f83116001146126db57827f848fa310948ec41d9eb4afbada0028afdc8acd8179e7ebfe6ca9126e9af528539593602095936126bf936101c051926126d05750508160011b916000199060031b1c19161790565b90555b604051908152a26101c05180f35b013590508880610c0d565b601f19831691846101c0515260206101c05120926101c0515b81811061275657509260019285927f848fa310948ec41d9eb4afbada0028afdc8acd8179e7ebfe6ca9126e9af528539896602098961061273c575b505050811b0190556126c2565b0135600019600384901b60f8161c1916905587808061272f565b919360206001819287870135815501950192016126f4565b3461044e57604036600319011261044e57612787612e88565b336001600160a01b038216036127a357610618906004356142c8565b63334bd91960e11b6101c0515260046101c051fd5b3461044e57604036600319011261044e576106186004356127d7612e88565b906127f361060e82600052600660205260016040600020015490565b61451c565b3461044e576104ba61074961280c366130c4565b9291909161385a565b3461044e57602036600319011261044e576020612842600435600052600660205260016040600020015490565b604051908152f35b3461044e576107c061285b3661305d565b916133da565b3461044e57602036600319011261044e576004356101c0515260096020526101c0516040902061289081612fb9565b61289c60018301612fb9565b600283015490926128af60038201612fb9565b6128bb60048301612fb9565b6128c760058401612fb9565b6006840154906128d960078601612fb9565b926128e660088701612fb9565b946128f360098801612fb9565b96600a0161290090612fb9565b976040519a8b9a6102408c526102408c0161291a91612e9e565b8b810360208d015261292b91612e9e565b906001600160601b03811660408c01528060601c60ff1660608c01528060681c60ff1660808c01528060701c64ffffffffff1660a08c015260981c64ffffffffff1660c08b015289810360e08b015261298391612e9e565b8881036101008a015261299591612e9e565b8781036101208901526129a791612e9e565b90600160a01b6001900381166101408801528060a01c63ffffffff166101608801528060c01c63ffffffff1661018088015260e01c60ff1615156101a08701528581036101c08701526129f991612e9e565b8481036101e0860152612a0b91612e9e565b838103610200850152612a1d91612e9e565b8281036102208401526104ba91612e9e565b3461044e57612a3d36612edf565b90612a4661438c565b6101c08051829052600a60205251604090206001015460281c6001600160a01b0316330361042557806101c05152600a60205260406101c05120546101c05152600960205264ffffffffff600260406101c05120015460981c164211610f25576020916001600f540180600f55826101c05152600a845260406101c051205490612b926006604051612ad781612f2f565b838152878101878152604080830196875233606084019081526101c080516080860190815260a086018b8152825160c0880190815264ffffffffff421660e0890190815284519b909b52600b8f52925194909420955186559351600186015597516002850155516003840180546001600160a01b039283166001600160a01b03199182161790915592516004850180549190921693169290921790915551600582015593519301805460ff191693151560ff16939093178355565b5165ffffffffff0082549160081b169065ffffffffff001916179055600f5491604051918252827f02c9c8f74256de50f798bbeec6dd87beabf684503ffce6a496063959e4bcfa53853394a4604051908152f35b3461044e57604036600319011261044e57612bff612e6d565b602435612c0b81614355565b33151580612cd8575b80612ca5575b612c8c576101c05182916001600160a01b03858116929116907f8c5be1e5ebec7d5bd14f71427d1e84f3dd0314c0f7b2291e5b200ac8c7c3b9259080a46101c05152600460205260406101c051209060018060a01b03166001600160601b0360a01b8254161790556101c0516101c051f35b63a9fbf51f60e01b6101c051523360045260246101c051fd5b506101c080516001600160a01b038316905260056020908152815160408082203390925291529051205460ff1615612c1a565b506001600160a01b038116331415612c14565b3461044e57602036600319011261044e57600435612d0881614355565b506101c051526004602052602060018060a01b0360406101c051205416604051908152f35b3461044e576101c05136600319011261044e576101c0516040518154909190612d5581612ef5565b808452906001811690811561101c5750600114612d7c576104ba836104a681850382612f98565b6101c0805180525160208120939250905b808210612da5575090915081016020016104a6610fc7565b919260018160209254838588010152019101909291612d8d565b3461044e57602036600319011261044e57610618612ddb612e6d565b612de361418a565b61421a565b3461044e57602036600319011261044e576004359063ffffffff60e01b821680920361044e57602091637965db0b60e01b8114908115612e2a575b5015158152f35b6380ac58cd60e01b811491508115612e5c575b8115612e4b575b5083612e23565b6301ffc9a760e01b14905083612e44565b635b5e139f60e01b81149150612e3d565b600435906001600160a01b0382168203612e8357565b600080fd5b602435906001600160a01b0382168203612e8357565b919082519283825260005b848110612eca575050826000602080949584010152601f8019910116010190565b80602080928401015182828601015201612ea9565b6040906003190112612e83576004359060243590565b90600182811c92168015612f25575b6020831014612f0f57565b634e487b7160e01b600052602260045260246000fd5b91607f1691612f04565b61010081019081106001600160401b03821117612f4b57604052565b634e487b7160e01b600052604160045260246000fd5b61024081019081106001600160401b03821117612f4b57604052565b60c081019081106001600160401b03821117612f4b57604052565b90601f801991011681019081106001600160401b03821117612f4b57604052565b9060405191826000825492612fcd84612ef5565b808452936001811690811561303b5750600114612ff4575b50612ff292500383612f98565b565b90506000929192526020600020906000915b81831061301f575050906020612ff29282010138612fe5565b6020919350806001915483858901015201910190918492613006565b905060209250612ff294915060ff191682840152151560051b82010138612fe5565b6060906003190112612e83576004356001600160a01b0381168103612e8357906024356001600160a01b0381168103612e83579060443590565b9181601f84011215612e83578235916001600160401b038311612e835760208381860195010111612e8357565b6060600319820112612e8357600435906001600160401b038211612e83576130ee91600401613097565b90916024359060443590565b61325a916102206132486132346132206131c66131b261319e61313d61312b8a516102408b526102408b0190612e9e565b60208b01518a820360208c0152612e9e565b6001600160601b0360408b01511660408a015260ff60608b01511660608a015260ff60808b01511660808a015264ffffffffff60a08b01511660a08a015264ffffffffff60c08b01511660c08a015260e08a015189820360e08b0152612e9e565b6101008901518882036101008a0152612e9e565b610120880151878203610120890152612e9e565b60018060a01b036101408801511661014087015263ffffffff6101608801511661016087015263ffffffff610180880151166101808701526101a087015115156101a08701526101c08701518682036101c0880152612e9e565b6101e08601518582036101e0870152612e9e565b610200850151848203610200860152612e9e565b92015190610220818403910152612e9e565b90565b602081016020825282518091526040820191602060408360051b8301019401926000915b83831061329057505050505090565b90919293946020806132ae600193603f1986820301875289516130fa565b97019301930191939290613281565b64ffffffffff60e0809280518552602081015160208601526040810151604086015260018060a01b03606082015116606086015260018060a01b03608082015116608086015260a081015160a086015260c0810151151560c0860152015116910152565b61325a918151815264ffffffffff602083015116602082015260018060a01b03604083015116604082015263ffffffff606083015116606082015260a0613377608084015160c0608085015260c0840190612e9e565b9201519060a0818403910152612e9e565b6001600160401b038111612f4b57601f01601f191660200190565b9291926133af82613388565b916133bd6040519384612f98565b829481845281830111612e83578281602093846000960137010152565b6001600160a01b039091169190821561356b576000828152600260205260408120546001600160a01b03169383918590331515806134d3575b507fddf252ad1be2c89b69c2b068fc378daa952ba7f163c4a11628f55a4df523b3ef908261349e575b83815260036020526040812060018154019055848152600260205260408120846001600160601b0360a01b82541617905580a46001600160a01b031680830361348457505050565b6364283d7b60e01b60005260045260245260445260646000fd5b600085815260046020526040902080546001600160a01b0319169055828152600360205260408120805460001901905561343c565b91509192508061351c575b156134ed579084849238613413565b83908561350657602491637e27328960e01b8252600452fd5b60449163177e802f60e01b825233600452602452fd5b50338514801561354a575b806134de5750838152600460205260408120546001600160a01b031633146134de565b5084815260056020908152604080832033845290915281205460ff16613527565b633250574960e11b600052600060045260246000fd5b60001981146135905760010190565b634e487b7160e01b600052601160045260246000fd5b6001600160401b038111612f4b5760051b60200190565b604051906135ca82612f61565b6060610220838281528260208201526000604082015260008382015260006080820152600060a0820152600060c08201528260e0820152826101008201528261012082015260006101408201526000610160820152600061018082015260006101a0820152826101c0820152826101e0820152826102008201520152565b60405190613657602083612f98565b600080835282815b82811061366b57505050565b6020906136766135bd565b8282850101520161365f565b9061368c826135a6565b6136996040519182612f98565b82815280926136aa601f19916135a6565b019060005b8281106136bb57505050565b6020906136c66135bd565b828285010152016136af565b8181029291811591840414171561359057565b9190820180921161359057565b9190820391821161359057565b80518210156137135760209160051b010190565b634e487b7160e01b600052603260045260246000fd5b9060405161373681612f61565b610220613855600a839561374981612fb9565b855261375760018201612fb9565b602086015264ffffffffff60028201546001600160601b038116604088015260ff8160601c16606088015260ff8160681c166080880152818160701c1660a088015260981c1660c08601526137ae60038201612fb9565b60e08601526137bf60048201612fb9565b6101008601526137d160058201612fb9565b61012086015260068101546001600160a01b03811661014087015260a081901c63ffffffff90811661016088015260c082901c1661018087015260e01c60ff1615156101a086015261382560078201612fb9565b6101c086015261383760088201612fb9565b6101e086015261384960098201612fb9565b61020086015201612fb9565b910152565b939291926000600194600d54955b86811115613a3d57508115613a2e576138848561388b926136d2565b94856136e5565b90808211613a26575b5080841015613a18576138aa846138af926136f2565b613682565b9060009260009160015b8781111580613a0e575b15613a02578060005260096020526005604060002001604051600091818154936138ec85612ef5565b9283835260208301956001811690816000146139e3575060011461399e575b5061391892500382612f98565b51902061392636858c6133a3565b6020815191012014613941575b61393c90613581565b6138b9565b948681101561395f575b61395761393c91613581565b959050613933565b9261395761399561393c928860005260096020526139806040600020613729565b61398a828a6136ff565b5261040081896136ff565b9491505061394b565b915050600052816020600020916000925b8184106139c75750506020613918928201013861390b565b60209192508060019154838688010152019201919083916139af565b60ff191687525061391893151560051b8301602001915038905061390b565b50965050509250505090565b50845184106138c3565b50935050505061325a613648565b905038613894565b5050935050505061325a613648565b806000526009602052600560406000200160405160009181815493613a6185612ef5565b928383526020830195600181169081600014613b105750600114613acb575b50613a8d92500382612f98565b519020613a9b36878b6133a3565b6020815191012014613ab6575b613ab190613581565b613868565b91613ac3613ab191613581565b929050613aa8565b915050600052816020600020916000925b818410613af45750506020613a8d9282010138613a80565b6020919250806001915483868801015201920191908391613adc565b60ff1916875250613a8d93151560051b83016020019150389050613a80565b601f8211613b3c57505050565b6000526020600020906020601f840160051c83019310613b77575b601f0160051c01905b818110613b6b575050565b60008155600101613b60565b9091508190613b57565b60405190613b8e82612f2f565b600060e0838281528260208201528260408201528260608201528260808201528260a08201528260c08201520152565b600f5490600060015b83811115613d6257508015613d2557613bdf816135a6565b91613bed6040519384612f98565b818352601f19613bfc836135a6565b0160005b818110613d0e57505060009160015b8581111580613d05575b15613cfc5780600052600b602052826002604060002001541480613ce0575b613c4b575b613c4690613581565b613c0f565b92613cd8613c469185600052600b602052604060002064ffffffffff600660405192613c7684612f2f565b80548452600181015460208501526002810154604085015260038101546001600160a01b0390811660608601526004820154166080850152600581015460a0850152015460ff8116151560c084015260081c1660e08201526103f582896136ff565b939050613c3d565b5080600052600b60205260ff6006604060002001541615613c38565b50505050905090565b50818410613c19565b602090613d19613b81565b82828801015201613c00565b505060405190506000613d39602083612f98565b81526000805b818110613d4b57505090565b602090613d56613b81565b82828601015201613d3f565b80600052600b602052826002604060002001541480613da4575b613d8f575b613d8a90613581565b613bc7565b90613d9c613d8a91613581565b919050613d81565b5080600052600b60205260ff6006604060002001541615613d7c565b908060209392818452848401376000828201840152601f01601f1916010190565b3d15613e0c573d90613df282613388565b91613e006040519384612f98565b82523d6000602084013e565b606090565b60405190613e1e82612f7d565b606060a0836000815260006020820152600060408201526000838201528260808201520152565b63ffffffff6000199116019063ffffffff821161359057565b613e6b82613e72926136d2565b91826136e5565b600d54808211613ef7575b5080821015613eed57613e936138aa83836136f2565b91805b828110613ea35750505090565b6001810190818111613590576001916000526009602052613ee66040600020613ed5613ecf86856136f2565b91613729565b613edf82896136ff565b52866136ff565b5001613e96565b505061325a613648565b905038613e7d565b939291926000600194600d54955b8681111561409857508115613a2e5761388485613f29926136d2565b90808211614090575b5080841015613a18576138aa84613f48926136f2565b9060009260009160015b8781111580614086575b15613a0257806000526009602052600460406000200160405160009181815493613f8585612ef5565b9283835260208301956001811690816000146140675750600114614022575b50613fb192500382612f98565b519020613fbf36858c6133a3565b6020815191012014613fda575b613fd590613581565b613f52565b9486811015613ff8575b613ff0613fd591613581565b959050613fcc565b92613ff0614019613fd5928860005260096020526139806040600020613729565b94915050613fe4565b915050600052816020600020916000925b81841061404b5750506020613fb19282010138613fa4565b6020919250806001915483868801015201920191908391614033565b60ff1916875250613fb193151560051b83016020019150389050613fa4565b5084518410613f5c565b905038613f32565b8060005260096020526004604060002001604051600091818154936140bc85612ef5565b92838352602083019560018116908160001461416b5750600114614126575b506140e892500382612f98565b5190206140f636878b6133a3565b6020815191012014614111575b61410c90613581565b613f0d565b9161411e61410c91613581565b929050614103565b915050600052816020600020916000925b81841061414f57505060206140e892820101386140db565b6020919250806001915483868801015201920191908391614137565b60ff19168752506140e893151560051b830160200191503890506140db565b3360009081527f54cdd369e4e8a8515e52ca72ec816c2101831ad1f18bf44102ed171459c9b4f8602052604090205460ff16156141c357565b63e2517d3f60e01b60005233600452600060245260446000fd5b600081815260066020908152604080832033845290915290205460ff16156142025750565b63e2517d3f60e01b6000523360045260245260446000fd5b6001600160a01b03811660009081526000805160206146e3833981519152602052604090205460ff16156142c2576001600160a01b031660008181526000805160206146e383398151915260205260408120805460ff191690553391907f73e573f9566d61418a34d5de3ff49360f9c51fec37f7486551670290f6285dab907ff6391f5c32d9c69d2a47ea670b442974b53935d1edc7fd64eb21e047a839171b9080a4600190565b50600090565b60008181526006602090815260408083206001600160a01b038616845290915290205460ff161561434e5760008181526006602090815260408083206001600160a01b0395909516808452949091528120805460ff19169055339291907ff6391f5c32d9c69d2a47ea670b442974b53935d1edc7fd64eb21e047a839171b9080a4600190565b5050600090565b6000818152600260205260409020546001600160a01b0316908115614378575090565b637e27328960e01b60005260045260246000fd5b60ff6008541661439857565b63d93c066560e01b60005260046000fd5b6000828152600260205260409020546001600160a01b031691908261443b575b6001600160a01b031680614421575b8160005260026020526040600020816001600160601b0360a01b825416179055827fddf252ad1be2c89b69c2b068fc378daa952ba7f163c4a11628f55a4df523b3ef600080a490565b8060005260036020526040600020600181540190556143d8565b600082815260046020526040902080546001600160a01b0319169055826000526003602052604060002060001981540190556143c9565b6001600160a01b03811660009081526000805160206146e3833981519152602052604090205460ff166142c2576001600160a01b031660008181526000805160206146e383398151915260205260408120805460ff191660011790553391907f73e573f9566d61418a34d5de3ff49360f9c51fec37f7486551670290f6285dab907f2f8788117e7eff1d82e926ec794901d17c78024a50270940304540a733656f0d9080a4600190565b60008181526006602090815260408083206001600160a01b038616845290915290205460ff1661434e5760008181526006602090815260408083206001600160a01b0395909516808452949091528120805460ff19166001179055339291907f2f8788117e7eff1d82e926ec794901d17c78024a50270940304540a733656f0d9080a4600190565b6002600754146145b5576002600755565b633ee5aeb560e01b60005260046000fd5b823b6145d4575b5050505050565b604051630a85bd0160e11b81526001600160a01b039182166004820152918116602483015260448201939093526080606482015291169160209082908190614620906084830190612e9e565b03816000865af18091600091614698575b50906146625750614640613de1565b8051908161465d5782633250574960e11b60005260045260246000fd5b602001fd5b6001600160e01b03191663757a42ff60e11b01614684575038808080806145cd565b633250574960e11b60005260045260246000fd5b6020813d6020116146da575b816146b160209383612f98565b810103126146d65751906001600160e01b0319821682036146d3575038614631565b80fd5b5080fd5b3d91506146a456fe72e6a9b491581b344add3f7be10265867e64fdd874e84e97031c08ad09aea58ca2646970667358221220ec0b53fb63bd32f1856ad95e88cf7a55c33d37e23568f0d48010a53e1d83f53b64736f6c634300081c00332f8788117e7eff1d82e926ec794901d17c78024a50270940304540a733656f0d72e6a9b491581b344add3f7be10265867e64fdd874e84e97031c08ad09aea58c54cdd369e4e8a8515e52ca72ec816c2101831ad1f18bf44102ed171459c9b4f8",
		"linkReferences": {}
	},
	"methodIdentifiers": {
		"DEFAULT_ADMIN_ROLE()": "a217fddf",
		"UPDATER_ROLE()": "47e63380",
		"approve(address,uint256)": "095ea7b3",
		"balanceOf(address)": "70a08231",
		"buyTicket(uint256,string)": "9afb93cb",
		"campaignCount()": "7274e30d",
		"campaigns(uint256)": "141961bc",
		"cancelTransfer(uint256)": "59caecb5",
		"completeTransfer(uint256)": "619c83ed",
		"createCampaign(string,string,uint96,uint8,uint8,uint40,uint40,string,string,string,uint32,string,string,string,string)": "3d9ce1c5",
		"createTransfer(uint256,uint256)": "09787803",
		"getApproved(uint256)": "081812fc",
		"getCampaignById(uint256)": "e6ffcaa1",
		"getCampaignTickets(uint256)": "fe1e81b1",
		"getCampaignsByCity(string,uint256,uint256)": "bd5667f4",
		"getCampaignsByCountry(string,uint256,uint256)": "2a467a73",
		"getCampaignsByPage(uint256,uint256)": "b80450ba",
		"getPendingTransfersByCampaign(uint256)": "381097b3",
		"getRoleAdmin(bytes32)": "248a9ca3",
		"getTicket(uint256)": "7dc379fa",
		"getTicketSecret(uint256)": "ee44404d",
		"getTransfer(uint256)": "c16fe907",
		"grantRole(bytes32,address)": "2f2ff15d",
		"hasRole(bytes32,address)": "91d14854",
		"isApprovedForAll(address,address)": "e985e9c5",
		"name()": "06fdde03",
		"ownerOf(uint256)": "6352211e",
		"pause()": "8456cb59",
		"paused()": "5c975abb",
		"platformOwner()": "4df8ccb1",
		"removeUpdater(address)": "04b07a5e",
		"renounceRole(bytes32,address)": "36568abe",
		"revokeRole(bytes32,address)": "d547741f",
		"safeTransferFrom(address,address,uint256)": "42842e0e",
		"safeTransferFrom(address,address,uint256,bytes)": "b88d4fde",
		"setApprovalForAll(address,bool)": "a22cb465",
		"setTicketSecret(uint256,uint32,string)": "37f690ee",
		"setUpdater(address)": "9d54f419",
		"supportsInterface(bytes4)": "01ffc9a7",
		"symbol()": "95d89b41",
		"tickets(uint256)": "50b44712",
		"tokenIdCounter()": "98bdf6f5",
		"tokenURI(uint256)": "c87b56dd",
		"transferCount()": "e3d33fc9",
		"transferFrom(address,address,uint256)": "23b872dd",
		"transfers(uint256)": "9377d711",
		"unpause()": "3f4ba83a"
	},
	"id": 42
}