{
  "abi": [
    {
      "type": "constructor",
      "inputs": [],
      "stateMutability": "nonpayable"
    },
    {
      "type": "function",
      "name": "DEFAULT_ADMIN_ROLE",
      "inputs": [],
      "outputs": [
        {
          "name": "",
          "type": "bytes32",
          "internalType": "bytes32"
        }
      ],
      "stateMutability": "view"
    },
    {
      "type": "function",
      "name": "UPDATER_ROLE",
      "inputs": [],
      "outputs": [
        {
          "name": "",
          "type": "bytes32",
          "internalType": "bytes32"
        }
      ],
      "stateMutability": "view"
    },
    {
      "type": "function",
      "name": "approve",
      "inputs": [
        {
          "name": "to",
          "type": "address",
          "internalType": "address"
        },
        {
          "name": "tokenId",
          "type": "uint256",
          "internalType": "uint256"
        }
      ],
      "outputs": [],
      "stateMutability": "nonpayable"
    },
    {
      "type": "function",
      "name": "balanceOf",
      "inputs": [
        {
          "name": "owner",
          "type": "address",
          "internalType": "address"
        }
      ],
      "outputs": [
        {
          "name": "",
          "type": "uint256",
          "internalType": "uint256"
        }
      ],
      "stateMutability": "view"
    },
    {
      "type": "function",
      "name": "buyTicket",
      "inputs": [
        {
          "name": "campaignId",
          "type": "uint256",
          "internalType": "uint256"
        },
        {
          "name": "imageUrl",
          "type": "string",
          "internalType": "string"
        },
        {
          "name": "nillionStoreId",
          "type": "string",
          "internalType": "string"
        },
        {
          "name": "nillionUserId",
          "type": "string",
          "internalType": "string"
        }
      ],
      "outputs": [
        {
          "name": "",
          "type": "uint256",
          "internalType": "uint256"
        }
      ],
      "stateMutability": "payable"
    },
    {
      "type": "function",
      "name": "campaignCount",
      "inputs": [],
      "outputs": [
        {
          "name": "",
          "type": "uint256",
          "internalType": "uint256"
        }
      ],
      "stateMutability": "view"
    },
    {
      "type": "function",
      "name": "campaigns",
      "inputs": [
        {
          "name": "",
          "type": "uint256",
          "internalType": "uint256"
        }
      ],
      "outputs": [
        {
          "name": "name",
          "type": "string",
          "internalType": "string"
        },
        {
          "name": "description",
          "type": "string",
          "internalType": "string"
        },
        {
          "name": "pricePerTicket",
          "type": "uint96",
          "internalType": "uint96"
        },
        {
          "name": "platformFeePercentage",
          "type": "uint8",
          "internalType": "uint8"
        },
        {
          "name": "transferFeePercentage",
          "type": "uint8",
          "internalType": "uint8"
        },
        {
          "name": "startDate",
          "type": "uint40",
          "internalType": "uint40"
        },
        {
          "name": "expirationDate",
          "type": "uint40",
          "internalType": "uint40"
        },
        {
          "name": "imageUrl",
          "type": "string",
          "internalType": "string"
        },
        {
          "name": "city",
          "type": "string",
          "internalType": "string"
        },
        {
          "name": "country",
          "type": "string",
          "internalType": "string"
        },
        {
          "name": "owner",
          "type": "address",
          "internalType": "address"
        },
        {
          "name": "ticketsAvailable",
          "type": "uint32",
          "internalType": "uint32"
        },
        {
          "name": "ticketsSold",
          "type": "uint32",
          "internalType": "uint32"
        },
        {
          "name": "exists",
          "type": "bool",
          "internalType": "bool"
        },
        {
          "name": "storeId",
          "type": "string",
          "internalType": "string"
        },
        {
          "name": "secretName",
          "type": "string",
          "internalType": "string"
        },
        {
          "name": "category",
          "type": "string",
          "internalType": "string"
        },
        {
          "name": "eventType",
          "type": "string",
          "internalType": "string"
        },
        {
          "name": "campaignId",
          "type": "uint256",
          "internalType": "uint256"
        }
      ],
      "stateMutability": "view"
    },
    {
      "type": "function",
      "name": "cancelTransfer",
      "inputs": [
        {
          "name": "transferId",
          "type": "uint256",
          "internalType": "uint256"
        }
      ],
      "outputs": [],
      "stateMutability": "nonpayable"
    },
    {
      "type": "function",
      "name": "completeTransfer",
      "inputs": [
        {
          "name": "transferId",
          "type": "uint256",
          "internalType": "uint256"
        }
      ],
      "outputs": [],
      "stateMutability": "payable"
    },
    {
      "type": "function",
      "name": "createCampaign",
      "inputs": [
        {
          "name": "_name",
          "type": "string",
          "internalType": "string"
        },
        {
          "name": "_description",
          "type": "string",
          "internalType": "string"
        },
        {
          "name": "_pricePerTicket",
          "type": "uint96",
          "internalType": "uint96"
        },
        {
          "name": "_platformFeePercentage",
          "type": "uint8",
          "internalType": "uint8"
        },
        {
          "name": "_transferFeePercentage",
          "type": "uint8",
          "internalType": "uint8"
        },
        {
          "name": "_startDate",
          "type": "uint40",
          "internalType": "uint40"
        },
        {
          "name": "_expirationDate",
          "type": "uint40",
          "internalType": "uint40"
        },
        {
          "name": "_imageUrl",
          "type": "string",
          "internalType": "string"
        },
        {
          "name": "_city",
          "type": "string",
          "internalType": "string"
        },
        {
          "name": "_country",
          "type": "string",
          "internalType": "string"
        },
        {
          "name": "_ticketsAvailable",
          "type": "uint32",
          "internalType": "uint32"
        },
        {
          "name": "_storeId",
          "type": "string",
          "internalType": "string"
        },
        {
          "name": "_secretName",
          "type": "string",
          "internalType": "string"
        },
        {
          "name": "_category",
          "type": "string",
          "internalType": "string"
        },
        {
          "name": "_eventType",
          "type": "string",
          "internalType": "string"
        }
      ],
      "outputs": [
        {
          "name": "",
          "type": "uint256",
          "internalType": "uint256"
        }
      ],
      "stateMutability": "nonpayable"
    },
    {
      "type": "function",
      "name": "createTransfer",
      "inputs": [
        {
          "name": "tokenId",
          "type": "uint256",
          "internalType": "uint256"
        },
        {
          "name": "amount",
          "type": "uint256",
          "internalType": "uint256"
        }
      ],
      "outputs": [
        {
          "name": "",
          "type": "uint256",
          "internalType": "uint256"
        }
      ],
      "stateMutability": "nonpayable"
    },
    {
      "type": "function",
      "name": "getApproved",
      "inputs": [
        {
          "name": "tokenId",
          "type": "uint256",
          "internalType": "uint256"
        }
      ],
      "outputs": [
        {
          "name": "",
          "type": "address",
          "internalType": "address"
        }
      ],
      "stateMutability": "view"
    },
    {
      "type": "function",
      "name": "getCampaignById",
      "inputs": [
        {
          "name": "campaignId",
          "type": "uint256",
          "internalType": "uint256"
        }
      ],
      "outputs": [
        {
          "name": "",
          "type": "tuple",
          "internalType": "struct TicketingSystem.Campaign",
          "components": [
            {
              "name": "name",
              "type": "string",
              "internalType": "string"
            },
            {
              "name": "description",
              "type": "string",
              "internalType": "string"
            },
            {
              "name": "pricePerTicket",
              "type": "uint96",
              "internalType": "uint96"
            },
            {
              "name": "platformFeePercentage",
              "type": "uint8",
              "internalType": "uint8"
            },
            {
              "name": "transferFeePercentage",
              "type": "uint8",
              "internalType": "uint8"
            },
            {
              "name": "startDate",
              "type": "uint40",
              "internalType": "uint40"
            },
            {
              "name": "expirationDate",
              "type": "uint40",
              "internalType": "uint40"
            },
            {
              "name": "imageUrl",
              "type": "string",
              "internalType": "string"
            },
            {
              "name": "city",
              "type": "string",
              "internalType": "string"
            },
            {
              "name": "country",
              "type": "string",
              "internalType": "string"
            },
            {
              "name": "owner",
              "type": "address",
              "internalType": "address"
            },
            {
              "name": "ticketsAvailable",
              "type": "uint32",
              "internalType": "uint32"
            },
            {
              "name": "ticketsSold",
              "type": "uint32",
              "internalType": "uint32"
            },
            {
              "name": "exists",
              "type": "bool",
              "internalType": "bool"
            },
            {
              "name": "storeId",
              "type": "string",
              "internalType": "string"
            },
            {
              "name": "secretName",
              "type": "string",
              "internalType": "string"
            },
            {
              "name": "category",
              "type": "string",
              "internalType": "string"
            },
            {
              "name": "eventType",
              "type": "string",
              "internalType": "string"
            },
            {
              "name": "campaignId",
              "type": "uint256",
              "internalType": "uint256"
            }
          ]
        }
      ],
      "stateMutability": "view"
    },
    {
      "type": "function",
      "name": "getCampaignTickets",
      "inputs": [
        {
          "name": "campaignId",
          "type": "uint256",
          "internalType": "uint256"
        }
      ],
      "outputs": [
        {
          "name": "",
          "type": "tuple[]",
          "internalType": "struct TicketingSystem.Ticket[]",
          "components": [
            {
              "name": "campaignId",
              "type": "uint256",
              "internalType": "uint256"
            },
            {
              "name": "purchaseDate",
              "type": "uint40",
              "internalType": "uint40"
            },
            {
              "name": "owner",
              "type": "address",
              "internalType": "address"
            },
            {
              "name": "ticketIndex",
              "type": "uint32",
              "internalType": "uint32"
            },
            {
              "name": "secret",
              "type": "string",
              "internalType": "string"
            },
            {
              "name": "imageUrl",
              "type": "string",
              "internalType": "string"
            },
            {
              "name": "nillionUserId",
              "type": "string",
              "internalType": "string"
            },
            {
              "name": "nillionStoreId",
              "type": "string",
              "internalType": "string"
            },
            {
              "name": "nillionPidToSid",
              "type": "string",
              "internalType": "string"
            }
          ]
        }
      ],
      "stateMutability": "view"
    },
    {
      "type": "function",
      "name": "getCampaignsByCity",
      "inputs": [
        {
          "name": "_city",
          "type": "string",
          "internalType": "string"
        },
        {
          "name": "page",
          "type": "uint256",
          "internalType": "uint256"
        },
        {
          "name": "pageSize",
          "type": "uint256",
          "internalType": "uint256"
        }
      ],
      "outputs": [
        {
          "name": "",
          "type": "tuple[]",
          "internalType": "struct TicketingSystem.Campaign[]",
          "components": [
            {
              "name": "name",
              "type": "string",
              "internalType": "string"
            },
            {
              "name": "description",
              "type": "string",
              "internalType": "string"
            },
            {
              "name": "pricePerTicket",
              "type": "uint96",
              "internalType": "uint96"
            },
            {
              "name": "platformFeePercentage",
              "type": "uint8",
              "internalType": "uint8"
            },
            {
              "name": "transferFeePercentage",
              "type": "uint8",
              "internalType": "uint8"
            },
            {
              "name": "startDate",
              "type": "uint40",
              "internalType": "uint40"
            },
            {
              "name": "expirationDate",
              "type": "uint40",
              "internalType": "uint40"
            },
            {
              "name": "imageUrl",
              "type": "string",
              "internalType": "string"
            },
            {
              "name": "city",
              "type": "string",
              "internalType": "string"
            },
            {
              "name": "country",
              "type": "string",
              "internalType": "string"
            },
            {
              "name": "owner",
              "type": "address",
              "internalType": "address"
            },
            {
              "name": "ticketsAvailable",
              "type": "uint32",
              "internalType": "uint32"
            },
            {
              "name": "ticketsSold",
              "type": "uint32",
              "internalType": "uint32"
            },
            {
              "name": "exists",
              "type": "bool",
              "internalType": "bool"
            },
            {
              "name": "storeId",
              "type": "string",
              "internalType": "string"
            },
            {
              "name": "secretName",
              "type": "string",
              "internalType": "string"
            },
            {
              "name": "category",
              "type": "string",
              "internalType": "string"
            },
            {
              "name": "eventType",
              "type": "string",
              "internalType": "string"
            },
            {
              "name": "campaignId",
              "type": "uint256",
              "internalType": "uint256"
            }
          ]
        }
      ],
      "stateMutability": "view"
    },
    {
      "type": "function",
      "name": "getCampaignsByCountry",
      "inputs": [
        {
          "name": "_country",
          "type": "string",
          "internalType": "string"
        },
        {
          "name": "page",
          "type": "uint256",
          "internalType": "uint256"
        },
        {
          "name": "pageSize",
          "type": "uint256",
          "internalType": "uint256"
        }
      ],
      "outputs": [
        {
          "name": "",
          "type": "tuple[]",
          "internalType": "struct TicketingSystem.Campaign[]",
          "components": [
            {
              "name": "name",
              "type": "string",
              "internalType": "string"
            },
            {
              "name": "description",
              "type": "string",
              "internalType": "string"
            },
            {
              "name": "pricePerTicket",
              "type": "uint96",
              "internalType": "uint96"
            },
            {
              "name": "platformFeePercentage",
              "type": "uint8",
              "internalType": "uint8"
            },
            {
              "name": "transferFeePercentage",
              "type": "uint8",
              "internalType": "uint8"
            },
            {
              "name": "startDate",
              "type": "uint40",
              "internalType": "uint40"
            },
            {
              "name": "expirationDate",
              "type": "uint40",
              "internalType": "uint40"
            },
            {
              "name": "imageUrl",
              "type": "string",
              "internalType": "string"
            },
            {
              "name": "city",
              "type": "string",
              "internalType": "string"
            },
            {
              "name": "country",
              "type": "string",
              "internalType": "string"
            },
            {
              "name": "owner",
              "type": "address",
              "internalType": "address"
            },
            {
              "name": "ticketsAvailable",
              "type": "uint32",
              "internalType": "uint32"
            },
            {
              "name": "ticketsSold",
              "type": "uint32",
              "internalType": "uint32"
            },
            {
              "name": "exists",
              "type": "bool",
              "internalType": "bool"
            },
            {
              "name": "storeId",
              "type": "string",
              "internalType": "string"
            },
            {
              "name": "secretName",
              "type": "string",
              "internalType": "string"
            },
            {
              "name": "category",
              "type": "string",
              "internalType": "string"
            },
            {
              "name": "eventType",
              "type": "string",
              "internalType": "string"
            },
            {
              "name": "campaignId",
              "type": "uint256",
              "internalType": "uint256"
            }
          ]
        }
      ],
      "stateMutability": "view"
    },
    {
      "type": "function",
      "name": "getCampaignsByPage",
      "inputs": [
        {
          "name": "page",
          "type": "uint256",
          "internalType": "uint256"
        },
        {
          "name": "pageSize",
          "type": "uint256",
          "internalType": "uint256"
        }
      ],
      "outputs": [
        {
          "name": "",
          "type": "tuple[]",
          "internalType": "struct TicketingSystem.Campaign[]",
          "components": [
            {
              "name": "name",
              "type": "string",
              "internalType": "string"
            },
            {
              "name": "description",
              "type": "string",
              "internalType": "string"
            },
            {
              "name": "pricePerTicket",
              "type": "uint96",
              "internalType": "uint96"
            },
            {
              "name": "platformFeePercentage",
              "type": "uint8",
              "internalType": "uint8"
            },
            {
              "name": "transferFeePercentage",
              "type": "uint8",
              "internalType": "uint8"
            },
            {
              "name": "startDate",
              "type": "uint40",
              "internalType": "uint40"
            },
            {
              "name": "expirationDate",
              "type": "uint40",
              "internalType": "uint40"
            },
            {
              "name": "imageUrl",
              "type": "string",
              "internalType": "string"
            },
            {
              "name": "city",
              "type": "string",
              "internalType": "string"
            },
            {
              "name": "country",
              "type": "string",
              "internalType": "string"
            },
            {
              "name": "owner",
              "type": "address",
              "internalType": "address"
            },
            {
              "name": "ticketsAvailable",
              "type": "uint32",
              "internalType": "uint32"
            },
            {
              "name": "ticketsSold",
              "type": "uint32",
              "internalType": "uint32"
            },
            {
              "name": "exists",
              "type": "bool",
              "internalType": "bool"
            },
            {
              "name": "storeId",
              "type": "string",
              "internalType": "string"
            },
            {
              "name": "secretName",
              "type": "string",
              "internalType": "string"
            },
            {
              "name": "category",
              "type": "string",
              "internalType": "string"
            },
            {
              "name": "eventType",
              "type": "string",
              "internalType": "string"
            },
            {
              "name": "campaignId",
              "type": "uint256",
              "internalType": "uint256"
            }
          ]
        }
      ],
      "stateMutability": "view"
    },
    {
      "type": "function",
      "name": "getPendingTransfersByCampaign",
      "inputs": [
        {
          "name": "campaignId",
          "type": "uint256",
          "internalType": "uint256"
        }
      ],
      "outputs": [
        {
          "name": "",
          "type": "tuple[]",
          "internalType": "struct TicketingSystem.TransferListing[]",
          "components": [
            {
              "name": "transferId",
              "type": "uint256",
              "internalType": "uint256"
            },
            {
              "name": "tokenId",
              "type": "uint256",
              "internalType": "uint256"
            },
            {
              "name": "campaignId",
              "type": "uint256",
              "internalType": "uint256"
            },
            {
              "name": "from",
              "type": "address",
              "internalType": "address"
            },
            {
              "name": "to",
              "type": "address",
              "internalType": "address"
            },
            {
              "name": "amount",
              "type": "uint256",
              "internalType": "uint256"
            },
            {
              "name": "isCompleted",
              "type": "bool",
              "internalType": "bool"
            },
            {
              "name": "createDate",
              "type": "uint40",
              "internalType": "uint40"
            }
          ]
        }
      ],
      "stateMutability": "view"
    },
    {
      "type": "function",
      "name": "getRoleAdmin",
      "inputs": [
        {
          "name": "role",
          "type": "bytes32",
          "internalType": "bytes32"
        }
      ],
      "outputs": [
        {
          "name": "",
          "type": "bytes32",
          "internalType": "bytes32"
        }
      ],
      "stateMutability": "view"
    },
    {
      "type": "function",
      "name": "getTicket",
      "inputs": [
        {
          "name": "tokenId",
          "type": "uint256",
          "internalType": "uint256"
        }
      ],
      "outputs": [
        {
          "name": "",
          "type": "tuple",
          "internalType": "struct TicketingSystem.Ticket",
          "components": [
            {
              "name": "campaignId",
              "type": "uint256",
              "internalType": "uint256"
            },
            {
              "name": "purchaseDate",
              "type": "uint40",
              "internalType": "uint40"
            },
            {
              "name": "owner",
              "type": "address",
              "internalType": "address"
            },
            {
              "name": "ticketIndex",
              "type": "uint32",
              "internalType": "uint32"
            },
            {
              "name": "secret",
              "type": "string",
              "internalType": "string"
            },
            {
              "name": "imageUrl",
              "type": "string",
              "internalType": "string"
            },
            {
              "name": "nillionUserId",
              "type": "string",
              "internalType": "string"
            },
            {
              "name": "nillionStoreId",
              "type": "string",
              "internalType": "string"
            },
            {
              "name": "nillionPidToSid",
              "type": "string",
              "internalType": "string"
            }
          ]
        }
      ],
      "stateMutability": "view"
    },
    {
      "type": "function",
      "name": "getTicketSecret",
      "inputs": [
        {
          "name": "tokenId",
          "type": "uint256",
          "internalType": "uint256"
        }
      ],
      "outputs": [
        {
          "name": "",
          "type": "string",
          "internalType": "string"
        }
      ],
      "stateMutability": "view"
    },
    {
      "type": "function",
      "name": "getTransfer",
      "inputs": [
        {
          "name": "transferId",
          "type": "uint256",
          "internalType": "uint256"
        }
      ],
      "outputs": [
        {
          "name": "",
          "type": "tuple",
          "internalType": "struct TicketingSystem.TransferListing",
          "components": [
            {
              "name": "transferId",
              "type": "uint256",
              "internalType": "uint256"
            },
            {
              "name": "tokenId",
              "type": "uint256",
              "internalType": "uint256"
            },
            {
              "name": "campaignId",
              "type": "uint256",
              "internalType": "uint256"
            },
            {
              "name": "from",
              "type": "address",
              "internalType": "address"
            },
            {
              "name": "to",
              "type": "address",
              "internalType": "address"
            },
            {
              "name": "amount",
              "type": "uint256",
              "internalType": "uint256"
            },
            {
              "name": "isCompleted",
              "type": "bool",
              "internalType": "bool"
            },
            {
              "name": "createDate",
              "type": "uint40",
              "internalType": "uint40"
            }
          ]
        }
      ],
      "stateMutability": "view"
    },
    {
      "type": "function",
      "name": "getUserTickets",
      "inputs": [
        {
          "name": "user",
          "type": "address",
          "internalType": "address"
        }
      ],
      "outputs": [
        {
          "name": "",
          "type": "tuple[]",
          "internalType": "struct TicketingSystem.Ticket[]",
          "components": [
            {
              "name": "campaignId",
              "type": "uint256",
              "internalType": "uint256"
            },
            {
              "name": "purchaseDate",
              "type": "uint40",
              "internalType": "uint40"
            },
            {
              "name": "owner",
              "type": "address",
              "internalType": "address"
            },
            {
              "name": "ticketIndex",
              "type": "uint32",
              "internalType": "uint32"
            },
            {
              "name": "secret",
              "type": "string",
              "internalType": "string"
            },
            {
              "name": "imageUrl",
              "type": "string",
              "internalType": "string"
            },
            {
              "name": "nillionUserId",
              "type": "string",
              "internalType": "string"
            },
            {
              "name": "nillionStoreId",
              "type": "string",
              "internalType": "string"
            },
            {
              "name": "nillionPidToSid",
              "type": "string",
              "internalType": "string"
            }
          ]
        }
      ],
      "stateMutability": "view"
    },
    {
      "type": "function",
      "name": "grantRole",
      "inputs": [
        {
          "name": "role",
          "type": "bytes32",
          "internalType": "bytes32"
        },
        {
          "name": "account",
          "type": "address",
          "internalType": "address"
        }
      ],
      "outputs": [],
      "stateMutability": "nonpayable"
    },
    {
      "type": "function",
      "name": "hasRole",
      "inputs": [
        {
          "name": "role",
          "type": "bytes32",
          "internalType": "bytes32"
        },
        {
          "name": "account",
          "type": "address",
          "internalType": "address"
        }
      ],
      "outputs": [
        {
          "name": "",
          "type": "bool",
          "internalType": "bool"
        }
      ],
      "stateMutability": "view"
    },
    {
      "type": "function",
      "name": "isApprovedForAll",
      "inputs": [
        {
          "name": "owner",
          "type": "address",
          "internalType": "address"
        },
        {
          "name": "operator",
          "type": "address",
          "internalType": "address"
        }
      ],
      "outputs": [
        {
          "name": "",
          "type": "bool",
          "internalType": "bool"
        }
      ],
      "stateMutability": "view"
    },
    {
      "type": "function",
      "name": "name",
      "inputs": [],
      "outputs": [
        {
          "name": "",
          "type": "string",
          "internalType": "string"
        }
      ],
      "stateMutability": "view"
    },
    {
      "type": "function",
      "name": "ownerOf",
      "inputs": [
        {
          "name": "tokenId",
          "type": "uint256",
          "internalType": "uint256"
        }
      ],
      "outputs": [
        {
          "name": "",
          "type": "address",
          "internalType": "address"
        }
      ],
      "stateMutability": "view"
    },
    {
      "type": "function",
      "name": "pause",
      "inputs": [],
      "outputs": [],
      "stateMutability": "nonpayable"
    },
    {
      "type": "function",
      "name": "paused",
      "inputs": [],
      "outputs": [
        {
          "name": "",
          "type": "bool",
          "internalType": "bool"
        }
      ],
      "stateMutability": "view"
    },
    {
      "type": "function",
      "name": "platformOwner",
      "inputs": [],
      "outputs": [
        {
          "name": "",
          "type": "address",
          "internalType": "address"
        }
      ],
      "stateMutability": "view"
    },
    {
      "type": "function",
      "name": "redeemTicket",
      "inputs": [
        {
          "name": "tokenId",
          "type": "uint256",
          "internalType": "uint256"
        },
        {
          "name": "pidToSid",
          "type": "string",
          "internalType": "string"
        }
      ],
      "outputs": [],
      "stateMutability": "nonpayable"
    },
    {
      "type": "function",
      "name": "removeUpdater",
      "inputs": [
        {
          "name": "account",
          "type": "address",
          "internalType": "address"
        }
      ],
      "outputs": [],
      "stateMutability": "nonpayable"
    },
    {
      "type": "function",
      "name": "renounceRole",
      "inputs": [
        {
          "name": "role",
          "type": "bytes32",
          "internalType": "bytes32"
        },
        {
          "name": "callerConfirmation",
          "type": "address",
          "internalType": "address"
        }
      ],
      "outputs": [],
      "stateMutability": "nonpayable"
    },
    {
      "type": "function",
      "name": "revokeRole",
      "inputs": [
        {
          "name": "role",
          "type": "bytes32",
          "internalType": "bytes32"
        },
        {
          "name": "account",
          "type": "address",
          "internalType": "address"
        }
      ],
      "outputs": [],
      "stateMutability": "nonpayable"
    },
    {
      "type": "function",
      "name": "safeTransferFrom",
      "inputs": [
        {
          "name": "from",
          "type": "address",
          "internalType": "address"
        },
        {
          "name": "to",
          "type": "address",
          "internalType": "address"
        },
        {
          "name": "tokenId",
          "type": "uint256",
          "internalType": "uint256"
        }
      ],
      "outputs": [],
      "stateMutability": "nonpayable"
    },
    {
      "type": "function",
      "name": "safeTransferFrom",
      "inputs": [
        {
          "name": "from",
          "type": "address",
          "internalType": "address"
        },
        {
          "name": "to",
          "type": "address",
          "internalType": "address"
        },
        {
          "name": "tokenId",
          "type": "uint256",
          "internalType": "uint256"
        },
        {
          "name": "data",
          "type": "bytes",
          "internalType": "bytes"
        }
      ],
      "outputs": [],
      "stateMutability": "nonpayable"
    },
    {
      "type": "function",
      "name": "setApprovalForAll",
      "inputs": [
        {
          "name": "operator",
          "type": "address",
          "internalType": "address"
        },
        {
          "name": "approved",
          "type": "bool",
          "internalType": "bool"
        }
      ],
      "outputs": [],
      "stateMutability": "nonpayable"
    },
    {
      "type": "function",
      "name": "setTicketSecret",
      "inputs": [
        {
          "name": "campaignId",
          "type": "uint256",
          "internalType": "uint256"
        },
        {
          "name": "ticketIndex",
          "type": "uint32",
          "internalType": "uint32"
        },
        {
          "name": "secret",
          "type": "string",
          "internalType": "string"
        }
      ],
      "outputs": [],
      "stateMutability": "nonpayable"
    },
    {
      "type": "function",
      "name": "setUpdater",
      "inputs": [
        {
          "name": "account",
          "type": "address",
          "internalType": "address"
        }
      ],
      "outputs": [],
      "stateMutability": "nonpayable"
    },
    {
      "type": "function",
      "name": "supportsInterface",
      "inputs": [
        {
          "name": "interfaceId",
          "type": "bytes4",
          "internalType": "bytes4"
        }
      ],
      "outputs": [
        {
          "name": "",
          "type": "bool",
          "internalType": "bool"
        }
      ],
      "stateMutability": "view"
    },
    {
      "type": "function",
      "name": "symbol",
      "inputs": [],
      "outputs": [
        {
          "name": "",
          "type": "string",
          "internalType": "string"
        }
      ],
      "stateMutability": "view"
    },
    {
      "type": "function",
      "name": "tickets",
      "inputs": [
        {
          "name": "",
          "type": "uint256",
          "internalType": "uint256"
        }
      ],
      "outputs": [
        {
          "name": "campaignId",
          "type": "uint256",
          "internalType": "uint256"
        },
        {
          "name": "purchaseDate",
          "type": "uint40",
          "internalType": "uint40"
        },
        {
          "name": "owner",
          "type": "address",
          "internalType": "address"
        },
        {
          "name": "ticketIndex",
          "type": "uint32",
          "internalType": "uint32"
        },
        {
          "name": "secret",
          "type": "string",
          "internalType": "string"
        },
        {
          "name": "imageUrl",
          "type": "string",
          "internalType": "string"
        },
        {
          "name": "nillionUserId",
          "type": "string",
          "internalType": "string"
        },
        {
          "name": "nillionStoreId",
          "type": "string",
          "internalType": "string"
        },
        {
          "name": "nillionPidToSid",
          "type": "string",
          "internalType": "string"
        }
      ],
      "stateMutability": "view"
    },
    {
      "type": "function",
      "name": "tokenIdCounter",
      "inputs": [],
      "outputs": [
        {
          "name": "",
          "type": "uint256",
          "internalType": "uint256"
        }
      ],
      "stateMutability": "view"
    },
    {
      "type": "function",
      "name": "tokenURI",
      "inputs": [
        {
          "name": "tokenId",
          "type": "uint256",
          "internalType": "uint256"
        }
      ],
      "outputs": [
        {
          "name": "",
          "type": "string",
          "internalType": "string"
        }
      ],
      "stateMutability": "view"
    },
    {
      "type": "function",
      "name": "transferCount",
      "inputs": [],
      "outputs": [
        {
          "name": "",
          "type": "uint256",
          "internalType": "uint256"
        }
      ],
      "stateMutability": "view"
    },
    {
      "type": "function",
      "name": "transferFrom",
      "inputs": [
        {
          "name": "from",
          "type": "address",
          "internalType": "address"
        },
        {
          "name": "to",
          "type": "address",
          "internalType": "address"
        },
        {
          "name": "tokenId",
          "type": "uint256",
          "internalType": "uint256"
        }
      ],
      "outputs": [],
      "stateMutability": "nonpayable"
    },
    {
      "type": "function",
      "name": "transfers",
      "inputs": [
        {
          "name": "",
          "type": "uint256",
          "internalType": "uint256"
        }
      ],
      "outputs": [
        {
          "name": "transferId",
          "type": "uint256",
          "internalType": "uint256"
        },
        {
          "name": "tokenId",
          "type": "uint256",
          "internalType": "uint256"
        },
        {
          "name": "campaignId",
          "type": "uint256",
          "internalType": "uint256"
        },
        {
          "name": "from",
          "type": "address",
          "internalType": "address"
        },
        {
          "name": "to",
          "type": "address",
          "internalType": "address"
        },
        {
          "name": "amount",
          "type": "uint256",
          "internalType": "uint256"
        },
        {
          "name": "isCompleted",
          "type": "bool",
          "internalType": "bool"
        },
        {
          "name": "createDate",
          "type": "uint40",
          "internalType": "uint40"
        }
      ],
      "stateMutability": "view"
    },
    {
      "type": "function",
      "name": "unpause",
      "inputs": [],
      "outputs": [],
      "stateMutability": "nonpayable"
    },
    {
      "type": "event",
      "name": "Approval",
      "inputs": [
        {
          "name": "owner",
          "type": "address",
          "indexed": true,
          "internalType": "address"
        },
        {
          "name": "approved",
          "type": "address",
          "indexed": true,
          "internalType": "address"
        },
        {
          "name": "tokenId",
          "type": "uint256",
          "indexed": true,
          "internalType": "uint256"
        }
      ],
      "anonymous": false
    },
    {
      "type": "event",
      "name": "ApprovalForAll",
      "inputs": [
        {
          "name": "owner",
          "type": "address",
          "indexed": true,
          "internalType": "address"
        },
        {
          "name": "operator",
          "type": "address",
          "indexed": true,
          "internalType": "address"
        },
        {
          "name": "approved",
          "type": "bool",
          "indexed": false,
          "internalType": "bool"
        }
      ],
      "anonymous": false
    },
    {
      "type": "event",
      "name": "CampaignCreated",
      "inputs": [
        {
          "name": "campaignId",
          "type": "uint256",
          "indexed": true,
          "internalType": "uint256"
        },
        {
          "name": "name",
          "type": "string",
          "indexed": false,
          "internalType": "string"
        },
        {
          "name": "pricePerTicket",
          "type": "uint96",
          "indexed": false,
          "internalType": "uint96"
        },
        {
          "name": "startDate",
          "type": "uint40",
          "indexed": false,
          "internalType": "uint40"
        },
        {
          "name": "expirationDate",
          "type": "uint40",
          "indexed": false,
          "internalType": "uint40"
        },
        {
          "name": "owner",
          "type": "address",
          "indexed": true,
          "internalType": "address"
        },
        {
          "name": "category",
          "type": "string",
          "indexed": false,
          "internalType": "string"
        }
      ],
      "anonymous": false
    },
    {
      "type": "event",
      "name": "Paused",
      "inputs": [
        {
          "name": "account",
          "type": "address",
          "indexed": false,
          "internalType": "address"
        }
      ],
      "anonymous": false
    },
    {
      "type": "event",
      "name": "RoleAdminChanged",
      "inputs": [
        {
          "name": "role",
          "type": "bytes32",
          "indexed": true,
          "internalType": "bytes32"
        },
        {
          "name": "previousAdminRole",
          "type": "bytes32",
          "indexed": true,
          "internalType": "bytes32"
        },
        {
          "name": "newAdminRole",
          "type": "bytes32",
          "indexed": true,
          "internalType": "bytes32"
        }
      ],
      "anonymous": false
    },
    {
      "type": "event",
      "name": "RoleGranted",
      "inputs": [
        {
          "name": "role",
          "type": "bytes32",
          "indexed": true,
          "internalType": "bytes32"
        },
        {
          "name": "account",
          "type": "address",
          "indexed": true,
          "internalType": "address"
        },
        {
          "name": "sender",
          "type": "address",
          "indexed": true,
          "internalType": "address"
        }
      ],
      "anonymous": false
    },
    {
      "type": "event",
      "name": "RoleRevoked",
      "inputs": [
        {
          "name": "role",
          "type": "bytes32",
          "indexed": true,
          "internalType": "bytes32"
        },
        {
          "name": "account",
          "type": "address",
          "indexed": true,
          "internalType": "address"
        },
        {
          "name": "sender",
          "type": "address",
          "indexed": true,
          "internalType": "address"
        }
      ],
      "anonymous": false
    },
    {
      "type": "event",
      "name": "SecretSet",
      "inputs": [
        {
          "name": "campaignId",
          "type": "uint256",
          "indexed": true,
          "internalType": "uint256"
        },
        {
          "name": "ticketIndex",
          "type": "uint32",
          "indexed": false,
          "internalType": "uint32"
        }
      ],
      "anonymous": false
    },
    {
      "type": "event",
      "name": "TicketBought",
      "inputs": [
        {
          "name": "tokenId",
          "type": "uint256",
          "indexed": true,
          "internalType": "uint256"
        },
        {
          "name": "campaignId",
          "type": "uint256",
          "indexed": true,
          "internalType": "uint256"
        },
        {
          "name": "buyer",
          "type": "address",
          "indexed": true,
          "internalType": "address"
        }
      ],
      "anonymous": false
    },
    {
      "type": "event",
      "name": "TicketTransferred",
      "inputs": [
        {
          "name": "tokenId",
          "type": "uint256",
          "indexed": true,
          "internalType": "uint256"
        },
        {
          "name": "from",
          "type": "address",
          "indexed": true,
          "internalType": "address"
        },
        {
          "name": "to",
          "type": "address",
          "indexed": true,
          "internalType": "address"
        },
        {
          "name": "amount",
          "type": "uint256",
          "indexed": false,
          "internalType": "uint256"
        }
      ],
      "anonymous": false
    },
    {
      "type": "event",
      "name": "Transfer",
      "inputs": [
        {
          "name": "from",
          "type": "address",
          "indexed": true,
          "internalType": "address"
        },
        {
          "name": "to",
          "type": "address",
          "indexed": true,
          "internalType": "address"
        },
        {
          "name": "tokenId",
          "type": "uint256",
          "indexed": true,
          "internalType": "uint256"
        }
      ],
      "anonymous": false
    },
    {
      "type": "event",
      "name": "TransferCancelled",
      "inputs": [
        {
          "name": "transferId",
          "type": "uint256",
          "indexed": true,
          "internalType": "uint256"
        },
        {
          "name": "tokenId",
          "type": "uint256",
          "indexed": true,
          "internalType": "uint256"
        }
      ],
      "anonymous": false
    },
    {
      "type": "event",
      "name": "TransferCompleted",
      "inputs": [
        {
          "name": "transferId",
          "type": "uint256",
          "indexed": true,
          "internalType": "uint256"
        },
        {
          "name": "tokenId",
          "type": "uint256",
          "indexed": true,
          "internalType": "uint256"
        },
        {
          "name": "to",
          "type": "address",
          "indexed": true,
          "internalType": "address"
        },
        {
          "name": "amount",
          "type": "uint256",
          "indexed": false,
          "internalType": "uint256"
        }
      ],
      "anonymous": false
    },
    {
      "type": "event",
      "name": "TransferCreated",
      "inputs": [
        {
          "name": "transferId",
          "type": "uint256",
          "indexed": true,
          "internalType": "uint256"
        },
        {
          "name": "tokenId",
          "type": "uint256",
          "indexed": true,
          "internalType": "uint256"
        },
        {
          "name": "from",
          "type": "address",
          "indexed": true,
          "internalType": "address"
        },
        {
          "name": "amount",
          "type": "uint256",
          "indexed": false,
          "internalType": "uint256"
        }
      ],
      "anonymous": false
    },
    {
      "type": "event",
      "name": "Unpaused",
      "inputs": [
        {
          "name": "account",
          "type": "address",
          "indexed": false,
          "internalType": "address"
        }
      ],
      "anonymous": false
    },
    {
      "type": "error",
      "name": "AccessControlBadConfirmation",
      "inputs": []
    },
    {
      "type": "error",
      "name": "AccessControlUnauthorizedAccount",
      "inputs": [
        {
          "name": "account",
          "type": "address",
          "internalType": "address"
        },
        {
          "name": "neededRole",
          "type": "bytes32",
          "internalType": "bytes32"
        }
      ]
    },
    {
      "type": "error",
      "name": "CampaignExpired",
      "inputs": []
    },
    {
      "type": "error",
      "name": "CampaignNotFound",
      "inputs": []
    },
    {
      "type": "error",
      "name": "CampaignNotStarted",
      "inputs": []
    },
    {
      "type": "error",
      "name": "ERC721IncorrectOwner",
      "inputs": [
        {
          "name": "sender",
          "type": "address",
          "internalType": "address"
        },
        {
          "name": "tokenId",
          "type": "uint256",
          "internalType": "uint256"
        },
        {
          "name": "owner",
          "type": "address",
          "internalType": "address"
        }
      ]
    },
    {
      "type": "error",
      "name": "ERC721InsufficientApproval",
      "inputs": [
        {
          "name": "operator",
          "type": "address",
          "internalType": "address"
        },
        {
          "name": "tokenId",
          "type": "uint256",
          "internalType": "uint256"
        }
      ]
    },
    {
      "type": "error",
      "name": "ERC721InvalidApprover",
      "inputs": [
        {
          "name": "approver",
          "type": "address",
          "internalType": "address"
        }
      ]
    },
    {
      "type": "error",
      "name": "ERC721InvalidOperator",
      "inputs": [
        {
          "name": "operator",
          "type": "address",
          "internalType": "address"
        }
      ]
    },
    {
      "type": "error",
      "name": "ERC721InvalidOwner",
      "inputs": [
        {
          "name": "owner",
          "type": "address",
          "internalType": "address"
        }
      ]
    },
    {
      "type": "error",
      "name": "ERC721InvalidReceiver",
      "inputs": [
        {
          "name": "receiver",
          "type": "address",
          "internalType": "address"
        }
      ]
    },
    {
      "type": "error",
      "name": "ERC721InvalidSender",
      "inputs": [
        {
          "name": "sender",
          "type": "address",
          "internalType": "address"
        }
      ]
    },
    {
      "type": "error",
      "name": "ERC721NonexistentToken",
      "inputs": [
        {
          "name": "tokenId",
          "type": "uint256",
          "internalType": "uint256"
        }
      ]
    },
    {
      "type": "error",
      "name": "EnforcedPause",
      "inputs": []
    },
    {
      "type": "error",
      "name": "ExpectedPause",
      "inputs": []
    },
    {
      "type": "error",
      "name": "InsufficientTickets",
      "inputs": []
    },
    {
      "type": "error",
      "name": "InvalidAmount",
      "inputs": []
    },
    {
      "type": "error",
      "name": "InvalidDates",
      "inputs": []
    },
    {
      "type": "error",
      "name": "InvalidFees",
      "inputs": []
    },
    {
      "type": "error",
      "name": "InvalidTransferState",
      "inputs": []
    },
    {
      "type": "error",
      "name": "ReentrancyGuardReentrantCall",
      "inputs": []
    },
    {
      "type": "error",
      "name": "SecretNotFound",
      "inputs": []
    },
    {
      "type": "error",
      "name": "TransferAlreadyCompleted",
      "inputs": []
    },
    {
      "type": "error",
      "name": "TransferFailed",
      "inputs": []
    },
    {
      "type": "error",
      "name": "TransferNotFound",
      "inputs": []
    },
    {
      "type": "error",
      "name": "Unauthorized",
      "inputs": []
    }
  ],
  "bytecode": {
    "object": "0x60a06040523461035e57604080519081016001600160401b0381118282101761026b5760409081526009825268151a58dad95d13919560ba1b602083015280519081016001600160401b0381118282101761026b576040526006815265151250d2d15560d21b602082015281516001600160401b03811161026b57600054600181811c91168015610354575b602082101461024b57601f81116102f0575b50602092601f821160011461028c5792819293600092610281575b50508160011b916000199060031b1c1916176000555b80516001600160401b03811161026b57600154600181811c91168015610261575b602082101461024b57601f81116101e6575b50602091601f821160011461018257918192600092610177575b50508160011b916000199060031b1c1916176001555b600160075560ff19600854166008553360805261014d33610363565b50610157336103df565b50604051614ceb908161047882396080518181816111310152611bc00152f35b01519050388061011b565b601f198216926001600052806000209160005b8581106101ce575083600195106101b5575b505050811b01600155610131565b015160001960f88460031b161c191690553880806101a7565b91926020600181928685015181550194019201610195565b60016000527fb10e2d527612073b26eecdfd717e6a320cf44b4afac2b0732d9fcbe2b7fa0cf6601f830160051c81019160208410610241575b601f0160051c01905b8181106102355750610101565b60008155600101610228565b909150819061021f565b634e487b7160e01b600052602260045260246000fd5b90607f16906100ef565b634e487b7160e01b600052604160045260246000fd5b0151905038806100b8565b601f1982169360008052806000209160005b8681106102d857508360019596106102bf575b505050811b016000556100ce565b015160001960f88460031b161c191690553880806102b1565b9192602060018192868501518155019401920161029e565b600080527f290decd9548b62a8d60345a988386fc84ba6bc95484008f6362f93160ef3e563601f830160051c8101916020841061034a575b601f0160051c01905b81811061033e575061009d565b60008155600101610331565b9091508190610328565b90607f169061008b565b600080fd5b6001600160a01b03811660009081526000805160206151a3833981519152602052604090205460ff166103d9576001600160a01b031660008181526000805160206151a383398151915260205260408120805460ff191660011790553391906000805160206151638339815191528180a4600190565b50600090565b6001600160a01b0381166000908152600080516020615183833981519152602052604090205460ff166103d9576001600160a01b0316600081815260008051602061518383398151915260205260408120805460ff191660011790553391907f73e573f9566d61418a34d5de3ff49360f9c51fec37f7486551670290f6285dab906000805160206151638339815191529080a460019056fe6102c080604052600436101561001457600080fd5b60006101a0526101a0513560e01c90816301ffc9a714613481575080630484a22f1461336957806304b07a5e1461334057806306fdde03146132b1578063081812fc1461326f578063095ea7b31461316a5780630978780314612fb3578063141961bc14612d4457806323b872dd14612d2d578063248a9ca314612cf85780632a467a7314612cdb5780632f2ff15d14612c9b57806336568abe14612c5157806337f690ee14612a68578063381097b3146129d75780633d9ce1c514611cd45780633f4ba83a14611c6057806342842e0e14611c2c57806347e6338014611bef5780634df8ccb114611ba857806350b4471214611a7557806351a2c4e3146119125780635928050814610ffe57806359caecb514610f425780635c975abb14610f1d578063619c83ed14610c6b5780636352211e14610c3b57806370a0823114610bdb5780637274e30d14610bbb5780637dc379fa14610af75780638456cb5914610a9657806391d1485414610a3c5780639377d711146109a557806395d89b41146108ee57806398bdf6f5146108ce5780639d54f419146108a5578063a217fddf14610885578063a22cb465146107c5578063b80450ba146107ab578063b88d4fde14610739578063bd5667f414610710578063c16fe9071461065f578063c87b56dd14610604578063d547741f146105b7578063e3d33fc914610597578063e6ffcaa114610529578063e985e9c5146104ca578063ee44404d146104335763fe1e81b11461024357600080fd5b3461042c57602036600319011261042c57600435806101a05152600960205260ff600660406101a05120015460e01c1615610417576101a080518290526009602052516040902060060154336001600160a01b038216036104035763ffffffff6102b09160c01c16613b86565b6101a051600e54919260015b838111156102d657604051806102d28782613625565b0390f35b806101a05152600a6020528160406101a0512054146102fe575b6102f990613b03565b6102bc565b916103fb6102f991846101a05152600a60205260406101a0512060066103da6040519261032a84613758565b8054845263ffffffff600182015464ffffffffff8116602087015260018060a01b038160281c16604087015260c81c16606085015260405161037a8161037381600286016136d5565b03826137c2565b60808501526040516103938161037381600386016136d5565b60a08501526040516103ac8161037381600486016136d5565b60c08501526040516103c58161037381600586016136d5565b60e085015261037360405180948193016136d5565b6101008201526103ea8289613bd6565b526103f58188613bd6565b50613b03565b9290506102f0565b6282b42960e81b6101a0515260046101a051fd5b6337f9b70b60e11b6101a0515260046101a051fd5b6101a05180fd5b3461042c57602036600319011261042c576004356101a05152600a60205260406101a0512060018060a01b03600182015460281c16331415806104a2575b61040357600261048e6102d29261037360405180948193016136d5565b604051918291602083526020830190613537565b5080546101a05152600960205260018060a01b03600660406101a05120015416331415610471565b3461042c57604036600319011261042c576104e3613506565b6104eb613521565b9060018060a01b03166101a05152600560205260406101a051209060018060a01b0316600052602052602060ff604060002054166040519015158152f35b3461042c57602036600319011261042c57600435610545613da7565b50806101a05152600960205260ff600660406101a05120015460e01c1615610417576101a0515260096020526102d261058360406101a05120613ef1565b604051918291602083526020830190613880565b3461042c576101a05136600319011261042c576020600f54604051908152f35b3461042c57604036600319011261042c576105fc6004356105d6613521565b906105f76105f282600052600660205260016040600020015490565b614790565b61487b565b506101a05180f35b3461042c57602036600319011261042c57610620600435614908565b5060405161062f6020826137c2565b6101a05190526040516102d2906106476020826137c2565b60008152604051918291602083526020830190613537565b3461042c57602036600319011261042c57610678614282565b506004356101a05152600b60205261010060406101a0512064ffffffffff6006604051926106a58461378a565b80548452600181015460208501526002810154604085015260018060a01b03600382015416606085015260018060a01b036004820154166080850152600581015460a0850152015460ff8116151560c084015260081c1660e082015261070e6040518092613a4d565bf35b3461042c576102d261072d6107243661384a565b929190916145cc565b604051918291826139ed565b3461042c57608036600319011261042c57610752613506565b61075a613521565b90604435606435926001600160401b03841161042c573660238501121561042c576107926107a4943690602481600401359101613acc565b9261079e838383613c00565b33614b79565b6101a05180f35b3461042c576102d261072d6107bf36613685565b9061452b565b3461042c57604036600319011261042c576107de613506565b602435908115159081830361042c576001600160a01b031691821561086c5761083990336101a05152600560205260406101a051206101a05150846101a0515260205260406101a051209060ff801983541691151516179055565b6040519081527f17307eab39ab6107e8899845ad3d59bd9653f200f220920489ca2b5937696c3160203392a36101a05180f35b82630b61174360e31b6101a0515260045260246101a051fd5b3461042c576101a05136600319011261042c5760206040516101a0518152f35b3461042c57602036600319011261042c576105fc6108c1613506565b6108c961473d565b614a25565b3461042c576101a05136600319011261042c576020600e54604051908152f35b3461042c576101a05136600319011261042c576040516101a0516001546109148161369b565b8084529060018116908115610981575060011461093c575b6102d28361048e818503826137c2565b6101a08051600190525160208120939250905b8082106109675750909150810160200161048e61092c565b91926001816020925483858801015201910190929161094f565b60ff191660208086019190915291151560051b8401909101915061048e905061092c565b3461042c57602036600319011261042c576004356101a05152600b60205261010060406101a0512064ffffffffff815491600181015490600281015460018060a01b0360038301541660018060a01b03600484015416916006600585015494015494604051978852602088015260408701526060860152608085015260a084015260ff8116151560c084015260081c1660e0820152f35b3461042c57604036600319011261042c57610a55613521565b6004356101a05152600660205260406101a05120906101a0515060018060a01b03166101a05152602052602060ff60406101a0512054166040519015158152f35b3461042c576101a05136600319011261042c57610ab161473d565b610ab961493f565b600160ff1960085416176008557f62e78cea01bee320cd4e420270b5ea74000d11b0c9f74754ebdbfc544b05a2586020604051338152a16101a05180f35b3461042c57602036600319011261042c57600435610b13613b3f565b50806101a05152600a60205260018060a01b03600160406101a05120015460281c1633141580610b82575b610403576101a05152600a6020526102d260406101a051206006610b686040519261032a84613758565b610100820152604051918291602083526020830190613578565b50806101a05152600a60205260406101a05120546101a05152600960205260018060a01b03600660406101a05120015416331415610b3e565b3461042c576101a05136600319011261042c576020600d54604051908152f35b3461042c57602036600319011261042c576001600160a01b03610bfc613506565b168015610c1f576101a051526003602052602060406101a0512054604051908152f35b6322718ad960e21b6101a051526101a05160045260246101a051fd5b3461042c57602036600319011261042c576020610c59600435614908565b6040516001600160a01b039091168152f35b602036600319011261042c57600435610c8261493f565b610c8a614b57565b80158015610f12575b610efd57806101a05152600b60205260ff600660406101a05120015416610ee857806101a05152600b60205260406101a051209060028201546101a05152600960205260406101a05120600281015464ffffffffff8160981c164211610ed35760058401543403610ebe57610d1060ff60649260681c1634613ec4565b04610d1b8134613ee4565b6101a0516006909301549092918291829182916001600160a01b03165af1610d416144e2565b5015610ea9576101a05160038401805490928291829182916001600160a01b03165af1610d6c6144e2565b5015610ea957600183810180546101a0805191909152600a6020525160409020909101805465010000000000600160c81b0319163360281b65010000000000600160c81b03161790559054815493906001600160a01b03163315610e8d576001600160a01b03610ddc863361495c565b169081610dfc5785637e27328960e01b6101a0515260045260246101a051fd5b8086918303610e6f575050506006906004810160018060a01b0333166001600160601b0360a01b82541617905501600160ff1982541617905554604051913483527fb8341b5f21761d74fd01fb60b5ab4649f1aca6944d5c4d067e21fccd1a921cbc60203394a460016007556101a05180f35b6364283d7b60e01b6101a0515260045260245260445260646101a051fd5b633250574960e11b6101a051526101a05160045260246101a051fd5b6312171d8360e31b6101a0515260046101a051fd5b63162908e360e11b6101a0515260046101a051fd5b638320b48360e01b6101a0515260046101a051fd5b6305de099160e31b6101a0515260046101a051fd5b632b44303360e11b6101a0515260046101a051fd5b50600f548111610c93565b3461042c576101a05136600319011261042c57602060ff600854166040519015158152f35b3461042c57602036600319011261042c57600435610f5e61493f565b80158015610ff3575b610efd57806101a05152600b60205260ff600660406101a05120015416610ee8576101a08051829052600b602052516040902060038101546001600160a01b0316330361040357806006600192018260ff198254161790550154907f59c3e31ec8892c34508197e97c25f0e4da6d87733b22b22765425d203f44667a6101a0516101a051a36101a05180f35b50600f548111610f67565b608036600319011261042c576004356024356001600160401b03811161042c5761102c90369060040161381d565b90916044356001600160401b03811161042c5761104d90369060040161381d565b906064356001600160401b03811161042c5761106d90369060040161381d565b61107893919361493f565b611080614b57565b846101a05152600960205260ff600660406101a05120015460e01c161561041757846101a05152600960205260406101a051206006810190815463ffffffff808260c01c169160a01c1611156118fd576002015464ffffffffff8160701c1642106118e85764ffffffffff8160981c164211610ed3576001600160601b0381163410610ebe5761111860ff60649260601c1634613ec4565b046111238134613ee4565b6101a05190918190819081907f00000000000000000000000000000000000000000000000000000000000000005af161115a6144e2565b5015610ea9576101a051825490918291829182916001600160a01b03165af16111816144e2565b5015610ea957600e80546001908101909155815463ffffffff60c01b19811660c091821c63ffffffff16909201901b63ffffffff60c01b16178155600e5460405160209991906111d18b826137c2565b6101a05181523315610e8d576001600160a01b036111ef833361495c565b166118cc578a90333b6117d3575b505050866101a05152600c89526101a05160409020915460c01c63ffffffff169161122783614512565b6101a0515063ffffffff166101a0515289526101a05160409020916040516112508180956136d5565b0361125b90846137c2565b61126490614512565b946040519661127288613758565b8888528a8801924264ffffffffff168452604089019a338c5260608a019863ffffffff16895260808a0195865236906112aa92613acc565b9460a0890195865236906112bd92613acc565b9460c0880195865236906112d092613acc565b9460e08701958652604051986112e68b8b6137c2565b6101a080518b5261010089019a8b52600e54815152600a8c525160409020975188559151600188018054935165010000000000600160c81b0360289190911b1664ffffffffff9092166001600160c81b03199094169390931717825551815463ffffffff60c81b191660c89190911b63ffffffff60c81b1617905551805160028601916001600160401b0382116115e05761138b82611385855461369b565b85614230565b89906001601f841114611766579180916113be936101a0519261175b575b50508160011b916000199060031b1c19161790565b90555b51805160038501916001600160401b0382116115e0576113e582611385855461369b565b88906001601f8411146116ee57918091611417936101a051926116e35750508160011b916000199060031b1c19161790565b90555b51805160048401916001600160401b0382116115e05761143e82611385855461369b565b87906001601f84111461167657918091611470936101a051926115fa5750508160011b916000199060031b1c19161790565b90555b51805160058301916001600160401b0382116115e05761149782611385855461369b565b86906001601f8411146116055791806114cd9260069695946101a051926115fa5750508160011b916000199060031b1c19161790565b90555b0191519182516001600160401b0381116115e0576114f8816114f2845461369b565b84614230565b84936001601f8311146115765761152b92939482916101a0519261156b5750508160011b916000199060031b1c19161790565b90555b600e54604051913390827fdfc495a9ab5027ebf451b0bde607c053b25fdebc892e8bd60c755d720bd51d1f6101a0516101a051a460016007558152f35b0151905086806113a9565b601f19821694836101a05152866101a05120916101a0515b888882106115ca575050836001959697106115b1575b505050811b01905561152e565b015160001960f88460031b161c191690558580806115a4565b600184958293958501518155019401920161158e565b634e487b7160e01b6101a05152604160045260246101a051fd5b0151905089806113a9565b90601f19831691846101a05152886101a05120926101a0515b8a82821061166057505091600193918560069897969410611647575b505050811b0190556114d0565b015160001960f88460031b161c1916905588808061163a565b600185968293968601518155019501930161161e565b90601f19831691846101a05152896101a05120926101a0515b8b8282106116cd5750509084600195949392106116b4575b505050811b019055611473565b015160001960f88460031b161c191690558880806116a7565b600185968293968601518155019501930161168f565b015190508a806113a9565b90601f19831691846101a051528a6101a05120926101a0515b8c82821061174557505090846001959493921061172c575b505050811b01905561141a565b015160001960f88460031b161c1916905589808061171f565b6001859682939686015181550195019301611707565b015190508b806113a9565b90601f19831691846101a051528b6101a05120926101a0515b8d8282106117bd5750509084600195949392106117a4575b505050811b0190556113c1565b015160001960f88460031b161c191690558a8080611797565b600185968293968601518155019501930161177f565b61180e926040519384928392630a85bd0160e11b84523360048501526101a05160248501526044840152608060648401526084830190613537565b03816101a051335af16101a051918161188c575b5061185457896118306144e2565b8051918261185157633250574960e11b6101a051523360045260246101a051fd5b01fd5b6001600160e01b03191663757a42ff60e11b01611873578989816111fd565b633250574960e11b6101a051523360045260246101a051fd5b9091508a81813d83116118c5575b6118a481836137c2565b8101031261042c57516001600160e01b03198116810361042c57908b611822565b503d61189a565b6339e3563760e11b6101a051526101a05160045260246101a051fd5b6333f44d6160e01b6101a0515260046101a051fd5b630678856f60e21b6101a0515260046101a051fd5b3461042c57604036600319011261042c576024356001600160401b03811161042c5761194290369060040161381d565b61194a61493f565b6101a080516004359052600a6020525160409020600181015460281c6001600160a01b03163381036104035715610efd5780546101a05152600960205264ffffffffff600260406101a05120015460981c164211610ed357600601906001600160401b0381116115e0576119c2816114f2845461369b565b6101a051601f8211600114611a0a5781906119f693946101a051926119ff5750508160011b916000199060031b1c19161790565b90556101a05180f35b0135905084806113a9565b601f19821693836101a0515260206101a05120916101a0515b868110611a5d5750836001959610611a43575b505050811b0190556107a4565b0135600019600384901b60f8161c19169055838080611a36565b90926020600181928686013581550194019101611a23565b3461042c57602036600319011261042c576004356101a05152600a60205260406101a0512080546102d26006611b99600185015494611b8b604051611ac18161037381600287016136d5565b611b7d604051611ad88161037381600389016136d5565b611b6f60405193611af785611af08160048b016136d5565b03866137c2565b611b2660405197611b1689611b0f81600585016136d5565b038a6137c2565b611b0f604051809c8193016136d5565b63ffffffff6040519c8d9c8d528c602064ffffffffff83169101528c604060018060a01b038360281c1691015260c81c1660608c015261012060808c01526101208b0190613537565b9089820360a08b0152613537565b9087820360c0890152613537565b9085820360e0870152613537565b90838203610100850152613537565b3461042c576101a05136600319011261042c576040517f00000000000000000000000000000000000000000000000000000000000000006001600160a01b03168152602090f35b3461042c576101a05136600319011261042c5760206040517f73e573f9566d61418a34d5de3ff49360f9c51fec37f7486551670290f6285dab8152f35b3461042c576107a4611c3d366137e3565b60405192909190611c4f6020856137c2565b6101a051845261079e838383613c00565b3461042c576101a05136600319011261042c57611c7b61473d565b60085460ff811615611cbf5760ff19166008557f5db9ee0a495bf2e6ff9c91a7834c1ba4fdd244a5e8aa4e537bd38aeae4b073aa6020604051338152a16101a05180f35b638dfc202b60e01b6101a0515260046101a051fd5b3461042c576101e036600319011261042c576004356001600160401b03811161042c57611d0590369060040161381d565b61018052610260526024356001600160401b03811161042c57611d2c90369060040161381d565b6101e052604435610240526001600160601b036102405116610240510361042c5760643560ff8116810361042c576084356102a081905260ff8116900361042c5760a43561028081905264ffffffffff8116900361042c5760c43561020081905264ffffffffff8116900361042c5760e4356001600160401b03811161042c57611dba90369060040161381d565b9092610104356001600160401b03811161042c57611ddc90369060040161381d565b91610124356001600160401b03811161042c57611dfd90369060040161381d565b6101443596919490939163ffffffff8816880361042c57610164356001600160401b03811161042c57611e3490369060040161381d565b60a05260e052610184356001600160401b03811161042c57611e5a90369060040161381d565b61010052610120526101a4356001600160401b03811161042c57611e8290369060040161381d565b61022052610160526101c4356001600160401b03811161042c57611eaa90369060040161381d565b610140526101c052611eba61493f565b63ffffffff881615610ebe57606460ff8216116129c257606460ff6102a05116116129c25764ffffffffff610200511664ffffffffff610280511610156129ad5763ffffffff98611fca9760ff611fad93611f52611fbb986001600d540160c05260c051600d55604051608052611f326080516137a6565b611f43366101805161026051613acc565b608051526101e0513691613acc565b602060805101526001600160601b03610240511660406080510152166060608051015260ff6102a0511660808051015264ffffffffff610280511660a0608051015264ffffffffff610200511660c060805101523691613acc565b60e060805101523691613acc565b61010060805101523691613acc565b61012060805101523361014060805101521661016060805101526101a051610180608051015260016101a060805101526120093660a05160e051613acc565b6101c06080510152612022366101005161012051613acc565b6101e0608051015261203b366102205161016051613acc565b610200608051015261205436610140516101c051613acc565b610220608051015260c051610240608051015260c0516101a05152600960205260406101a05120608051518051906001600160401b0382116115e05761209e82611385855461369b565b6020906001601f84111461293c579180916120d1936101a0519261276d5750508160011b916000199060031b1c19161790565b81555b602060805101518051906001600160401b0382116115e057612106826120fd600186015461369b565b60018601614230565b6020906001601f8411146128c557918091612139936101a0519261276d5750508160011b916000199060031b1c19161790565b60018201555b600281016001600160601b03604060805101511681549060ff60601b6060608051015160601b169060ff60681b60808051015160681b169064ffffffffff60701b60a0608051015160701b169264ffffffffff60981b60c0608051015160981b169464ffffffffff60981b199264ffffffffff60701b19916dffffffffffffffffffffffffffff191617161716171717905560e060805101519081516001600160401b0381116115e057612203816121fa600385015461369b565b60038501614230565b6020926001601f83111461285657612236929382916101a0519261276d5750508160011b916000199060031b1c19161790565b60038201555b61010060805101519081516001600160401b0381116115e05761226f81612266600485015461369b565b60048501614230565b6020926001601f8311146127e7576122a2929382916101a0519261276d5750508160011b916000199060031b1c19161790565b60048201555b61012060805101519081516001600160401b0381116115e0576122db816122d2600585015461369b565b60058501614230565b6020926001601f8311146127785761230e929382916101a0519261276d5750508160011b916000199060031b1c19161790565b60058201555b6080516101408101516006830180546101608401516101808501516101a086015160c09190911b63ffffffff60c01b1660a09290921b63ffffffff60a01b166001600160a01b039095166001600160e81b031990931692909217939093179290921791151560e01b60ff60e01b169190911790556101c00151805190919060078201906001600160401b0381116115e0576123b3816114f2845461369b565b60206001601f8311146127025781906123e69394956101a051926125b65750508160011b916000199060031b1c19161790565b90555b60088101906101e060805101519182516001600160401b0381116115e057612415816114f2845461369b565b60206001601f8311146126975781906124489394956101a051926125b65750508160011b916000199060031b1c19161790565b90555b600981019061020060805101519182516001600160401b0381116115e057612477816114f2845461369b565b60206001601f83111461262c5781906124aa9394956101a051926125b65750508160011b916000199060031b1c19161790565b90555b600a81019061022060805101519182516001600160401b0381116115e0576124d9816114f2845461369b565b60206001601f8311146125c157819061250c9394956101a051926125b65750508160011b916000199060031b1c19161790565b90555b600b61024060805101519101556020600d5460405160a08152817f4c37167085cc1e9c8f1268af0ef8e5b26afb72ea7aebd93341c8422efec2daca61255e60a0840161018051610260516144c1565b926001600160601b0361024051168682015264ffffffffff6102805116604082015264ffffffffff610200511660608201528084036080820152806125ab339561022051610160516144c1565b0390a3604051908152f35b0151905085806113a9565b601f19821690836101a05152806101a05120916101a0515b818110612614575095836001959697106125fb575b505050811b01905561250f565b015160001960f88460031b161c191690558480806125ee565b9192602060018192868b0151815501940192016125d9565b601f19821690836101a05152806101a05120916101a0515b81811061267f57509583600195969710612666575b505050811b0190556124ad565b015160001960f88460031b161c19169055848080612659565b9192602060018192868b015181550194019201612644565b601f19821690836101a05152806101a05120916101a0515b8181106126ea575095836001959697106126d1575b505050811b01905561244b565b015160001960f88460031b161c191690558480806126c4565b9192602060018192868b0151815501940192016126af565b601f19821690836101a05152806101a05120916101a0515b8181106127555750958360019596971061273c575b505050811b0190556123e9565b015160001960f88460031b161c1916905584808061272f565b9192602060018192868b01518155019401920161271a565b0151905084806113a9565b601f19821693600584016101a05152806101a05120916101a0515b8681106127cf57508360019596106127b6575b505050811b016005820155612314565b015160001960f88460031b161c191690558380806127a6565b91926020600181928685015181550194019201612793565b601f19821693600484016101a05152806101a05120916101a0515b86811061283e5750836001959610612825575b505050811b0160048201556122a8565b015160001960f88460031b161c19169055838080612815565b91926020600181928685015181550194019201612802565b601f19821693600384016101a05152806101a05120916101a0515b8681106128ad5750836001959610612894575b505050811b01600382015561223c565b015160001960f88460031b161c19169055838080612884565b91926020600181928685015181550194019201612871565b9190600184016101a05152806101a05120906101a051935b601f1984168510612921576001945083601f19811610612908575b505050811b01600182015561213f565b015160001960f88460031b161c191690558380806128f8565b818101518355602094850194600190930192909101906128dd565b9190836101a05152806101a05120906101a051935b601f1984168510612992576001945083601f19811610612979575b505050811b0181556120d4565b015160001960f88460031b161c1916905583808061296c565b81810151835560209485019460019093019290910190612951565b63364dd21b60e21b6101a0515260046101a051fd5b632d8768f960e01b6101a0515260046101a051fd5b3461042c57602036600319011261042c57600435806101a05152600960205260ff600660406101a05120015460e01c161561041757612a15906142bf565b6040518091602082016020835281518091526020604084019201906101a0515b818110612a43575050500390f35b91935091602061010082612a5a6001948851613a4d565b019401910191849392612a35565b3461042c57606036600319011261042c5760043560243563ffffffff81169081900361042c576044356001600160401b03811161042c57612aad90369060040161381d565b836101a05152600960205260ff600660406101a05120015460e01c1615610417576101a080518590526009602052516040902060060154336001600160a01b038216036104035760a01c63ffffffff16831015610ebe57836101a05152600c60205260406101a051206101a05150836101a0515260205260406101a05120916001600160401b0382116115e057612b4882611385855461369b565b6101a05190601f8311600114612bbe57827f848fa310948ec41d9eb4afbada0028afdc8acd8179e7ebfe6ca9126e9af52853959360209593612ba2936101a05192612bb35750508160011b916000199060031b1c19161790565b90555b604051908152a26101a05180f35b0135905088806113a9565b601f19831691846101a0515260206101a05120926101a0515b818110612c3957509260019285927f848fa310948ec41d9eb4afbada0028afdc8acd8179e7ebfe6ca9126e9af5285398966020989610612c1f575b505050811b019055612ba5565b0135600019600384901b60f8161c19169055878080612c12565b91936020600181928787013581550195019201612bd7565b3461042c57604036600319011261042c57612c6a613521565b336001600160a01b03821603612c86576105fc9060043561487b565b63334bd91960e11b6101a0515260046101a051fd5b3461042c57604036600319011261042c576105fc600435612cba613521565b90612cd66105f282600052600660205260016040600020015490565b614acf565b3461042c576102d261072d612cef3661384a565b92919091614075565b3461042c57602036600319011261042c576020612d25600435600052600660205260016040600020015490565b604051908152f35b3461042c576107a4612d3e366137e3565b91613c00565b3461042c57602036600319011261042c576004356101a0515260096020526101a0516040902060405180612d7881846136d5565b03612d8390826137c2565b6040519182612d9581600184016136d5565b03612da090846137c2565b60028101549060405180806003840190612db9916136d5565b03612dc490826137c2565b60405180612dd581600486016136d5565b03612de090826137c2565b60405180612df181600587016136d5565b03612dfc90826137c2565b60068401546040519182612e1381600789016136d5565b03612e1e90846137c2565b6040519384612e308160088a016136d5565b03612e3b90866137c2565b6040519586612e4d8160098b016136d5565b03612e5890886137c2565b6040519788612e6a81600a84016136d5565b03612e75908a6137c2565b600b0154986040519b8c9b6102608d526102608d01612e9391613537565b8c810360208e0152612ea491613537565b906001600160601b03811660408d01528060601c60ff1660608d01528060681c60ff1660808d01528060701c64ffffffffff1660a08d015260981c64ffffffffff1660c08c01528a810360e08c0152612efc91613537565b8981036101008b0152612f0e91613537565b8881036101208a0152612f2091613537565b90600160a01b6001900381166101408901528060a01c63ffffffff166101608901528060c01c63ffffffff1661018089015260e01c60ff1615156101a08801528681036101c0880152612f7291613537565b8581036101e0870152612f8491613537565b848103610200860152612f9691613537565b838103610220850152612fa891613537565b906102408301520390f35b3461042c57612fc136613685565b90612fca61493f565b6101a08051829052600a60205251604090206001015460281c6001600160a01b0316330361040357806101a05152600a60205260406101a05120546101a05152600960205264ffffffffff600260406101a05120015460981c164211610ed3576020916001600f540180600f55826101a05152600a845260406101a051205490613116600660405161305b8161378a565b838152878101878152604080830196875233606084019081526101a080516080860190815260a086018b8152825160c0880190815264ffffffffff421660e0890190815284519b909b52600b8f52925194909420955186559351600186015597516002850155516003840180546001600160a01b039283166001600160a01b03199182161790915592516004850180549190921693169290921790915551600582015593519301805460ff191693151560ff16939093178355565b5165ffffffffff0082549160081b169065ffffffffff001916179055600f5491604051918252827f02c9c8f74256de50f798bbeec6dd87beabf684503ffce6a496063959e4bcfa53853394a4604051908152f35b3461042c57604036600319011261042c57613183613506565b60243561318f81614908565b3315158061325c575b80613229575b613210576101a05182916001600160a01b03858116929116907f8c5be1e5ebec7d5bd14f71427d1e84f3dd0314c0f7b2291e5b200ac8c7c3b9259080a46101a05152600460205260406101a051209060018060a01b03166001600160601b0360a01b8254161790556101a0516101a051f35b63a9fbf51f60e01b6101a051523360045260246101a051fd5b506101a080516001600160a01b038316905260056020908152815160408082203390925291529051205460ff161561319e565b506001600160a01b038116331415613198565b3461042c57602036600319011261042c5760043561328c81614908565b506101a051526004602052602060018060a01b0360406101a051205416604051908152f35b3461042c576101a05136600319011261042c576040516101a05180546132d68161369b565b808452906001811690811561098157506001146132fd576102d28361048e818503826137c2565b6101a0805180525160208120939250905b8082106133265750909150810160200161048e61092c565b91926001816020925483858801015201910190929161330e565b3461042c57602036600319011261042c576105fc61335c613506565b61336461473d565b6147cd565b3461042c57602036600319011261042c57613382613506565b6101a051600e546001600160a01b03909216919060015b8281111561343557506133ab90613b86565b916101a0519060015b838111156133ca57604051806102d28782613625565b6101a08051829052600a60205251604090206001015460281c6001600160a01b03168214613401575b6133fc90613b03565b6133b4565b9161342d6133fc91846101a05152600a60205260406101a0512060066103da6040519261032a84613758565b9290506133f3565b6101a08051829052600a60205251604090206001015460281c6001600160a01b0316841461346c575b61346790613b03565b613399565b9061347961346791613b03565b91905061345e565b3461042c57602036600319011261042c576004359063ffffffff60e01b821680920361042c57602091637965db0b60e01b81149081156134c3575b5015158152f35b6380ac58cd60e01b8114915081156134f5575b81156134e4575b50836134bc565b6301ffc9a760e01b149050836134dd565b635b5e139f60e01b811491506134d6565b600435906001600160a01b038216820361351c57565b600080fd5b602435906001600160a01b038216820361351c57565b919082519283825260005b848110613563575050826000602080949584010152601f8019910116010190565b80602080928401015182828601015201613542565b613622918151815264ffffffffff602083015116602082015260018060a01b03604083015116604082015263ffffffff60608301511660608201526101006136106135fe6135ec6135da60808701516101206080880152610120870190613537565b60a087015186820360a0880152613537565b60c086015185820360c0870152613537565b60e085015184820360e0860152613537565b92015190610100818403910152613537565b90565b602081016020825282518091526040820191602060408360051b8301019401926000915b83831061365857505050505090565b9091929394602080613676600193603f198682030187528951613578565b97019301930191939290613649565b604090600319011261351c576004359060243590565b90600182811c921680156136cb575b60208310146136b557565b634e487b7160e01b600052602260045260246000fd5b91607f16916136aa565b600092918154916136e58361369b565b808352926001811690811561373b575060011461370157505050565b60009081526020812093945091925b838310613721575060209250010190565b600181602092949394548385870101520191019190613710565b915050602093945060ff929192191683830152151560051b010190565b61012081019081106001600160401b0382111761377457604052565b634e487b7160e01b600052604160045260246000fd5b61010081019081106001600160401b0382111761377457604052565b61026081019081106001600160401b0382111761377457604052565b90601f801991011681019081106001600160401b0382111761377457604052565b606090600319011261351c576004356001600160a01b038116810361351c57906024356001600160a01b038116810361351c579060443590565b9181601f8401121561351c578235916001600160401b03831161351c576020838186019501011161351c57565b606060031982011261351c57600435906001600160401b03821161351c576138749160040161381d565b90916024359060443590565b90610240806139e46139d06139bc6139a861394e61393a6139266138c56138b28c516102608d526102608d0190613537565b60208d01518c6020818403910152613537565b6001600160601b0360408d01511660408c015260ff60608d01511660608c015260ff60808d01511660808c015264ffffffffff60a08d01511660a08c015264ffffffffff60c08d01511660c08c015260e08c01518b820360e08d0152613537565b6101008b01518a82036101008c0152613537565b6101208a01518982036101208b0152613537565b60018060a01b036101408a01511661014089015263ffffffff6101608a01511661016089015263ffffffff6101808a0151166101808901526101a089015115156101a08901526101c08901518882036101c08a0152613537565b6101e08801518782036101e0890152613537565b610200870151868203610200880152613537565b610220860151858203610220870152613537565b93015191015290565b602081016020825282518091526040820191602060408360051b8301019401926000915b838310613a2057505050505090565b9091929394602080613a3e600193603f198682030187528951613880565b97019301930191939290613a11565b64ffffffffff60e0809280518552602081015160208601526040810151604086015260018060a01b03606082015116606086015260018060a01b03608082015116608086015260a081015160a086015260c0810151151560c0860152015116910152565b6001600160401b03811161377457601f01601f191660200190565b929192613ad882613ab1565b91613ae660405193846137c2565b82948184528183011161351c578281602093846000960137010152565b6000198114613b125760010190565b634e487b7160e01b600052601160045260246000fd5b6001600160401b0381116137745760051b60200190565b60405190613b4c82613758565b6060610100836000815260006020820152600060408201526000838201528260808201528260a08201528260c08201528260e08201520152565b90613b9082613b28565b613b9d60405191826137c2565b8281528092613bae601f1991613b28565b019060005b828110613bbf57505050565b602090613bca613b3f565b82828501015201613bb3565b8051821015613bea5760209160051b010190565b634e487b7160e01b600052603260045260246000fd5b6001600160a01b0390911691908215613d91576000828152600260205260408120546001600160a01b0316938391859033151580613cf9575b507fddf252ad1be2c89b69c2b068fc378daa952ba7f163c4a11628f55a4df523b3ef9082613cc4575b83815260036020526040812060018154019055848152600260205260408120846001600160601b0360a01b82541617905580a46001600160a01b0316808303613caa57505050565b6364283d7b60e01b60005260045260245260445260646000fd5b600085815260046020526040902080546001600160a01b03191690558281526003602052604081208054600019019055613c62565b915091925080613d42575b15613d13579084849238613c39565b839085613d2c57602491637e27328960e01b8252600452fd5b60449163177e802f60e01b825233600452602452fd5b503385148015613d70575b80613d045750838152600460205260408120546001600160a01b03163314613d04565b5084815260056020908152604080832033845290915281205460ff16613d4d565b633250574960e11b600052600060045260246000fd5b60405190613db4826137a6565b60006102408360608152606060208201528260408201528260608201528260808201528260a08201528260c0820152606060e082015260606101008201526060610120820152826101408201528261016082015282610180820152826101a082015260606101c082015260606101e0820152606061020082015260606102208201520152565b60405190613e496020836137c2565b600080835282815b828110613e5d57505050565b602090613e68613da7565b82828501015201613e51565b90613e7e82613b28565b613e8b60405191826137c2565b8281528092613e9c601f1991613b28565b019060005b828110613ead57505050565b602090613eb8613da7565b82828501015201613ea1565b81810292918115918404141715613b1257565b91908201809211613b1257565b91908203918211613b1257565b90604051613efe816137a6565b610240600b8294604051613f168161037381856136d5565b8452604051613f2c8161037381600186016136d5565b602085015264ffffffffff60028201546001600160601b038116604087015260ff8160601c16606087015260ff8160681c166080870152818160701c1660a087015260981c1660c0850152604051613f8b8161037381600386016136d5565b60e0850152604051613fa48161037381600486016136d5565b610100850152604051613fbe8161037381600586016136d5565b61012085015260068101546001600160a01b03811661014086015260a081901c63ffffffff90811661016087015260c082901c1661018086015260e01c60ff1615156101a085015260405161401a8161037381600786016136d5565b6101c08501526040516140348161037381600886016136d5565b6101e085015260405161404e8161037381600986016136d5565b6102008501526040516140688161037381600a86016136d5565b6102208501520154910152565b939291926000600194600d54955b868111156141cb575081156141bc5761409f856140a692613ec4565b9485613ed7565b908082116141b4575b50808410156141a6576140c5846140ca92613ee4565b613e74565b9060009260009160015b878111158061419c575b15614190578060005260096020526103736141066005604060002001604051928380926136d5565b6020815191012061411836858c613acc565b6020815191012014614133575b61412e90613b03565b6140d4565b9486811015614151575b61414961412e91613b03565b959050614125565b9261414961418761412e928860005260096020526141726040600020613ef1565b61417c828a613bd6565b526103f58189613bd6565b9491505061413d565b50965050509250505090565b50845184106140de565b509350505050613622613e3a565b9050386140af565b50509350505050613622613e3a565b8060005260096020526103736141ee6005604060002001604051928380926136d5565b6020815191012061420036878b613acc565b602081519101201461421b575b61421690613b03565b614083565b9161422861421691613b03565b92905061420d565b601f821161423d57505050565b6000526020600020906020601f840160051c83019310614278575b601f0160051c01905b81811061426c575050565b60008155600101614261565b9091508190614258565b6040519061428f8261378a565b600060e0838281528260208201528260408201528260608201528260808201528260a08201528260c08201520152565b600f5490600060015b8381111561446357508015614426576142e081613b28565b916142ee60405193846137c2565b818352601f196142fd83613b28565b0160005b81811061440f57505060009160015b8581111580614406575b156143fd5780600052600b6020528260026040600020015414806143e1575b61434c575b61434790613b03565b614310565b926143d96143479185600052600b602052604060002064ffffffffff6006604051926143778461378a565b80548452600181015460208501526002810154604085015260038101546001600160a01b0390811660608601526004820154166080850152600581015460a0850152015460ff8116151560c084015260081c1660e08201526103ea8289613bd6565b93905061433e565b5080600052600b60205260ff6006604060002001541615614339565b50505050905090565b5081841061431a565b60209061441a614282565b82828801015201614301565b50506040519050600061443a6020836137c2565b81526000805b81811061444c57505090565b602090614457614282565b82828601015201614440565b80600052600b6020528260026040600020015414806144a5575b614490575b61448b90613b03565b6142c8565b9061449d61448b91613b03565b919050614482565b5080600052600b60205260ff600660406000200154161561447d565b908060209392818452848401376000828201840152601f01601f1916010190565b3d1561450d573d906144f382613ab1565b9161450160405193846137c2565b82523d6000602084013e565b606090565b63ffffffff6000199116019063ffffffff8211613b1257565b6145388261453f92613ec4565b9182613ed7565b600d548082116145c4575b50808210156145ba576145606140c58383613ee4565b91805b8281106145705750505090565b6001810190818111613b125760019160005260096020526145b360406000206145a261459c8685613ee4565b91613ef1565b6145ac8289613bd6565b5286613bd6565b5001614563565b5050613622613e3a565b90503861454a565b939291926000600194600d54955b868111156146d8575081156141bc5761409f856145f692613ec4565b908082116146d0575b50808410156141a6576140c58461461592613ee4565b9060009260009160015b87811115806146c6575b15614190578060005260096020526103736146516004604060002001604051928380926136d5565b6020815191012061466336858c613acc565b602081519101201461467e575b61467990613b03565b61461f565b948681101561469c575b61469461467991613b03565b959050614670565b926146946146bd614679928860005260096020526141726040600020613ef1565b94915050614688565b5084518410614629565b9050386145ff565b8060005260096020526103736146fb6004604060002001604051928380926136d5565b6020815191012061470d36878b613acc565b6020815191012014614728575b61472390613b03565b6145da565b9161473561472391613b03565b92905061471a565b3360009081527f54cdd369e4e8a8515e52ca72ec816c2101831ad1f18bf44102ed171459c9b4f8602052604090205460ff161561477657565b63e2517d3f60e01b60005233600452600060245260446000fd5b600081815260066020908152604080832033845290915290205460ff16156147b55750565b63e2517d3f60e01b6000523360045260245260446000fd5b6001600160a01b0381166000908152600080516020614c96833981519152602052604090205460ff1615614875576001600160a01b03166000818152600080516020614c9683398151915260205260408120805460ff191690553391907f73e573f9566d61418a34d5de3ff49360f9c51fec37f7486551670290f6285dab907ff6391f5c32d9c69d2a47ea670b442974b53935d1edc7fd64eb21e047a839171b9080a4600190565b50600090565b60008181526006602090815260408083206001600160a01b038616845290915290205460ff16156149015760008181526006602090815260408083206001600160a01b0395909516808452949091528120805460ff19169055339291907ff6391f5c32d9c69d2a47ea670b442974b53935d1edc7fd64eb21e047a839171b9080a4600190565b5050600090565b6000818152600260205260409020546001600160a01b031690811561492b575090565b637e27328960e01b60005260045260246000fd5b60ff6008541661494b57565b63d93c066560e01b60005260046000fd5b6000828152600260205260409020546001600160a01b03169190826149ee575b6001600160a01b0316806149d4575b8160005260026020526040600020816001600160601b0360a01b825416179055827fddf252ad1be2c89b69c2b068fc378daa952ba7f163c4a11628f55a4df523b3ef600080a490565b80600052600360205260406000206001815401905561498b565b600082815260046020526040902080546001600160a01b03191690558260005260036020526040600020600019815401905561497c565b6001600160a01b0381166000908152600080516020614c96833981519152602052604090205460ff16614875576001600160a01b03166000818152600080516020614c9683398151915260205260408120805460ff191660011790553391907f73e573f9566d61418a34d5de3ff49360f9c51fec37f7486551670290f6285dab907f2f8788117e7eff1d82e926ec794901d17c78024a50270940304540a733656f0d9080a4600190565b60008181526006602090815260408083206001600160a01b038616845290915290205460ff166149015760008181526006602090815260408083206001600160a01b0395909516808452949091528120805460ff19166001179055339291907f2f8788117e7eff1d82e926ec794901d17c78024a50270940304540a733656f0d9080a4600190565b600260075414614b68576002600755565b633ee5aeb560e01b60005260046000fd5b823b614b87575b5050505050565b604051630a85bd0160e11b81526001600160a01b039182166004820152918116602483015260448201939093526080606482015291169160209082908190614bd3906084830190613537565b03816000865af18091600091614c4b575b5090614c155750614bf36144e2565b80519081614c105782633250574960e11b60005260045260246000fd5b602001fd5b6001600160e01b03191663757a42ff60e11b01614c3757503880808080614b80565b633250574960e11b60005260045260246000fd5b6020813d602011614c8d575b81614c64602093836137c2565b81010312614c895751906001600160e01b031982168203614c86575038614be4565b80fd5b5080fd5b3d9150614c5756fe72e6a9b491581b344add3f7be10265867e64fdd874e84e97031c08ad09aea58ca26469706673582212207bf554a724fd40c8ee43de4cb3b5fa64d1ffe452a3f30dbc69d18937fb69ba0064736f6c634300081c00332f8788117e7eff1d82e926ec794901d17c78024a50270940304540a733656f0d72e6a9b491581b344add3f7be10265867e64fdd874e84e97031c08ad09aea58c54cdd369e4e8a8515e52ca72ec816c2101831ad1f18bf44102ed171459c9b4f8",
    "linkReferences": {}
  },
  "methodIdentifiers": {
    "DEFAULT_ADMIN_ROLE()": "a217fddf",
    "UPDATER_ROLE()": "47e63380",
    "approve(address,uint256)": "095ea7b3",
    "balanceOf(address)": "70a08231",
    "buyTicket(uint256,string,string,string)": "59280508",
    "campaignCount()": "7274e30d",
    "campaigns(uint256)": "141961bc",
    "cancelTransfer(uint256)": "59caecb5",
    "completeTransfer(uint256)": "619c83ed",
    "createCampaign(string,string,uint96,uint8,uint8,uint40,uint40,string,string,string,uint32,string,string,string,string)": "3d9ce1c5",
    "createTransfer(uint256,uint256)": "09787803",
    "getApproved(uint256)": "081812fc",
    "getCampaignById(uint256)": "e6ffcaa1",
    "getCampaignTickets(uint256)": "fe1e81b1",
    "getCampaignsByCity(string,uint256,uint256)": "bd5667f4",
    "getCampaignsByCountry(string,uint256,uint256)": "2a467a73",
    "getCampaignsByPage(uint256,uint256)": "b80450ba",
    "getPendingTransfersByCampaign(uint256)": "381097b3",
    "getRoleAdmin(bytes32)": "248a9ca3",
    "getTicket(uint256)": "7dc379fa",
    "getTicketSecret(uint256)": "ee44404d",
    "getTransfer(uint256)": "c16fe907",
    "getUserTickets(address)": "0484a22f",
    "grantRole(bytes32,address)": "2f2ff15d",
    "hasRole(bytes32,address)": "91d14854",
    "isApprovedForAll(address,address)": "e985e9c5",
    "name()": "06fdde03",
    "ownerOf(uint256)": "6352211e",
    "pause()": "8456cb59",
    "paused()": "5c975abb",
    "platformOwner()": "4df8ccb1",
    "redeemTicket(uint256,string)": "51a2c4e3",
    "removeUpdater(address)": "04b07a5e",
    "renounceRole(bytes32,address)": "36568abe",
    "revokeRole(bytes32,address)": "d547741f",
    "safeTransferFrom(address,address,uint256)": "42842e0e",
    "safeTransferFrom(address,address,uint256,bytes)": "b88d4fde",
    "setApprovalForAll(address,bool)": "a22cb465",
    "setTicketSecret(uint256,uint32,string)": "37f690ee",
    "setUpdater(address)": "9d54f419",
    "supportsInterface(bytes4)": "01ffc9a7",
    "symbol()": "95d89b41",
    "tickets(uint256)": "50b44712",
    "tokenIdCounter()": "98bdf6f5",
    "tokenURI(uint256)": "c87b56dd",
    "transferCount()": "e3d33fc9",
    "transferFrom(address,address,uint256)": "23b872dd",
    "transfers(uint256)": "9377d711",
    "unpause()": "3f4ba83a"
  },
  "id": 42
}