{
  "abi": [
    {
      "type": "constructor",
      "inputs": [],
      "stateMutability": "nonpayable"
    },
    {
      "type": "function",
      "name": "DEFAULT_ADMIN_ROLE",
      "inputs": [],
      "outputs": [
        {
          "name": "",
          "type": "bytes32",
          "internalType": "bytes32"
        }
      ],
      "stateMutability": "view"
    },
    {
      "type": "function",
      "name": "UPDATER_ROLE",
      "inputs": [],
      "outputs": [
        {
          "name": "",
          "type": "bytes32",
          "internalType": "bytes32"
        }
      ],
      "stateMutability": "view"
    },
    {
      "type": "function",
      "name": "approve",
      "inputs": [
        {
          "name": "to",
          "type": "address",
          "internalType": "address"
        },
        {
          "name": "tokenId",
          "type": "uint256",
          "internalType": "uint256"
        }
      ],
      "outputs": [],
      "stateMutability": "nonpayable"
    },
    {
      "type": "function",
      "name": "balanceOf",
      "inputs": [
        {
          "name": "owner",
          "type": "address",
          "internalType": "address"
        }
      ],
      "outputs": [
        {
          "name": "",
          "type": "uint256",
          "internalType": "uint256"
        }
      ],
      "stateMutability": "view"
    },
    {
      "type": "function",
      "name": "buyTicket",
      "inputs": [
        {
          "name": "campaignId",
          "type": "uint256",
          "internalType": "uint256"
        },
        {
          "name": "imageUrl",
          "type": "string",
          "internalType": "string"
        },
        {
          "name": "nillionStoreId",
          "type": "string",
          "internalType": "string"
        },
        {
          "name": "nillionUserId",
          "type": "string",
          "internalType": "string"
        }
      ],
      "outputs": [
        {
          "name": "",
          "type": "uint256",
          "internalType": "uint256"
        }
      ],
      "stateMutability": "payable"
    },
    {
      "type": "function",
      "name": "campaignCount",
      "inputs": [],
      "outputs": [
        {
          "name": "",
          "type": "uint256",
          "internalType": "uint256"
        }
      ],
      "stateMutability": "view"
    },
    {
      "type": "function",
      "name": "campaigns",
      "inputs": [
        {
          "name": "",
          "type": "uint256",
          "internalType": "uint256"
        }
      ],
      "outputs": [
        {
          "name": "name",
          "type": "string",
          "internalType": "string"
        },
        {
          "name": "description",
          "type": "string",
          "internalType": "string"
        },
        {
          "name": "pricePerTicket",
          "type": "uint96",
          "internalType": "uint96"
        },
        {
          "name": "platformFeePercentage",
          "type": "uint8",
          "internalType": "uint8"
        },
        {
          "name": "transferFeePercentage",
          "type": "uint8",
          "internalType": "uint8"
        },
        {
          "name": "startDate",
          "type": "uint40",
          "internalType": "uint40"
        },
        {
          "name": "expirationDate",
          "type": "uint40",
          "internalType": "uint40"
        },
        {
          "name": "imageUrl",
          "type": "string",
          "internalType": "string"
        },
        {
          "name": "city",
          "type": "string",
          "internalType": "string"
        },
        {
          "name": "country",
          "type": "string",
          "internalType": "string"
        },
        {
          "name": "owner",
          "type": "address",
          "internalType": "address"
        },
        {
          "name": "ticketsAvailable",
          "type": "uint32",
          "internalType": "uint32"
        },
        {
          "name": "ticketsSold",
          "type": "uint32",
          "internalType": "uint32"
        },
        {
          "name": "exists",
          "type": "bool",
          "internalType": "bool"
        },
        {
          "name": "storeId",
          "type": "string",
          "internalType": "string"
        },
        {
          "name": "secretName",
          "type": "string",
          "internalType": "string"
        },
        {
          "name": "category",
          "type": "string",
          "internalType": "string"
        },
        {
          "name": "eventType",
          "type": "string",
          "internalType": "string"
        },
        {
          "name": "campaignId",
          "type": "uint256",
          "internalType": "uint256"
        }
      ],
      "stateMutability": "view"
    },
    {
      "type": "function",
      "name": "cancelTransfer",
      "inputs": [
        {
          "name": "transferId",
          "type": "uint256",
          "internalType": "uint256"
        }
      ],
      "outputs": [],
      "stateMutability": "nonpayable"
    },
    {
      "type": "function",
      "name": "completeTransfer",
      "inputs": [
        {
          "name": "transferId",
          "type": "uint256",
          "internalType": "uint256"
        }
      ],
      "outputs": [],
      "stateMutability": "payable"
    },
    {
      "type": "function",
      "name": "createCampaign",
      "inputs": [
        {
          "name": "_name",
          "type": "string",
          "internalType": "string"
        },
        {
          "name": "_description",
          "type": "string",
          "internalType": "string"
        },
        {
          "name": "_pricePerTicket",
          "type": "uint96",
          "internalType": "uint96"
        },
        {
          "name": "_platformFeePercentage",
          "type": "uint8",
          "internalType": "uint8"
        },
        {
          "name": "_transferFeePercentage",
          "type": "uint8",
          "internalType": "uint8"
        },
        {
          "name": "_startDate",
          "type": "uint40",
          "internalType": "uint40"
        },
        {
          "name": "_expirationDate",
          "type": "uint40",
          "internalType": "uint40"
        },
        {
          "name": "_imageUrl",
          "type": "string",
          "internalType": "string"
        },
        {
          "name": "_city",
          "type": "string",
          "internalType": "string"
        },
        {
          "name": "_country",
          "type": "string",
          "internalType": "string"
        },
        {
          "name": "_ticketsAvailable",
          "type": "uint32",
          "internalType": "uint32"
        },
        {
          "name": "_storeId",
          "type": "string",
          "internalType": "string"
        },
        {
          "name": "_secretName",
          "type": "string",
          "internalType": "string"
        },
        {
          "name": "_category",
          "type": "string",
          "internalType": "string"
        },
        {
          "name": "_eventType",
          "type": "string",
          "internalType": "string"
        }
      ],
      "outputs": [
        {
          "name": "",
          "type": "uint256",
          "internalType": "uint256"
        }
      ],
      "stateMutability": "nonpayable"
    },
    {
      "type": "function",
      "name": "createTestCampaign",
      "inputs": [
        {
          "name": "name",
          "type": "string",
          "internalType": "string"
        },
        {
          "name": "price",
          "type": "uint96",
          "internalType": "uint96"
        },
        {
          "name": "tickets",
          "type": "uint32",
          "internalType": "uint32"
        }
      ],
      "outputs": [
        {
          "name": "",
          "type": "uint256",
          "internalType": "uint256"
        }
      ],
      "stateMutability": "nonpayable"
    },
    {
      "type": "function",
      "name": "createTransfer",
      "inputs": [
        {
          "name": "tokenId",
          "type": "uint256",
          "internalType": "uint256"
        },
        {
          "name": "amount",
          "type": "uint256",
          "internalType": "uint256"
        }
      ],
      "outputs": [
        {
          "name": "",
          "type": "uint256",
          "internalType": "uint256"
        }
      ],
      "stateMutability": "nonpayable"
    },
    {
      "type": "function",
      "name": "getApproved",
      "inputs": [
        {
          "name": "tokenId",
          "type": "uint256",
          "internalType": "uint256"
        }
      ],
      "outputs": [
        {
          "name": "",
          "type": "address",
          "internalType": "address"
        }
      ],
      "stateMutability": "view"
    },
    {
      "type": "function",
      "name": "getCampaignById",
      "inputs": [
        {
          "name": "campaignId",
          "type": "uint256",
          "internalType": "uint256"
        }
      ],
      "outputs": [
        {
          "name": "",
          "type": "tuple",
          "internalType": "struct TicketingSystem.Campaign",
          "components": [
            {
              "name": "name",
              "type": "string",
              "internalType": "string"
            },
            {
              "name": "description",
              "type": "string",
              "internalType": "string"
            },
            {
              "name": "pricePerTicket",
              "type": "uint96",
              "internalType": "uint96"
            },
            {
              "name": "platformFeePercentage",
              "type": "uint8",
              "internalType": "uint8"
            },
            {
              "name": "transferFeePercentage",
              "type": "uint8",
              "internalType": "uint8"
            },
            {
              "name": "startDate",
              "type": "uint40",
              "internalType": "uint40"
            },
            {
              "name": "expirationDate",
              "type": "uint40",
              "internalType": "uint40"
            },
            {
              "name": "imageUrl",
              "type": "string",
              "internalType": "string"
            },
            {
              "name": "city",
              "type": "string",
              "internalType": "string"
            },
            {
              "name": "country",
              "type": "string",
              "internalType": "string"
            },
            {
              "name": "owner",
              "type": "address",
              "internalType": "address"
            },
            {
              "name": "ticketsAvailable",
              "type": "uint32",
              "internalType": "uint32"
            },
            {
              "name": "ticketsSold",
              "type": "uint32",
              "internalType": "uint32"
            },
            {
              "name": "exists",
              "type": "bool",
              "internalType": "bool"
            },
            {
              "name": "storeId",
              "type": "string",
              "internalType": "string"
            },
            {
              "name": "secretName",
              "type": "string",
              "internalType": "string"
            },
            {
              "name": "category",
              "type": "string",
              "internalType": "string"
            },
            {
              "name": "eventType",
              "type": "string",
              "internalType": "string"
            },
            {
              "name": "campaignId",
              "type": "uint256",
              "internalType": "uint256"
            }
          ]
        }
      ],
      "stateMutability": "view"
    },
    {
      "type": "function",
      "name": "getCampaignTickets",
      "inputs": [
        {
          "name": "campaignId",
          "type": "uint256",
          "internalType": "uint256"
        }
      ],
      "outputs": [
        {
          "name": "",
          "type": "tuple[]",
          "internalType": "struct TicketingSystem.Ticket[]",
          "components": [
            {
              "name": "campaignId",
              "type": "uint256",
              "internalType": "uint256"
            },
            {
              "name": "purchaseDate",
              "type": "uint40",
              "internalType": "uint40"
            },
            {
              "name": "owner",
              "type": "address",
              "internalType": "address"
            },
            {
              "name": "ticketIndex",
              "type": "uint32",
              "internalType": "uint32"
            },
            {
              "name": "secret",
              "type": "string",
              "internalType": "string"
            },
            {
              "name": "imageUrl",
              "type": "string",
              "internalType": "string"
            },
            {
              "name": "nillionUserId",
              "type": "string",
              "internalType": "string"
            },
            {
              "name": "nillionStoreId",
              "type": "string",
              "internalType": "string"
            },
            {
              "name": "nillionPidToSid",
              "type": "string",
              "internalType": "string"
            }
          ]
        }
      ],
      "stateMutability": "view"
    },
    {
      "type": "function",
      "name": "getCampaignsByCity",
      "inputs": [
        {
          "name": "_city",
          "type": "string",
          "internalType": "string"
        },
        {
          "name": "page",
          "type": "uint256",
          "internalType": "uint256"
        },
        {
          "name": "pageSize",
          "type": "uint256",
          "internalType": "uint256"
        }
      ],
      "outputs": [
        {
          "name": "",
          "type": "tuple[]",
          "internalType": "struct TicketingSystem.Campaign[]",
          "components": [
            {
              "name": "name",
              "type": "string",
              "internalType": "string"
            },
            {
              "name": "description",
              "type": "string",
              "internalType": "string"
            },
            {
              "name": "pricePerTicket",
              "type": "uint96",
              "internalType": "uint96"
            },
            {
              "name": "platformFeePercentage",
              "type": "uint8",
              "internalType": "uint8"
            },
            {
              "name": "transferFeePercentage",
              "type": "uint8",
              "internalType": "uint8"
            },
            {
              "name": "startDate",
              "type": "uint40",
              "internalType": "uint40"
            },
            {
              "name": "expirationDate",
              "type": "uint40",
              "internalType": "uint40"
            },
            {
              "name": "imageUrl",
              "type": "string",
              "internalType": "string"
            },
            {
              "name": "city",
              "type": "string",
              "internalType": "string"
            },
            {
              "name": "country",
              "type": "string",
              "internalType": "string"
            },
            {
              "name": "owner",
              "type": "address",
              "internalType": "address"
            },
            {
              "name": "ticketsAvailable",
              "type": "uint32",
              "internalType": "uint32"
            },
            {
              "name": "ticketsSold",
              "type": "uint32",
              "internalType": "uint32"
            },
            {
              "name": "exists",
              "type": "bool",
              "internalType": "bool"
            },
            {
              "name": "storeId",
              "type": "string",
              "internalType": "string"
            },
            {
              "name": "secretName",
              "type": "string",
              "internalType": "string"
            },
            {
              "name": "category",
              "type": "string",
              "internalType": "string"
            },
            {
              "name": "eventType",
              "type": "string",
              "internalType": "string"
            },
            {
              "name": "campaignId",
              "type": "uint256",
              "internalType": "uint256"
            }
          ]
        }
      ],
      "stateMutability": "view"
    },
    {
      "type": "function",
      "name": "getCampaignsByCountry",
      "inputs": [
        {
          "name": "_country",
          "type": "string",
          "internalType": "string"
        },
        {
          "name": "page",
          "type": "uint256",
          "internalType": "uint256"
        },
        {
          "name": "pageSize",
          "type": "uint256",
          "internalType": "uint256"
        }
      ],
      "outputs": [
        {
          "name": "",
          "type": "tuple[]",
          "internalType": "struct TicketingSystem.Campaign[]",
          "components": [
            {
              "name": "name",
              "type": "string",
              "internalType": "string"
            },
            {
              "name": "description",
              "type": "string",
              "internalType": "string"
            },
            {
              "name": "pricePerTicket",
              "type": "uint96",
              "internalType": "uint96"
            },
            {
              "name": "platformFeePercentage",
              "type": "uint8",
              "internalType": "uint8"
            },
            {
              "name": "transferFeePercentage",
              "type": "uint8",
              "internalType": "uint8"
            },
            {
              "name": "startDate",
              "type": "uint40",
              "internalType": "uint40"
            },
            {
              "name": "expirationDate",
              "type": "uint40",
              "internalType": "uint40"
            },
            {
              "name": "imageUrl",
              "type": "string",
              "internalType": "string"
            },
            {
              "name": "city",
              "type": "string",
              "internalType": "string"
            },
            {
              "name": "country",
              "type": "string",
              "internalType": "string"
            },
            {
              "name": "owner",
              "type": "address",
              "internalType": "address"
            },
            {
              "name": "ticketsAvailable",
              "type": "uint32",
              "internalType": "uint32"
            },
            {
              "name": "ticketsSold",
              "type": "uint32",
              "internalType": "uint32"
            },
            {
              "name": "exists",
              "type": "bool",
              "internalType": "bool"
            },
            {
              "name": "storeId",
              "type": "string",
              "internalType": "string"
            },
            {
              "name": "secretName",
              "type": "string",
              "internalType": "string"
            },
            {
              "name": "category",
              "type": "string",
              "internalType": "string"
            },
            {
              "name": "eventType",
              "type": "string",
              "internalType": "string"
            },
            {
              "name": "campaignId",
              "type": "uint256",
              "internalType": "uint256"
            }
          ]
        }
      ],
      "stateMutability": "view"
    },
    {
      "type": "function",
      "name": "getCampaignsByPage",
      "inputs": [
        {
          "name": "page",
          "type": "uint256",
          "internalType": "uint256"
        },
        {
          "name": "pageSize",
          "type": "uint256",
          "internalType": "uint256"
        }
      ],
      "outputs": [
        {
          "name": "",
          "type": "tuple[]",
          "internalType": "struct TicketingSystem.Campaign[]",
          "components": [
            {
              "name": "name",
              "type": "string",
              "internalType": "string"
            },
            {
              "name": "description",
              "type": "string",
              "internalType": "string"
            },
            {
              "name": "pricePerTicket",
              "type": "uint96",
              "internalType": "uint96"
            },
            {
              "name": "platformFeePercentage",
              "type": "uint8",
              "internalType": "uint8"
            },
            {
              "name": "transferFeePercentage",
              "type": "uint8",
              "internalType": "uint8"
            },
            {
              "name": "startDate",
              "type": "uint40",
              "internalType": "uint40"
            },
            {
              "name": "expirationDate",
              "type": "uint40",
              "internalType": "uint40"
            },
            {
              "name": "imageUrl",
              "type": "string",
              "internalType": "string"
            },
            {
              "name": "city",
              "type": "string",
              "internalType": "string"
            },
            {
              "name": "country",
              "type": "string",
              "internalType": "string"
            },
            {
              "name": "owner",
              "type": "address",
              "internalType": "address"
            },
            {
              "name": "ticketsAvailable",
              "type": "uint32",
              "internalType": "uint32"
            },
            {
              "name": "ticketsSold",
              "type": "uint32",
              "internalType": "uint32"
            },
            {
              "name": "exists",
              "type": "bool",
              "internalType": "bool"
            },
            {
              "name": "storeId",
              "type": "string",
              "internalType": "string"
            },
            {
              "name": "secretName",
              "type": "string",
              "internalType": "string"
            },
            {
              "name": "category",
              "type": "string",
              "internalType": "string"
            },
            {
              "name": "eventType",
              "type": "string",
              "internalType": "string"
            },
            {
              "name": "campaignId",
              "type": "uint256",
              "internalType": "uint256"
            }
          ]
        }
      ],
      "stateMutability": "view"
    },
    {
      "type": "function",
      "name": "getPendingTransfersByCampaign",
      "inputs": [
        {
          "name": "campaignId",
          "type": "uint256",
          "internalType": "uint256"
        }
      ],
      "outputs": [
        {
          "name": "",
          "type": "tuple[]",
          "internalType": "struct TicketingSystem.TransferListing[]",
          "components": [
            {
              "name": "transferId",
              "type": "uint256",
              "internalType": "uint256"
            },
            {
              "name": "tokenId",
              "type": "uint256",
              "internalType": "uint256"
            },
            {
              "name": "campaignId",
              "type": "uint256",
              "internalType": "uint256"
            },
            {
              "name": "from",
              "type": "address",
              "internalType": "address"
            },
            {
              "name": "to",
              "type": "address",
              "internalType": "address"
            },
            {
              "name": "amount",
              "type": "uint256",
              "internalType": "uint256"
            },
            {
              "name": "isCompleted",
              "type": "bool",
              "internalType": "bool"
            },
            {
              "name": "createDate",
              "type": "uint40",
              "internalType": "uint40"
            }
          ]
        }
      ],
      "stateMutability": "view"
    },
    {
      "type": "function",
      "name": "getRoleAdmin",
      "inputs": [
        {
          "name": "role",
          "type": "bytes32",
          "internalType": "bytes32"
        }
      ],
      "outputs": [
        {
          "name": "",
          "type": "bytes32",
          "internalType": "bytes32"
        }
      ],
      "stateMutability": "view"
    },
    {
      "type": "function",
      "name": "getTicket",
      "inputs": [
        {
          "name": "tokenId",
          "type": "uint256",
          "internalType": "uint256"
        }
      ],
      "outputs": [
        {
          "name": "",
          "type": "tuple",
          "internalType": "struct TicketingSystem.Ticket",
          "components": [
            {
              "name": "campaignId",
              "type": "uint256",
              "internalType": "uint256"
            },
            {
              "name": "purchaseDate",
              "type": "uint40",
              "internalType": "uint40"
            },
            {
              "name": "owner",
              "type": "address",
              "internalType": "address"
            },
            {
              "name": "ticketIndex",
              "type": "uint32",
              "internalType": "uint32"
            },
            {
              "name": "secret",
              "type": "string",
              "internalType": "string"
            },
            {
              "name": "imageUrl",
              "type": "string",
              "internalType": "string"
            },
            {
              "name": "nillionUserId",
              "type": "string",
              "internalType": "string"
            },
            {
              "name": "nillionStoreId",
              "type": "string",
              "internalType": "string"
            },
            {
              "name": "nillionPidToSid",
              "type": "string",
              "internalType": "string"
            }
          ]
        }
      ],
      "stateMutability": "view"
    },
    {
      "type": "function",
      "name": "getTicketSecret",
      "inputs": [
        {
          "name": "tokenId",
          "type": "uint256",
          "internalType": "uint256"
        }
      ],
      "outputs": [
        {
          "name": "",
          "type": "string",
          "internalType": "string"
        }
      ],
      "stateMutability": "view"
    },
    {
      "type": "function",
      "name": "getTransfer",
      "inputs": [
        {
          "name": "transferId",
          "type": "uint256",
          "internalType": "uint256"
        }
      ],
      "outputs": [
        {
          "name": "",
          "type": "tuple",
          "internalType": "struct TicketingSystem.TransferListing",
          "components": [
            {
              "name": "transferId",
              "type": "uint256",
              "internalType": "uint256"
            },
            {
              "name": "tokenId",
              "type": "uint256",
              "internalType": "uint256"
            },
            {
              "name": "campaignId",
              "type": "uint256",
              "internalType": "uint256"
            },
            {
              "name": "from",
              "type": "address",
              "internalType": "address"
            },
            {
              "name": "to",
              "type": "address",
              "internalType": "address"
            },
            {
              "name": "amount",
              "type": "uint256",
              "internalType": "uint256"
            },
            {
              "name": "isCompleted",
              "type": "bool",
              "internalType": "bool"
            },
            {
              "name": "createDate",
              "type": "uint40",
              "internalType": "uint40"
            }
          ]
        }
      ],
      "stateMutability": "view"
    },
    {
      "type": "function",
      "name": "getUserTickets",
      "inputs": [
        {
          "name": "user",
          "type": "address",
          "internalType": "address"
        }
      ],
      "outputs": [
        {
          "name": "",
          "type": "tuple[]",
          "internalType": "struct TicketingSystem.Ticket[]",
          "components": [
            {
              "name": "campaignId",
              "type": "uint256",
              "internalType": "uint256"
            },
            {
              "name": "purchaseDate",
              "type": "uint40",
              "internalType": "uint40"
            },
            {
              "name": "owner",
              "type": "address",
              "internalType": "address"
            },
            {
              "name": "ticketIndex",
              "type": "uint32",
              "internalType": "uint32"
            },
            {
              "name": "secret",
              "type": "string",
              "internalType": "string"
            },
            {
              "name": "imageUrl",
              "type": "string",
              "internalType": "string"
            },
            {
              "name": "nillionUserId",
              "type": "string",
              "internalType": "string"
            },
            {
              "name": "nillionStoreId",
              "type": "string",
              "internalType": "string"
            },
            {
              "name": "nillionPidToSid",
              "type": "string",
              "internalType": "string"
            }
          ]
        }
      ],
      "stateMutability": "view"
    },
    {
      "type": "function",
      "name": "grantRole",
      "inputs": [
        {
          "name": "role",
          "type": "bytes32",
          "internalType": "bytes32"
        },
        {
          "name": "account",
          "type": "address",
          "internalType": "address"
        }
      ],
      "outputs": [],
      "stateMutability": "nonpayable"
    },
    {
      "type": "function",
      "name": "hasRole",
      "inputs": [
        {
          "name": "role",
          "type": "bytes32",
          "internalType": "bytes32"
        },
        {
          "name": "account",
          "type": "address",
          "internalType": "address"
        }
      ],
      "outputs": [
        {
          "name": "",
          "type": "bool",
          "internalType": "bool"
        }
      ],
      "stateMutability": "view"
    },
    {
      "type": "function",
      "name": "isApprovedForAll",
      "inputs": [
        {
          "name": "owner",
          "type": "address",
          "internalType": "address"
        },
        {
          "name": "operator",
          "type": "address",
          "internalType": "address"
        }
      ],
      "outputs": [
        {
          "name": "",
          "type": "bool",
          "internalType": "bool"
        }
      ],
      "stateMutability": "view"
    },
    {
      "type": "function",
      "name": "name",
      "inputs": [],
      "outputs": [
        {
          "name": "",
          "type": "string",
          "internalType": "string"
        }
      ],
      "stateMutability": "view"
    },
    {
      "type": "function",
      "name": "ownerOf",
      "inputs": [
        {
          "name": "tokenId",
          "type": "uint256",
          "internalType": "uint256"
        }
      ],
      "outputs": [
        {
          "name": "",
          "type": "address",
          "internalType": "address"
        }
      ],
      "stateMutability": "view"
    },
    {
      "type": "function",
      "name": "pause",
      "inputs": [],
      "outputs": [],
      "stateMutability": "nonpayable"
    },
    {
      "type": "function",
      "name": "paused",
      "inputs": [],
      "outputs": [
        {
          "name": "",
          "type": "bool",
          "internalType": "bool"
        }
      ],
      "stateMutability": "view"
    },
    {
      "type": "function",
      "name": "platformOwner",
      "inputs": [],
      "outputs": [
        {
          "name": "",
          "type": "address",
          "internalType": "address"
        }
      ],
      "stateMutability": "view"
    },
    {
      "type": "function",
      "name": "redeemTicket",
      "inputs": [
        {
          "name": "tokenId",
          "type": "uint256",
          "internalType": "uint256"
        },
        {
          "name": "pidToSid",
          "type": "string",
          "internalType": "string"
        }
      ],
      "outputs": [],
      "stateMutability": "nonpayable"
    },
    {
      "type": "function",
      "name": "removeUpdater",
      "inputs": [
        {
          "name": "account",
          "type": "address",
          "internalType": "address"
        }
      ],
      "outputs": [],
      "stateMutability": "nonpayable"
    },
    {
      "type": "function",
      "name": "renounceRole",
      "inputs": [
        {
          "name": "role",
          "type": "bytes32",
          "internalType": "bytes32"
        },
        {
          "name": "callerConfirmation",
          "type": "address",
          "internalType": "address"
        }
      ],
      "outputs": [],
      "stateMutability": "nonpayable"
    },
    {
      "type": "function",
      "name": "revokeRole",
      "inputs": [
        {
          "name": "role",
          "type": "bytes32",
          "internalType": "bytes32"
        },
        {
          "name": "account",
          "type": "address",
          "internalType": "address"
        }
      ],
      "outputs": [],
      "stateMutability": "nonpayable"
    },
    {
      "type": "function",
      "name": "safeTransferFrom",
      "inputs": [
        {
          "name": "from",
          "type": "address",
          "internalType": "address"
        },
        {
          "name": "to",
          "type": "address",
          "internalType": "address"
        },
        {
          "name": "tokenId",
          "type": "uint256",
          "internalType": "uint256"
        }
      ],
      "outputs": [],
      "stateMutability": "nonpayable"
    },
    {
      "type": "function",
      "name": "safeTransferFrom",
      "inputs": [
        {
          "name": "from",
          "type": "address",
          "internalType": "address"
        },
        {
          "name": "to",
          "type": "address",
          "internalType": "address"
        },
        {
          "name": "tokenId",
          "type": "uint256",
          "internalType": "uint256"
        },
        {
          "name": "data",
          "type": "bytes",
          "internalType": "bytes"
        }
      ],
      "outputs": [],
      "stateMutability": "nonpayable"
    },
    {
      "type": "function",
      "name": "setApprovalForAll",
      "inputs": [
        {
          "name": "operator",
          "type": "address",
          "internalType": "address"
        },
        {
          "name": "approved",
          "type": "bool",
          "internalType": "bool"
        }
      ],
      "outputs": [],
      "stateMutability": "nonpayable"
    },
    {
      "type": "function",
      "name": "setTicketSecret",
      "inputs": [
        {
          "name": "campaignId",
          "type": "uint256",
          "internalType": "uint256"
        },
        {
          "name": "ticketIndex",
          "type": "uint32",
          "internalType": "uint32"
        },
        {
          "name": "secret",
          "type": "string",
          "internalType": "string"
        }
      ],
      "outputs": [],
      "stateMutability": "nonpayable"
    },
    {
      "type": "function",
      "name": "setUpdater",
      "inputs": [
        {
          "name": "account",
          "type": "address",
          "internalType": "address"
        }
      ],
      "outputs": [],
      "stateMutability": "nonpayable"
    },
    {
      "type": "function",
      "name": "supportsInterface",
      "inputs": [
        {
          "name": "interfaceId",
          "type": "bytes4",
          "internalType": "bytes4"
        }
      ],
      "outputs": [
        {
          "name": "",
          "type": "bool",
          "internalType": "bool"
        }
      ],
      "stateMutability": "view"
    },
    {
      "type": "function",
      "name": "symbol",
      "inputs": [],
      "outputs": [
        {
          "name": "",
          "type": "string",
          "internalType": "string"
        }
      ],
      "stateMutability": "view"
    },
    {
      "type": "function",
      "name": "tickets",
      "inputs": [
        {
          "name": "",
          "type": "uint256",
          "internalType": "uint256"
        }
      ],
      "outputs": [
        {
          "name": "campaignId",
          "type": "uint256",
          "internalType": "uint256"
        },
        {
          "name": "purchaseDate",
          "type": "uint40",
          "internalType": "uint40"
        },
        {
          "name": "owner",
          "type": "address",
          "internalType": "address"
        },
        {
          "name": "ticketIndex",
          "type": "uint32",
          "internalType": "uint32"
        },
        {
          "name": "secret",
          "type": "string",
          "internalType": "string"
        },
        {
          "name": "imageUrl",
          "type": "string",
          "internalType": "string"
        },
        {
          "name": "nillionUserId",
          "type": "string",
          "internalType": "string"
        },
        {
          "name": "nillionStoreId",
          "type": "string",
          "internalType": "string"
        },
        {
          "name": "nillionPidToSid",
          "type": "string",
          "internalType": "string"
        }
      ],
      "stateMutability": "view"
    },
    {
      "type": "function",
      "name": "tokenIdCounter",
      "inputs": [],
      "outputs": [
        {
          "name": "",
          "type": "uint256",
          "internalType": "uint256"
        }
      ],
      "stateMutability": "view"
    },
    {
      "type": "function",
      "name": "tokenURI",
      "inputs": [
        {
          "name": "tokenId",
          "type": "uint256",
          "internalType": "uint256"
        }
      ],
      "outputs": [
        {
          "name": "",
          "type": "string",
          "internalType": "string"
        }
      ],
      "stateMutability": "view"
    },
    {
      "type": "function",
      "name": "transferCount",
      "inputs": [],
      "outputs": [
        {
          "name": "",
          "type": "uint256",
          "internalType": "uint256"
        }
      ],
      "stateMutability": "view"
    },
    {
      "type": "function",
      "name": "transferFrom",
      "inputs": [
        {
          "name": "from",
          "type": "address",
          "internalType": "address"
        },
        {
          "name": "to",
          "type": "address",
          "internalType": "address"
        },
        {
          "name": "tokenId",
          "type": "uint256",
          "internalType": "uint256"
        }
      ],
      "outputs": [],
      "stateMutability": "nonpayable"
    },
    {
      "type": "function",
      "name": "transfers",
      "inputs": [
        {
          "name": "",
          "type": "uint256",
          "internalType": "uint256"
        }
      ],
      "outputs": [
        {
          "name": "transferId",
          "type": "uint256",
          "internalType": "uint256"
        },
        {
          "name": "tokenId",
          "type": "uint256",
          "internalType": "uint256"
        },
        {
          "name": "campaignId",
          "type": "uint256",
          "internalType": "uint256"
        },
        {
          "name": "from",
          "type": "address",
          "internalType": "address"
        },
        {
          "name": "to",
          "type": "address",
          "internalType": "address"
        },
        {
          "name": "amount",
          "type": "uint256",
          "internalType": "uint256"
        },
        {
          "name": "isCompleted",
          "type": "bool",
          "internalType": "bool"
        },
        {
          "name": "createDate",
          "type": "uint40",
          "internalType": "uint40"
        }
      ],
      "stateMutability": "view"
    },
    {
      "type": "function",
      "name": "unpause",
      "inputs": [],
      "outputs": [],
      "stateMutability": "nonpayable"
    },
    {
      "type": "event",
      "name": "Approval",
      "inputs": [
        {
          "name": "owner",
          "type": "address",
          "indexed": true,
          "internalType": "address"
        },
        {
          "name": "approved",
          "type": "address",
          "indexed": true,
          "internalType": "address"
        },
        {
          "name": "tokenId",
          "type": "uint256",
          "indexed": true,
          "internalType": "uint256"
        }
      ],
      "anonymous": false
    },
    {
      "type": "event",
      "name": "ApprovalForAll",
      "inputs": [
        {
          "name": "owner",
          "type": "address",
          "indexed": true,
          "internalType": "address"
        },
        {
          "name": "operator",
          "type": "address",
          "indexed": true,
          "internalType": "address"
        },
        {
          "name": "approved",
          "type": "bool",
          "indexed": false,
          "internalType": "bool"
        }
      ],
      "anonymous": false
    },
    {
      "type": "event",
      "name": "CampaignCreated",
      "inputs": [
        {
          "name": "campaignId",
          "type": "uint256",
          "indexed": true,
          "internalType": "uint256"
        },
        {
          "name": "name",
          "type": "string",
          "indexed": false,
          "internalType": "string"
        },
        {
          "name": "pricePerTicket",
          "type": "uint96",
          "indexed": false,
          "internalType": "uint96"
        },
        {
          "name": "startDate",
          "type": "uint40",
          "indexed": false,
          "internalType": "uint40"
        },
        {
          "name": "expirationDate",
          "type": "uint40",
          "indexed": false,
          "internalType": "uint40"
        },
        {
          "name": "owner",
          "type": "address",
          "indexed": true,
          "internalType": "address"
        },
        {
          "name": "category",
          "type": "string",
          "indexed": false,
          "internalType": "string"
        }
      ],
      "anonymous": false
    },
    {
      "type": "event",
      "name": "Paused",
      "inputs": [
        {
          "name": "account",
          "type": "address",
          "indexed": false,
          "internalType": "address"
        }
      ],
      "anonymous": false
    },
    {
      "type": "event",
      "name": "RoleAdminChanged",
      "inputs": [
        {
          "name": "role",
          "type": "bytes32",
          "indexed": true,
          "internalType": "bytes32"
        },
        {
          "name": "previousAdminRole",
          "type": "bytes32",
          "indexed": true,
          "internalType": "bytes32"
        },
        {
          "name": "newAdminRole",
          "type": "bytes32",
          "indexed": true,
          "internalType": "bytes32"
        }
      ],
      "anonymous": false
    },
    {
      "type": "event",
      "name": "RoleGranted",
      "inputs": [
        {
          "name": "role",
          "type": "bytes32",
          "indexed": true,
          "internalType": "bytes32"
        },
        {
          "name": "account",
          "type": "address",
          "indexed": true,
          "internalType": "address"
        },
        {
          "name": "sender",
          "type": "address",
          "indexed": true,
          "internalType": "address"
        }
      ],
      "anonymous": false
    },
    {
      "type": "event",
      "name": "RoleRevoked",
      "inputs": [
        {
          "name": "role",
          "type": "bytes32",
          "indexed": true,
          "internalType": "bytes32"
        },
        {
          "name": "account",
          "type": "address",
          "indexed": true,
          "internalType": "address"
        },
        {
          "name": "sender",
          "type": "address",
          "indexed": true,
          "internalType": "address"
        }
      ],
      "anonymous": false
    },
    {
      "type": "event",
      "name": "SecretSet",
      "inputs": [
        {
          "name": "campaignId",
          "type": "uint256",
          "indexed": true,
          "internalType": "uint256"
        },
        {
          "name": "ticketIndex",
          "type": "uint32",
          "indexed": false,
          "internalType": "uint32"
        }
      ],
      "anonymous": false
    },
    {
      "type": "event",
      "name": "TicketBought",
      "inputs": [
        {
          "name": "tokenId",
          "type": "uint256",
          "indexed": true,
          "internalType": "uint256"
        },
        {
          "name": "campaignId",
          "type": "uint256",
          "indexed": true,
          "internalType": "uint256"
        },
        {
          "name": "buyer",
          "type": "address",
          "indexed": true,
          "internalType": "address"
        }
      ],
      "anonymous": false
    },
    {
      "type": "event",
      "name": "TicketTransferred",
      "inputs": [
        {
          "name": "tokenId",
          "type": "uint256",
          "indexed": true,
          "internalType": "uint256"
        },
        {
          "name": "from",
          "type": "address",
          "indexed": true,
          "internalType": "address"
        },
        {
          "name": "to",
          "type": "address",
          "indexed": true,
          "internalType": "address"
        },
        {
          "name": "amount",
          "type": "uint256",
          "indexed": false,
          "internalType": "uint256"
        }
      ],
      "anonymous": false
    },
    {
      "type": "event",
      "name": "Transfer",
      "inputs": [
        {
          "name": "from",
          "type": "address",
          "indexed": true,
          "internalType": "address"
        },
        {
          "name": "to",
          "type": "address",
          "indexed": true,
          "internalType": "address"
        },
        {
          "name": "tokenId",
          "type": "uint256",
          "indexed": true,
          "internalType": "uint256"
        }
      ],
      "anonymous": false
    },
    {
      "type": "event",
      "name": "TransferCancelled",
      "inputs": [
        {
          "name": "transferId",
          "type": "uint256",
          "indexed": true,
          "internalType": "uint256"
        },
        {
          "name": "tokenId",
          "type": "uint256",
          "indexed": true,
          "internalType": "uint256"
        }
      ],
      "anonymous": false
    },
    {
      "type": "event",
      "name": "TransferCompleted",
      "inputs": [
        {
          "name": "transferId",
          "type": "uint256",
          "indexed": true,
          "internalType": "uint256"
        },
        {
          "name": "tokenId",
          "type": "uint256",
          "indexed": true,
          "internalType": "uint256"
        },
        {
          "name": "to",
          "type": "address",
          "indexed": true,
          "internalType": "address"
        },
        {
          "name": "amount",
          "type": "uint256",
          "indexed": false,
          "internalType": "uint256"
        }
      ],
      "anonymous": false
    },
    {
      "type": "event",
      "name": "TransferCreated",
      "inputs": [
        {
          "name": "transferId",
          "type": "uint256",
          "indexed": true,
          "internalType": "uint256"
        },
        {
          "name": "tokenId",
          "type": "uint256",
          "indexed": true,
          "internalType": "uint256"
        },
        {
          "name": "from",
          "type": "address",
          "indexed": true,
          "internalType": "address"
        },
        {
          "name": "amount",
          "type": "uint256",
          "indexed": false,
          "internalType": "uint256"
        }
      ],
      "anonymous": false
    },
    {
      "type": "event",
      "name": "Unpaused",
      "inputs": [
        {
          "name": "account",
          "type": "address",
          "indexed": false,
          "internalType": "address"
        }
      ],
      "anonymous": false
    },
    {
      "type": "error",
      "name": "AccessControlBadConfirmation",
      "inputs": []
    },
    {
      "type": "error",
      "name": "AccessControlUnauthorizedAccount",
      "inputs": [
        {
          "name": "account",
          "type": "address",
          "internalType": "address"
        },
        {
          "name": "neededRole",
          "type": "bytes32",
          "internalType": "bytes32"
        }
      ]
    },
    {
      "type": "error",
      "name": "CampaignExpired",
      "inputs": []
    },
    {
      "type": "error",
      "name": "CampaignNotFound",
      "inputs": []
    },
    {
      "type": "error",
      "name": "CampaignNotStarted",
      "inputs": []
    },
    {
      "type": "error",
      "name": "ERC721IncorrectOwner",
      "inputs": [
        {
          "name": "sender",
          "type": "address",
          "internalType": "address"
        },
        {
          "name": "tokenId",
          "type": "uint256",
          "internalType": "uint256"
        },
        {
          "name": "owner",
          "type": "address",
          "internalType": "address"
        }
      ]
    },
    {
      "type": "error",
      "name": "ERC721InsufficientApproval",
      "inputs": [
        {
          "name": "operator",
          "type": "address",
          "internalType": "address"
        },
        {
          "name": "tokenId",
          "type": "uint256",
          "internalType": "uint256"
        }
      ]
    },
    {
      "type": "error",
      "name": "ERC721InvalidApprover",
      "inputs": [
        {
          "name": "approver",
          "type": "address",
          "internalType": "address"
        }
      ]
    },
    {
      "type": "error",
      "name": "ERC721InvalidOperator",
      "inputs": [
        {
          "name": "operator",
          "type": "address",
          "internalType": "address"
        }
      ]
    },
    {
      "type": "error",
      "name": "ERC721InvalidOwner",
      "inputs": [
        {
          "name": "owner",
          "type": "address",
          "internalType": "address"
        }
      ]
    },
    {
      "type": "error",
      "name": "ERC721InvalidReceiver",
      "inputs": [
        {
          "name": "receiver",
          "type": "address",
          "internalType": "address"
        }
      ]
    },
    {
      "type": "error",
      "name": "ERC721InvalidSender",
      "inputs": [
        {
          "name": "sender",
          "type": "address",
          "internalType": "address"
        }
      ]
    },
    {
      "type": "error",
      "name": "ERC721NonexistentToken",
      "inputs": [
        {
          "name": "tokenId",
          "type": "uint256",
          "internalType": "uint256"
        }
      ]
    },
    {
      "type": "error",
      "name": "EnforcedPause",
      "inputs": []
    },
    {
      "type": "error",
      "name": "ExpectedPause",
      "inputs": []
    },
    {
      "type": "error",
      "name": "InsufficientTickets",
      "inputs": []
    },
    {
      "type": "error",
      "name": "InvalidAmount",
      "inputs": []
    },
    {
      "type": "error",
      "name": "InvalidDates",
      "inputs": []
    },
    {
      "type": "error",
      "name": "InvalidFees",
      "inputs": []
    },
    {
      "type": "error",
      "name": "InvalidTransferState",
      "inputs": []
    },
    {
      "type": "error",
      "name": "ReentrancyGuardReentrantCall",
      "inputs": []
    },
    {
      "type": "error",
      "name": "SecretNotFound",
      "inputs": []
    },
    {
      "type": "error",
      "name": "TransferAlreadyCompleted",
      "inputs": []
    },
    {
      "type": "error",
      "name": "TransferFailed",
      "inputs": []
    },
    {
      "type": "error",
      "name": "TransferNotFound",
      "inputs": []
    },
    {
      "type": "error",
      "name": "Unauthorized",
      "inputs": []
    }
  ],
  "bytecode": {
    "object": "0x60a06040523461035e57604080519081016001600160401b0381118282101761026b5760409081526009825268151a58dad95d13919560ba1b602083015280519081016001600160401b0381118282101761026b576040526006815265151250d2d15560d21b602082015281516001600160401b03811161026b57600054600181811c91168015610354575b602082101461024b57601f81116102f0575b50602092601f821160011461028c5792819293600092610281575b50508160011b916000199060031b1c1916176000555b80516001600160401b03811161026b57600154600181811c91168015610261575b602082101461024b57601f81116101e6575b50602091601f821160011461018257918192600092610177575b50508160011b916000199060031b1c1916176001555b600160075560ff19600854166008553360805261014d33610363565b50610157336103df565b5060405161589b9081610478823960805181818161113c0152611bcb0152f35b01519050388061011b565b601f198216926001600052806000209160005b8581106101ce575083600195106101b5575b505050811b01600155610131565b015160001960f88460031b161c191690553880806101a7565b91926020600181928685015181550194019201610195565b60016000527fb10e2d527612073b26eecdfd717e6a320cf44b4afac2b0732d9fcbe2b7fa0cf6601f830160051c81019160208410610241575b601f0160051c01905b8181106102355750610101565b60008155600101610228565b909150819061021f565b634e487b7160e01b600052602260045260246000fd5b90607f16906100ef565b634e487b7160e01b600052604160045260246000fd5b0151905038806100b8565b601f1982169360008052806000209160005b8681106102d857508360019596106102bf575b505050811b016000556100ce565b015160001960f88460031b161c191690553880806102b1565b9192602060018192868501518155019401920161029e565b600080527f290decd9548b62a8d60345a988386fc84ba6bc95484008f6362f93160ef3e563601f830160051c8101916020841061034a575b601f0160051c01905b81811061033e575061009d565b60008155600101610331565b9091508190610328565b90607f169061008b565b600080fd5b6001600160a01b0381166000908152600080516020615d53833981519152602052604090205460ff166103d9576001600160a01b03166000818152600080516020615d5383398151915260205260408120805460ff19166001179055339190600080516020615d138339815191528180a4600190565b50600090565b6001600160a01b0381166000908152600080516020615d33833981519152602052604090205460ff166103d9576001600160a01b03166000818152600080516020615d3383398151915260205260408120805460ff191660011790553391907f73e573f9566d61418a34d5de3ff49360f9c51fec37f7486551670290f6285dab90600080516020615d138339815191529080a460019056fe6102c080604052600436101561001457600080fd5b60006101a0526101a0513560e01c90816301ffc9a714614031575080630484a22f14613f1957806304b07a5e14613ef057806306fdde0314613e61578063081812fc14613e1f578063095ea7b314613d1a5780630978780314613b63578063141961bc146138f4578063183f4a1714612d4457806323b872dd14612d2d578063248a9ca314612cf85780632a467a7314612cdb5780632f2ff15d14612c9b57806336568abe14612c5157806337f690ee14612a68578063381097b3146129d75780633d9ce1c514611cdf5780633f4ba83a14611c6b57806342842e0e14611c3757806347e6338014611bfa5780634df8ccb114611bb357806350b4471214611a8057806351a2c4e31461191d578063592805081461100957806359caecb514610f4d5780635c975abb14610f28578063619c83ed14610c765780636352211e14610c4657806370a0823114610be65780637274e30d14610bc65780637dc379fa14610b025780638456cb5914610aa157806391d1485414610a475780639377d711146109b057806395d89b41146108f957806398bdf6f5146108d95780639d54f419146108b0578063a217fddf14610890578063a22cb465146107d0578063b80450ba146107b6578063b88d4fde14610744578063bd5667f41461071b578063c16fe9071461066a578063c87b56dd1461060f578063d547741f146105c2578063e3d33fc9146105a2578063e6ffcaa114610534578063e985e9c5146104d5578063ee44404d1461043e5763fe1e81b11461024e57600080fd5b3461043757602036600319011261043757600435806101a05152600960205260ff600660406101a05120015460e01c1615610422576101a080518290526009602052516040902060060154336001600160a01b0382160361040e5763ffffffff6102bb9160c01c16614736565b6101a051600e54919260015b838111156102e157604051806102dd87826141d5565b0390f35b806101a05152600a6020528160406101a051205414610309575b610304906146b3565b6102c7565b9161040661030491846101a05152600a60205260406101a0512060066103e56040519261033584614308565b8054845263ffffffff600182015464ffffffffff8116602087015260018060a01b038160281c16604087015260c81c1660608501526040516103858161037e8160028601614285565b0382614372565b608085015260405161039e8161037e8160038601614285565b60a08501526040516103b78161037e8160048601614285565b60c08501526040516103d08161037e8160058601614285565b60e085015261037e6040518094819301614285565b6101008201526103f58289614786565b526104008188614786565b506146b3565b9290506102fb565b6282b42960e81b6101a0515260046101a051fd5b6337f9b70b60e11b6101a0515260046101a051fd5b6101a05180fd5b34610437576020366003190112610437576004356101a05152600a60205260406101a0512060018060a01b03600182015460281c16331415806104ad575b61040e5760026104996102dd9261037e6040518094819301614285565b6040519182916020835260208301906140e7565b5080546101a05152600960205260018060a01b03600660406101a0512001541633141561047c565b34610437576040366003190112610437576104ee6140b6565b6104f66140d1565b9060018060a01b03166101a05152600560205260406101a051209060018060a01b0316600052602052602060ff604060002054166040519015158152f35b34610437576020366003190112610437576004356105506149d7565b50806101a05152600960205260ff600660406101a05120015460e01c1615610422576101a0515260096020526102dd61058e60406101a05120614b14565b604051918291602083526020830190614430565b34610437576101a051366003190112610437576020600f54604051908152f35b34610437576040366003190112610437576106076004356105e16140d1565b906106026105fd82600052600660205260016040600020015490565b615340565b61542b565b506101a05180f35b346104375760203660031901126104375761062b6004356154b8565b5060405161063a602082614372565b6101a05190526040516102dd90610652602082614372565b600081526040519182916020835260208301906140e7565b3461043757602036600319011261043757610683614e53565b506004356101a05152600b60205261010060406101a0512064ffffffffff6006604051926106b08461433a565b80548452600181015460208501526002810154604085015260018060a01b03600382015416606085015260018060a01b036004820154166080850152600581015460a0850152015460ff8116151560c084015260081c1660e082015261071960405180926145fd565bf35b34610437576102dd61073861072f366143fa565b9291909161517c565b6040519182918261459d565b346104375760803660031901126104375761075d6140b6565b6107656140d1565b90604435606435926001600160401b03841161043757366023850112156104375761079d6107af94369060248160040135910161467c565b926107a9838383614830565b33615729565b6101a05180f35b34610437576102dd6107386107ca36614235565b906150db565b34610437576040366003190112610437576107e96140b6565b6024359081151590818303610437576001600160a01b03169182156108775761084490336101a05152600560205260406101a051206101a05150846101a0515260205260406101a051209060ff801983541691151516179055565b6040519081527f17307eab39ab6107e8899845ad3d59bd9653f200f220920489ca2b5937696c3160203392a36101a05180f35b82630b61174360e31b6101a0515260045260246101a051fd5b34610437576101a0513660031901126104375760206040516101a0518152f35b34610437576020366003190112610437576106076108cc6140b6565b6108d46152ed565b6155d5565b34610437576101a051366003190112610437576020600e54604051908152f35b34610437576101a051366003190112610437576040516101a05160015461091f8161424b565b808452906001811690811561098c5750600114610947575b6102dd8361049981850382614372565b6101a08051600190525160208120939250905b80821061097257509091508101602001610499610937565b91926001816020925483858801015201910190929161095a565b60ff191660208086019190915291151560051b840190910191506104999050610937565b34610437576020366003190112610437576004356101a05152600b60205261010060406101a0512064ffffffffff815491600181015490600281015460018060a01b0360038301541660018060a01b03600484015416916006600585015494015494604051978852602088015260408701526060860152608085015260a084015260ff8116151560c084015260081c1660e0820152f35b3461043757604036600319011261043757610a606140d1565b6004356101a05152600660205260406101a05120906101a0515060018060a01b03166101a05152602052602060ff60406101a0512054166040519015158152f35b34610437576101a05136600319011261043757610abc6152ed565b610ac46154ef565b600160ff1960085416176008557f62e78cea01bee320cd4e420270b5ea74000d11b0c9f74754ebdbfc544b05a2586020604051338152a16101a05180f35b3461043757602036600319011261043757600435610b1e6146ef565b50806101a05152600a60205260018060a01b03600160406101a05120015460281c1633141580610b8d575b61040e576101a05152600a6020526102dd60406101a051206006610b736040519261033584614308565b610100820152604051918291602083526020830190614128565b50806101a05152600a60205260406101a05120546101a05152600960205260018060a01b03600660406101a05120015416331415610b49565b34610437576101a051366003190112610437576020600d54604051908152f35b34610437576020366003190112610437576001600160a01b03610c076140b6565b168015610c2a576101a051526003602052602060406101a0512054604051908152f35b6322718ad960e21b6101a051526101a05160045260246101a051fd5b34610437576020366003190112610437576020610c646004356154b8565b6040516001600160a01b039091168152f35b602036600319011261043757600435610c8d6154ef565b610c95615707565b80158015610f1d575b610f0857806101a05152600b60205260ff600660406101a05120015416610ef357806101a05152600b60205260406101a051209060028201546101a05152600960205260406101a05120600281015464ffffffffff8160981c164211610ede5760058401543403610ec957610d1b60ff60649260681c1634614af4565b04610d268134614b07565b6101a0516006909301549092918291829182916001600160a01b03165af1610d4c615092565b5015610eb4576101a05160038401805490928291829182916001600160a01b03165af1610d77615092565b5015610eb457600183810180546101a0805191909152600a6020525160409020909101805465010000000000600160c81b0319163360281b65010000000000600160c81b03161790559054815493906001600160a01b03163315610e98576001600160a01b03610de7863361550c565b169081610e075785637e27328960e01b6101a0515260045260246101a051fd5b8086918303610e7a575050506006906004810160018060a01b0333166001600160601b0360a01b82541617905501600160ff1982541617905554604051913483527fb8341b5f21761d74fd01fb60b5ab4649f1aca6944d5c4d067e21fccd1a921cbc60203394a460016007556101a05180f35b6364283d7b60e01b6101a0515260045260245260445260646101a051fd5b633250574960e11b6101a051526101a05160045260246101a051fd5b6312171d8360e31b6101a0515260046101a051fd5b63162908e360e11b6101a0515260046101a051fd5b638320b48360e01b6101a0515260046101a051fd5b6305de099160e31b6101a0515260046101a051fd5b632b44303360e11b6101a0515260046101a051fd5b50600f548111610c9e565b34610437576101a05136600319011261043757602060ff600854166040519015158152f35b3461043757602036600319011261043757600435610f696154ef565b80158015610ffe575b610f0857806101a05152600b60205260ff600660406101a05120015416610ef3576101a08051829052600b602052516040902060038101546001600160a01b0316330361040e57806006600192018260ff198254161790550154907f59c3e31ec8892c34508197e97c25f0e4da6d87733b22b22765425d203f44667a6101a0516101a051a36101a05180f35b50600f548111610f72565b6080366003190112610437576004356024356001600160401b03811161043757611037903690600401614393565b90916044356001600160401b03811161043757611058903690600401614393565b906064356001600160401b03811161043757611078903690600401614393565b6110839391936154ef565b61108b615707565b846101a05152600960205260ff600660406101a05120015460e01c161561042257846101a05152600960205260406101a051206006810190815463ffffffff808260c01c169160a01c161115611908576002015464ffffffffff8160701c1642106118f35764ffffffffff8160981c164211610ede576001600160601b0381163410610ec95761112360ff60649260601c1634614af4565b0461112e8134614b07565b6101a05190918190819081907f00000000000000000000000000000000000000000000000000000000000000005af1611165615092565b5015610eb4576101a051825490918291829182916001600160a01b03165af161118c615092565b5015610eb457600e80546001908101909155815463ffffffff60c01b19811660c091821c63ffffffff16909201901b63ffffffff60c01b16178155600e5460405160209991906111dc8b82614372565b6101a05181523315610e98576001600160a01b036111fa833361550c565b166118d7578a90333b6117de575b505050866101a05152600c89526101a05160409020915460c01c63ffffffff1691611232836150c2565b6101a0515063ffffffff166101a0515289526101a051604090209160405161125b818095614285565b036112669084614372565b61126f906150c2565b946040519661127d88614308565b8888528a8801924264ffffffffff168452604089019a338c5260608a019863ffffffff16895260808a0195865236906112b59261467c565b9460a0890195865236906112c89261467c565b9460c0880195865236906112db9261467c565b9460e08701958652604051986112f18b8b614372565b6101a080518b5261010089019a8b52600e54815152600a8c525160409020975188559151600188018054935165010000000000600160c81b0360289190911b1664ffffffffff9092166001600160c81b03199094169390931717825551815463ffffffff60c81b191660c89190911b63ffffffff60c81b1617905551805160028601916001600160401b0382116115eb5761139682611390855461424b565b856147bd565b89906001601f841114611771579180916113c9936101a05192611766575b50508160011b916000199060031b1c19161790565b90555b51805160038501916001600160401b0382116115eb576113f082611390855461424b565b88906001601f8411146116f957918091611422936101a051926116ee5750508160011b916000199060031b1c19161790565b90555b51805160048401916001600160401b0382116115eb5761144982611390855461424b565b87906001601f8411146116815791809161147b936101a051926116055750508160011b916000199060031b1c19161790565b90555b51805160058301916001600160401b0382116115eb576114a282611390855461424b565b86906001601f8411146116105791806114d89260069695946101a051926116055750508160011b916000199060031b1c19161790565b90555b0191519182516001600160401b0381116115eb57611503816114fd845461424b565b846147bd565b84936001601f8311146115815761153692939482916101a051926115765750508160011b916000199060031b1c19161790565b90555b600e54604051913390827fdfc495a9ab5027ebf451b0bde607c053b25fdebc892e8bd60c755d720bd51d1f6101a0516101a051a460016007558152f35b0151905086806113b4565b601f19821694836101a05152866101a05120916101a0515b888882106115d5575050836001959697106115bc575b505050811b019055611539565b015160001960f88460031b161c191690558580806115af565b6001849582939585015181550194019201611599565b634e487b7160e01b6101a05152604160045260246101a051fd5b0151905089806113b4565b90601f19831691846101a05152886101a05120926101a0515b8a82821061166b57505091600193918560069897969410611652575b505050811b0190556114db565b015160001960f88460031b161c19169055888080611645565b6001859682939686015181550195019301611629565b90601f19831691846101a05152896101a05120926101a0515b8b8282106116d85750509084600195949392106116bf575b505050811b01905561147e565b015160001960f88460031b161c191690558880806116b2565b600185968293968601518155019501930161169a565b015190508a806113b4565b90601f19831691846101a051528a6101a05120926101a0515b8c828210611750575050908460019594939210611737575b505050811b019055611425565b015160001960f88460031b161c1916905589808061172a565b6001859682939686015181550195019301611712565b015190508b806113b4565b90601f19831691846101a051528b6101a05120926101a0515b8d8282106117c85750509084600195949392106117af575b505050811b0190556113cc565b015160001960f88460031b161c191690558a80806117a2565b600185968293968601518155019501930161178a565b611819926040519384928392630a85bd0160e11b84523360048501526101a051602485015260448401526080606484015260848301906140e7565b03816101a051335af16101a0519181611897575b5061185f578961183b615092565b8051918261185c57633250574960e11b6101a051523360045260246101a051fd5b01fd5b6001600160e01b03191663757a42ff60e11b0161187e57898981611208565b633250574960e11b6101a051523360045260246101a051fd5b9091508a81813d83116118d0575b6118af8183614372565b8101031261043757516001600160e01b03198116810361043757908b61182d565b503d6118a5565b6339e3563760e11b6101a051526101a05160045260246101a051fd5b6333f44d6160e01b6101a0515260046101a051fd5b630678856f60e21b6101a0515260046101a051fd5b34610437576040366003190112610437576024356001600160401b0381116104375761194d903690600401614393565b6119556154ef565b6101a080516004359052600a6020525160409020600181015460281c6001600160a01b031633810361040e5715610f085780546101a05152600960205264ffffffffff600260406101a05120015460981c164211610ede57600601906001600160401b0381116115eb576119cd816114fd845461424b565b6101a051601f8211600114611a15578190611a0193946101a05192611a0a5750508160011b916000199060031b1c19161790565b90556101a05180f35b0135905084806113b4565b601f19821693836101a0515260206101a05120916101a0515b868110611a685750836001959610611a4e575b505050811b0190556107af565b0135600019600384901b60f8161c19169055838080611a41565b90926020600181928686013581550194019101611a2e565b34610437576020366003190112610437576004356101a05152600a60205260406101a0512080546102dd6006611ba4600185015494611b96604051611acc8161037e8160028701614285565b611b88604051611ae38161037e8160038901614285565b611b7a60405193611b0285611afb8160048b01614285565b0386614372565b611b3160405197611b2189611b1a8160058501614285565b038a614372565b611b1a604051809c819301614285565b63ffffffff6040519c8d9c8d528c602064ffffffffff83169101528c604060018060a01b038360281c1691015260c81c1660608c015261012060808c01526101208b01906140e7565b9089820360a08b01526140e7565b9087820360c08901526140e7565b9085820360e08701526140e7565b908382036101008501526140e7565b34610437576101a051366003190112610437576040517f00000000000000000000000000000000000000000000000000000000000000006001600160a01b03168152602090f35b34610437576101a0513660031901126104375760206040517f73e573f9566d61418a34d5de3ff49360f9c51fec37f7486551670290f6285dab8152f35b34610437576107af611c48366143c0565b60405192909190611c5a602085614372565b6101a05184526107a9838383614830565b34610437576101a05136600319011261043757611c866152ed565b60085460ff811615611cca5760ff19166008557f5db9ee0a495bf2e6ff9c91a7834c1ba4fdd244a5e8aa4e537bd38aeae4b073aa6020604051338152a16101a05180f35b638dfc202b60e01b6101a0515260046101a051fd5b34610437576101e0366003190112610437576004356001600160401b03811161043757611d10903690600401614393565b61018052610260526024356001600160401b03811161043757611d37903690600401614393565b6101e0526044356102408190526001600160601b03811690036104375760643560ff81168103610437576084356102a081905260ff811690036104375760a43561028081905264ffffffffff811690036104375760c43561020081905264ffffffffff811690036104375760e4356001600160401b03811161043757611dc1903690600401614393565b9092610104356001600160401b03811161043757611de3903690600401614393565b91610124356001600160401b03811161043757611e04903690600401614393565b6101443596919490939163ffffffff8816880361043757610164356001600160401b03811161043757611e3b903690600401614393565b60a05260e052610184356001600160401b03811161043757611e61903690600401614393565b61010052610120526101a4356001600160401b03811161043757611e89903690600401614393565b61022052610160526101c4356001600160401b03811161043757611eb1903690600401614393565b610140526101c052611ec16154ef565b63ffffffff881615610ec957606460ff8216116129c257606460ff6102a05116116129c25764ffffffffff610200511664ffffffffff610280511610156129ad5763ffffffff98611fd19760ff611fb493611f59611fc2986001600d540160c05260c051600d55604051608052611f39608051614356565b611f4a36610180516102605161467c565b608051526101e051369161467c565b602060805101526001600160601b03610240511660406080510152166060608051015260ff6102a0511660808051015264ffffffffff610280511660a0608051015264ffffffffff610200511660c06080510152369161467c565b60e06080510152369161467c565b6101006080510152369161467c565b61012060805101523361014060805101521661016060805101526101a051610180608051015260016101a060805101526120103660a05160e05161467c565b6101c0608051015261202936610100516101205161467c565b6101e0608051015261204236610220516101605161467c565b610200608051015261205b36610140516101c05161467c565b610220608051015260c051610240608051015260c0516101a05152600960205260406101a05120608051518051906001600160401b0382116115eb576120a582611390855461424b565b6020906001601f84111461293c579180916120d8936101a0519261276d5750508160011b916000199060031b1c19161790565b81555b602060805101518051906001600160401b0382116115eb5761210d82612104600186015461424b565b600186016147bd565b6020906001601f8411146128c557918091612140936101a0519261276d5750508160011b916000199060031b1c19161790565b60018201555b600281016001600160601b03604060805101511681549060ff60601b6060608051015160601b169060ff60681b60808051015160681b169064ffffffffff60701b60a0608051015160701b169264ffffffffff60981b60c0608051015160981b169464ffffffffff60981b199264ffffffffff60701b19916001600160701b03191617161716171717905560e060805101519081516001600160401b0381116115eb57612203816121fa600385015461424b565b600385016147bd565b6020926001601f83111461285657612236929382916101a0519261276d5750508160011b916000199060031b1c19161790565b60038201555b61010060805101519081516001600160401b0381116115eb5761226f81612266600485015461424b565b600485016147bd565b6020926001601f8311146127e7576122a2929382916101a0519261276d5750508160011b916000199060031b1c19161790565b60048201555b61012060805101519081516001600160401b0381116115eb576122db816122d2600585015461424b565b600585016147bd565b6020926001601f8311146127785761230e929382916101a0519261276d5750508160011b916000199060031b1c19161790565b60058201555b6080516101408101516006830180546101608401516101808501516101a086015160c09190911b63ffffffff60c01b1660a09290921b63ffffffff60a01b166001600160a01b039095166001600160e81b031990931692909217939093179290921791151560e01b60ff60e01b169190911790556101c00151805190919060078201906001600160401b0381116115eb576123b3816114fd845461424b565b60206001601f8311146127025781906123e69394956101a051926125b65750508160011b916000199060031b1c19161790565b90555b60088101906101e060805101519182516001600160401b0381116115eb57612415816114fd845461424b565b60206001601f8311146126975781906124489394956101a051926125b65750508160011b916000199060031b1c19161790565b90555b600981019061020060805101519182516001600160401b0381116115eb57612477816114fd845461424b565b60206001601f83111461262c5781906124aa9394956101a051926125b65750508160011b916000199060031b1c19161790565b90555b600a81019061022060805101519182516001600160401b0381116115eb576124d9816114fd845461424b565b60206001601f8311146125c157819061250c9394956101a051926125b65750508160011b916000199060031b1c19161790565b90555b600b61024060805101519101556020600d5460405160a08152817f4c37167085cc1e9c8f1268af0ef8e5b26afb72ea7aebd93341c8422efec2daca61255e60a08401610180516102605161480f565b926001600160601b0361024051168682015264ffffffffff6102805116604082015264ffffffffff610200511660608201528084036080820152806125ab3395610220516101605161480f565b0390a3604051908152f35b0151905085806113b4565b601f19821690836101a05152806101a05120916101a0515b818110612614575095836001959697106125fb575b505050811b01905561250f565b015160001960f88460031b161c191690558480806125ee565b9192602060018192868b0151815501940192016125d9565b601f19821690836101a05152806101a05120916101a0515b81811061267f57509583600195969710612666575b505050811b0190556124ad565b015160001960f88460031b161c19169055848080612659565b9192602060018192868b015181550194019201612644565b601f19821690836101a05152806101a05120916101a0515b8181106126ea575095836001959697106126d1575b505050811b01905561244b565b015160001960f88460031b161c191690558480806126c4565b9192602060018192868b0151815501940192016126af565b601f19821690836101a05152806101a05120916101a0515b8181106127555750958360019596971061273c575b505050811b0190556123e9565b015160001960f88460031b161c1916905584808061272f565b9192602060018192868b01518155019401920161271a565b0151905084806113b4565b601f19821693600584016101a05152806101a05120916101a0515b8681106127cf57508360019596106127b6575b505050811b016005820155612314565b015160001960f88460031b161c191690558380806127a6565b91926020600181928685015181550194019201612793565b601f19821693600484016101a05152806101a05120916101a0515b86811061283e5750836001959610612825575b505050811b0160048201556122a8565b015160001960f88460031b161c19169055838080612815565b91926020600181928685015181550194019201612802565b601f19821693600384016101a05152806101a05120916101a0515b8681106128ad5750836001959610612894575b505050811b01600382015561223c565b015160001960f88460031b161c19169055838080612884565b91926020600181928685015181550194019201612871565b9190600184016101a05152806101a05120906101a051935b601f1984168510612921576001945083601f19811610612908575b505050811b016001820155612146565b015160001960f88460031b161c191690558380806128f8565b818101518355602094850194600190930192909101906128dd565b9190836101a05152806101a05120906101a051935b601f1984168510612992576001945083601f19811610612979575b505050811b0181556120db565b015160001960f88460031b161c1916905583808061296c565b81810151835560209485019460019093019290910190612951565b63364dd21b60e21b6101a0515260046101a051fd5b632d8768f960e01b6101a0515260046101a051fd5b3461043757602036600319011261043757600435806101a05152600960205260ff600660406101a05120015460e01c161561042257612a1590614e90565b6040518091602082016020835281518091526020604084019201906101a0515b818110612a43575050500390f35b91935091602061010082612a5a60019488516145fd565b019401910191849392612a35565b346104375760603660031901126104375760043560243563ffffffff811690819003610437576044356001600160401b03811161043757612aad903690600401614393565b836101a05152600960205260ff600660406101a05120015460e01c1615610422576101a080518590526009602052516040902060060154336001600160a01b0382160361040e5760a01c63ffffffff16831015610ec957836101a05152600c60205260406101a051206101a05150836101a0515260205260406101a05120916001600160401b0382116115eb57612b4882611390855461424b565b6101a05190601f8311600114612bbe57827f848fa310948ec41d9eb4afbada0028afdc8acd8179e7ebfe6ca9126e9af52853959360209593612ba2936101a05192612bb35750508160011b916000199060031b1c19161790565b90555b604051908152a26101a05180f35b0135905088806113b4565b601f19831691846101a0515260206101a05120926101a0515b818110612c3957509260019285927f848fa310948ec41d9eb4afbada0028afdc8acd8179e7ebfe6ca9126e9af5285398966020989610612c1f575b505050811b019055612ba5565b0135600019600384901b60f8161c19169055878080612c12565b91936020600181928787013581550195019201612bd7565b3461043757604036600319011261043757612c6a6140d1565b336001600160a01b03821603612c86576106079060043561542b565b63334bd91960e11b6101a0515260046101a051fd5b3461043757604036600319011261043757610607600435612cba6140d1565b90612cd66105fd82600052600660205260016040600020015490565b61567f565b34610437576102dd610738612cef366143fa565b92919091614c98565b34610437576020366003190112610437576020612d25600435600052600660205260016040600020015490565b604051908152f35b34610437576107af612d3e366143c0565b91614830565b34610437576060366003190112610437576004356001600160401b03811161043757612d74903690600401614393565b906024356001600160601b0381168103610437576044359063ffffffff8216820361043757612da16154ef565b6001600d54019283600d5562278d004201948542116138da5760405194612dc786614356565b612dd236838561467c565b865260408051909563ffffffff91612dea8882614372565b601081526f2a32b9ba102232b9b1b934b83a34b7b760811b6020808301919091528901526001600160601b03861687890152600560608901526002608089015264ffffffffff42811660a08a0152891660c08901528651612e4b8882614372565b600e81526d746573742d696d6167652e6a706760901b602082015260e08901528651612e778882614372565b600981526854657374204369747960b81b60208201526101008901528651612e9f8882614372565b600c81526b5465737420436f756e74727960a01b602082015261012089015233610140890152166101608701526101a05161018087015260016101a08701528451612eea8682614372565b600e81526d746573742d73746f72652d31323360901b60208201526101c08701528451612f178682614372565b600f81526e746573742d7365637265742d31323360881b60208201526101e08701528451612f458682614372565b600d81526c546573742043617465676f727960981b60208201526102008701528451612f718682614372565b600a81526915195cdd08115d995b9d60b21b6020820152610220870152806102408701526101a051526009602052836101a051209585518051906001600160401b0382116115eb57612fcd82612fc78b5461424b565b8b6147bd565b6020906001601f84111461386957918091613000936101a051926116ee5750508160011b916000199060031b1c19161790565b87555b60208601518051906001600160401b0382116115eb576130338261302a60018c015461424b565b60018c016147bd565b6020906001601f8411146137f257918091613066936101a051926116ee5750508160011b916000199060031b1c19161790565b60018801555b600287016001600160601b03868801511681549060ff60601b60608a015160601b169060ff60681b60808b015160681b169064ffffffffff60701b60a08c015160701b169264ffffffffff60981b60c08d015160981b169464ffffffffff60981b199264ffffffffff60701b19916001600160701b03191617161716171717905560e08601518051906001600160401b0382116115eb5761311d8261311460038c015461424b565b60038c016147bd565b6020906001601f84111461377f57918091613150936101a051926116ee5750508160011b916000199060031b1c19161790565b60038801555b6101008601518051906001600160401b0382116115eb576131878261317e60048c015461424b565b60048c016147bd565b6020906001601f84111461370c579180916131ba936101a051926116ee5750508160011b916000199060031b1c19161790565b60048801555b600587016101208701518051906001600160401b0382116115eb576131e982611390855461424b565b6020906001601f84111461369f5791809161321c936101a051926117665750508160011b916000199060031b1c19161790565b90555b6101408601516006880180546101608901516101808a01516101a08b015160c09190911b63ffffffff60c01b1660a09290921b63ffffffff60a01b166001600160a01b039095166001600160e81b031990931692909217939093179290921791151560e01b60ff60e01b169190911790556101c0860151805160078901916001600160401b0382116115eb576132b982611390855461424b565b6020906001601f841114613632579180916132ec936101a051926117665750508160011b916000199060031b1c19161790565b90555b600887016101e08701518051906001600160401b0382116115eb5761331882611390855461424b565b6020906001601f8411146135c55791809161334b936101a051926117665750508160011b916000199060031b1c19161790565b90555b600987016102008701518051906001600160401b0382116115eb5761337782611390855461424b565b6020906001601f841114613558579180916133aa936101a051926117665750508160011b916000199060031b1c19161790565b90555b600a870196610220870151968751986001600160401b038a116115eb57896133db60209b6114fd845461424b565b8a996001601f8311146134b9577f4c37167085cc1e9c8f1268af0ef8e5b26afb72ea7aebd93341c8422efec2daca96959364ffffffffff959361344184600b9561346d9f610240966101a051926134ae5750508160011b916000199060031b1c19161790565b90555b01519101556001600160601b03600d549889966101a0515089519560a0875260a087019161480f565b961689840152814216878401521660608201526c546573742043617465676f727960981b8782860395866080850152600d815201528433940190a351908152f35b0151905038806113b4565b601f19821690836101a051528b6101a05120916101a0515b8181106135415750936001846102409461346d9f7f4c37167085cc1e9c8f1268af0ef8e5b26afb72ea7aebd93341c8422efec2daca9c9b9995600b9864ffffffffff9c9a10613528575b505050811b019055613444565b015160001960f88460031b161c1916905538808061351b565b828e015184559c8e019c6001909301928e016134d1565b90601f19831691846101a05152816101a05120926101a0515b8181106135ad5750908460019594939210613594575b505050811b0190556133ad565b015160001960f88460031b161c191690558a8080613587565b92936020600181928786015181550195019301613571565b90601f19831691846101a05152816101a05120926101a0515b81811061361a5750908460019594939210613601575b505050811b01905561334e565b015160001960f88460031b161c191690558a80806135f4565b929360206001819287860151815501950193016135de565b90601f19831691846101a05152816101a05120926101a0515b818110613687575090846001959493921061366e575b505050811b0190556132ef565b015160001960f88460031b161c191690558a8080613661565b9293602060018192878601518155019501930161364b565b90601f19831691846101a05152816101a05120926101a0515b8181106136f457509084600195949392106136db575b505050811b01905561321f565b015160001960f88460031b161c191690558a80806136ce565b929360206001819287860151815501950193016136b8565b90601f1983169160048b016101a05152816101a05120926101a0515b818110613767575090846001959493921061374e575b505050811b0160048801556131c0565b015160001960f88460031b161c1916905589808061373e565b92936020600181928786015181550195019301613728565b90601f1983169160038b016101a05152816101a05120926101a0515b8181106137da57509084600195949392106137c1575b505050811b016003880155613156565b015160001960f88460031b161c191690558980806137b1565b9293602060018192878601518155019501930161379b565b919060018a016101a05152806101a05120906101a051935b601f198416851061384e576001945083601f19811610613835575b505050811b01600188015561306c565b015160001960f88460031b161c19169055898080613825565b8181015183556020948501946001909301929091019061380a565b9190896101a05152806101a05120906101a051935b601f19841685106138bf576001945083601f198116106138a6575b505050811b018755613003565b015160001960f88460031b161c19169055898080613899565b8181015183556020948501946001909301929091019061387e565b634e487b7160e01b6101a05152601160045260246101a051fd5b34610437576020366003190112610437576004356101a0515260096020526101a05160409020604051806139288184614285565b036139339082614372565b60405191826139458160018401614285565b036139509084614372565b6002810154906040518080600384019061396991614285565b036139749082614372565b604051806139858160048601614285565b036139909082614372565b604051806139a18160058701614285565b036139ac9082614372565b600684015460405191826139c38160078901614285565b036139ce9084614372565b60405193846139e08160088a01614285565b036139eb9086614372565b60405195866139fd8160098b01614285565b03613a089088614372565b6040519788613a1a81600a8401614285565b03613a25908a614372565b600b0154986040519b8c9b6102608d526102608d01613a43916140e7565b8c810360208e0152613a54916140e7565b906001600160601b03811660408d01528060601c60ff1660608d01528060681c60ff1660808d01528060701c64ffffffffff1660a08d015260981c64ffffffffff1660c08c01528a810360e08c0152613aac916140e7565b8981036101008b0152613abe916140e7565b8881036101208a0152613ad0916140e7565b90600160a01b6001900381166101408901528060a01c63ffffffff166101608901528060c01c63ffffffff1661018089015260e01c60ff1615156101a08801528681036101c0880152613b22916140e7565b8581036101e0870152613b34916140e7565b848103610200860152613b46916140e7565b838103610220850152613b58916140e7565b906102408301520390f35b3461043757613b7136614235565b90613b7a6154ef565b6101a08051829052600a60205251604090206001015460281c6001600160a01b0316330361040e57806101a05152600a60205260406101a05120546101a05152600960205264ffffffffff600260406101a05120015460981c164211610ede576020916001600f540180600f55826101a05152600a845260406101a051205490613cc66006604051613c0b8161433a565b838152878101878152604080830196875233606084019081526101a080516080860190815260a086018b8152825160c0880190815264ffffffffff421660e0890190815284519b909b52600b8f52925194909420955186559351600186015597516002850155516003840180546001600160a01b039283166001600160a01b03199182161790915592516004850180549190921693169290921790915551600582015593519301805460ff191693151560ff16939093178355565b5165ffffffffff0082549160081b169065ffffffffff001916179055600f5491604051918252827f02c9c8f74256de50f798bbeec6dd87beabf684503ffce6a496063959e4bcfa53853394a4604051908152f35b3461043757604036600319011261043757613d336140b6565b602435613d3f816154b8565b33151580613e0c575b80613dd9575b613dc0576101a05182916001600160a01b03858116929116907f8c5be1e5ebec7d5bd14f71427d1e84f3dd0314c0f7b2291e5b200ac8c7c3b9259080a46101a05152600460205260406101a051209060018060a01b03166001600160601b0360a01b8254161790556101a0516101a051f35b63a9fbf51f60e01b6101a051523360045260246101a051fd5b506101a080516001600160a01b038316905260056020908152815160408082203390925291529051205460ff1615613d4e565b506001600160a01b038116331415613d48565b3461043757602036600319011261043757600435613e3c816154b8565b506101a051526004602052602060018060a01b0360406101a051205416604051908152f35b34610437576101a051366003190112610437576040516101a0518054613e868161424b565b808452906001811690811561098c5750600114613ead576102dd8361049981850382614372565b6101a0805180525160208120939250905b808210613ed657509091508101602001610499610937565b919260018160209254838588010152019101909291613ebe565b3461043757602036600319011261043757610607613f0c6140b6565b613f146152ed565b61537d565b3461043757602036600319011261043757613f326140b6565b6101a051600e546001600160a01b03909216919060015b82811115613fe55750613f5b90614736565b916101a0519060015b83811115613f7a57604051806102dd87826141d5565b6101a08051829052600a60205251604090206001015460281c6001600160a01b03168214613fb1575b613fac906146b3565b613f64565b91613fdd613fac91846101a05152600a60205260406101a0512060066103e56040519261033584614308565b929050613fa3565b6101a08051829052600a60205251604090206001015460281c6001600160a01b0316841461401c575b614017906146b3565b613f49565b90614029614017916146b3565b91905061400e565b34610437576020366003190112610437576004359063ffffffff60e01b821680920361043757602091637965db0b60e01b8114908115614073575b5015158152f35b6380ac58cd60e01b8114915081156140a5575b8115614094575b508361406c565b6301ffc9a760e01b1490508361408d565b635b5e139f60e01b81149150614086565b600435906001600160a01b03821682036140cc57565b600080fd5b602435906001600160a01b03821682036140cc57565b919082519283825260005b848110614113575050826000602080949584010152601f8019910116010190565b806020809284010151828286010152016140f2565b6141d2918151815264ffffffffff602083015116602082015260018060a01b03604083015116604082015263ffffffff60608301511660608201526101006141c06141ae61419c61418a608087015161012060808801526101208701906140e7565b60a087015186820360a08801526140e7565b60c086015185820360c08701526140e7565b60e085015184820360e08601526140e7565b920151906101008184039101526140e7565b90565b602081016020825282518091526040820191602060408360051b8301019401926000915b83831061420857505050505090565b9091929394602080614226600193603f198682030187528951614128565b970193019301919392906141f9565b60409060031901126140cc576004359060243590565b90600182811c9216801561427b575b602083101461426557565b634e487b7160e01b600052602260045260246000fd5b91607f169161425a565b600092918154916142958361424b565b80835292600181169081156142eb57506001146142b157505050565b60009081526020812093945091925b8383106142d1575060209250010190565b6001816020929493945483858701015201910191906142c0565b915050602093945060ff929192191683830152151560051b010190565b61012081019081106001600160401b0382111761432457604052565b634e487b7160e01b600052604160045260246000fd5b61010081019081106001600160401b0382111761432457604052565b61026081019081106001600160401b0382111761432457604052565b90601f801991011681019081106001600160401b0382111761432457604052565b9181601f840112156140cc578235916001600160401b0383116140cc57602083818601950101116140cc57565b60609060031901126140cc576004356001600160a01b03811681036140cc57906024356001600160a01b03811681036140cc579060443590565b60606003198201126140cc57600435906001600160401b0382116140cc5761442491600401614393565b90916024359060443590565b906102408061459461458061456c6145586144fe6144ea6144d66144756144628c516102608d526102608d01906140e7565b60208d01518c60208184039101526140e7565b6001600160601b0360408d01511660408c015260ff60608d01511660608c015260ff60808d01511660808c015264ffffffffff60a08d01511660a08c015264ffffffffff60c08d01511660c08c015260e08c01518b820360e08d01526140e7565b6101008b01518a82036101008c01526140e7565b6101208a01518982036101208b01526140e7565b60018060a01b036101408a01511661014089015263ffffffff6101608a01511661016089015263ffffffff6101808a0151166101808901526101a089015115156101a08901526101c08901518882036101c08a01526140e7565b6101e08801518782036101e08901526140e7565b6102008701518682036102008801526140e7565b6102208601518582036102208701526140e7565b93015191015290565b602081016020825282518091526040820191602060408360051b8301019401926000915b8383106145d057505050505090565b90919293946020806145ee600193603f198682030187528951614430565b970193019301919392906145c1565b64ffffffffff60e0809280518552602081015160208601526040810151604086015260018060a01b03606082015116606086015260018060a01b03608082015116608086015260a081015160a086015260c0810151151560c0860152015116910152565b6001600160401b03811161432457601f01601f191660200190565b92919261468882614661565b916146966040519384614372565b8294818452818301116140cc578281602093846000960137010152565b60001981146146c25760010190565b634e487b7160e01b600052601160045260246000fd5b6001600160401b0381116143245760051b60200190565b604051906146fc82614308565b6060610100836000815260006020820152600060408201526000838201528260808201528260a08201528260c08201528260e08201520152565b90614740826146d8565b61474d6040519182614372565b828152809261475e601f19916146d8565b019060005b82811061476f57505050565b60209061477a6146ef565b82828501015201614763565b805182101561479a5760209160051b010190565b634e487b7160e01b600052603260045260246000fd5b919082018092116146c257565b601f82116147ca57505050565b6000526020600020906020601f840160051c83019310614805575b601f0160051c01905b8181106147f9575050565b600081556001016147ee565b90915081906147e5565b908060209392818452848401376000828201840152601f01601f1916010190565b6001600160a01b03909116919082156149c1576000828152600260205260408120546001600160a01b0316938391859033151580614929575b507fddf252ad1be2c89b69c2b068fc378daa952ba7f163c4a11628f55a4df523b3ef90826148f4575b83815260036020526040812060018154019055848152600260205260408120846001600160601b0360a01b82541617905580a46001600160a01b03168083036148da57505050565b6364283d7b60e01b60005260045260245260445260646000fd5b600085815260046020526040902080546001600160a01b03191690558281526003602052604081208054600019019055614892565b915091925080614972575b15614943579084849238614869565b83908561495c57602491637e27328960e01b8252600452fd5b60449163177e802f60e01b825233600452602452fd5b5033851480156149a0575b806149345750838152600460205260408120546001600160a01b03163314614934565b5084815260056020908152604080832033845290915281205460ff1661497d565b633250574960e11b600052600060045260246000fd5b604051906149e482614356565b60006102408360608152606060208201528260408201528260608201528260808201528260a08201528260c0820152606060e082015260606101008201526060610120820152826101408201528261016082015282610180820152826101a082015260606101c082015260606101e0820152606061020082015260606102208201520152565b60405190614a79602083614372565b600080835282815b828110614a8d57505050565b602090614a986149d7565b82828501015201614a81565b90614aae826146d8565b614abb6040519182614372565b8281528092614acc601f19916146d8565b019060005b828110614add57505050565b602090614ae86149d7565b82828501015201614ad1565b818102929181159184041417156146c257565b919082039182116146c257565b90604051614b2181614356565b610240600b8294604051614b398161037e8185614285565b8452604051614b4f8161037e8160018601614285565b602085015264ffffffffff60028201546001600160601b038116604087015260ff8160601c16606087015260ff8160681c166080870152818160701c1660a087015260981c1660c0850152604051614bae8161037e8160038601614285565b60e0850152604051614bc78161037e8160048601614285565b610100850152604051614be18161037e8160058601614285565b61012085015260068101546001600160a01b03811661014086015260a081901c63ffffffff90811661016087015260c082901c1661018086015260e01c60ff1615156101a0850152604051614c3d8161037e8160078601614285565b6101c0850152604051614c578161037e8160088601614285565b6101e0850152604051614c718161037e8160098601614285565b610200850152604051614c8b8161037e81600a8601614285565b6102208501520154910152565b939291926000600194600d54955b86811115614dee57508115614ddf57614cc285614cc992614af4565b94856147b0565b90808211614dd7575b5080841015614dc957614ce884614ced92614b07565b614aa4565b9060009260009160015b8781111580614dbf575b15614db35780600052600960205261037e614d29600560406000200160405192838092614285565b60208151910120614d3b36858c61467c565b6020815191012014614d56575b614d51906146b3565b614cf7565b9486811015614d74575b614d6c614d51916146b3565b959050614d48565b92614d6c614daa614d5192886000526009602052614d956040600020614b14565b614d9f828a614786565b526104008189614786565b94915050614d60565b50965050509250505090565b5084518410614d01565b5093505050506141d2614a6a565b905038614cd2565b505093505050506141d2614a6a565b80600052600960205261037e614e11600560406000200160405192838092614285565b60208151910120614e2336878b61467c565b6020815191012014614e3e575b614e39906146b3565b614ca6565b91614e4b614e39916146b3565b929050614e30565b60405190614e608261433a565b600060e0838281528260208201528260408201528260608201528260808201528260a08201528260c08201520152565b600f5490600060015b8381111561503457508015614ff757614eb1816146d8565b91614ebf6040519384614372565b818352601f19614ece836146d8565b0160005b818110614fe057505060009160015b8581111580614fd7575b15614fce5780600052600b602052826002604060002001541480614fb2575b614f1d575b614f18906146b3565b614ee1565b92614faa614f189185600052600b602052604060002064ffffffffff600660405192614f488461433a565b80548452600181015460208501526002810154604085015260038101546001600160a01b0390811660608601526004820154166080850152600581015460a0850152015460ff8116151560c084015260081c1660e08201526103f58289614786565b939050614f0f565b5080600052600b60205260ff6006604060002001541615614f0a565b50505050905090565b50818410614eeb565b602090614feb614e53565b82828801015201614ed2565b50506040519050600061500b602083614372565b81526000805b81811061501d57505090565b602090615028614e53565b82828601015201615011565b80600052600b602052826002604060002001541480615076575b615061575b61505c906146b3565b614e99565b9061506e61505c916146b3565b919050615053565b5080600052600b60205260ff600660406000200154161561504e565b3d156150bd573d906150a382614661565b916150b16040519384614372565b82523d6000602084013e565b606090565b63ffffffff6000199116019063ffffffff82116146c257565b6150e8826150ef92614af4565b91826147b0565b600d54808211615174575b508082101561516a57615110614ce88383614b07565b91805b8281106151205750505090565b60018101908181116146c2576001916000526009602052615163604060002061515261514c8685614b07565b91614b14565b61515c8289614786565b5286614786565b5001615113565b50506141d2614a6a565b9050386150fa565b939291926000600194600d54955b8681111561528857508115614ddf57614cc2856151a692614af4565b90808211615280575b5080841015614dc957614ce8846151c592614b07565b9060009260009160015b8781111580615276575b15614db35780600052600960205261037e615201600460406000200160405192838092614285565b6020815191012061521336858c61467c565b602081519101201461522e575b615229906146b3565b6151cf565b948681101561524c575b615244615229916146b3565b959050615220565b9261524461526d61522992886000526009602052614d956040600020614b14565b94915050615238565b50845184106151d9565b9050386151af565b80600052600960205261037e6152ab600460406000200160405192838092614285565b602081519101206152bd36878b61467c565b60208151910120146152d8575b6152d3906146b3565b61518a565b916152e56152d3916146b3565b9290506152ca565b3360009081527f54cdd369e4e8a8515e52ca72ec816c2101831ad1f18bf44102ed171459c9b4f8602052604090205460ff161561532657565b63e2517d3f60e01b60005233600452600060245260446000fd5b600081815260066020908152604080832033845290915290205460ff16156153655750565b63e2517d3f60e01b6000523360045260245260446000fd5b6001600160a01b0381166000908152600080516020615846833981519152602052604090205460ff1615615425576001600160a01b0316600081815260008051602061584683398151915260205260408120805460ff191690553391907f73e573f9566d61418a34d5de3ff49360f9c51fec37f7486551670290f6285dab907ff6391f5c32d9c69d2a47ea670b442974b53935d1edc7fd64eb21e047a839171b9080a4600190565b50600090565b60008181526006602090815260408083206001600160a01b038616845290915290205460ff16156154b15760008181526006602090815260408083206001600160a01b0395909516808452949091528120805460ff19169055339291907ff6391f5c32d9c69d2a47ea670b442974b53935d1edc7fd64eb21e047a839171b9080a4600190565b5050600090565b6000818152600260205260409020546001600160a01b03169081156154db575090565b637e27328960e01b60005260045260246000fd5b60ff600854166154fb57565b63d93c066560e01b60005260046000fd5b6000828152600260205260409020546001600160a01b031691908261559e575b6001600160a01b031680615584575b8160005260026020526040600020816001600160601b0360a01b825416179055827fddf252ad1be2c89b69c2b068fc378daa952ba7f163c4a11628f55a4df523b3ef600080a490565b80600052600360205260406000206001815401905561553b565b600082815260046020526040902080546001600160a01b03191690558260005260036020526040600020600019815401905561552c565b6001600160a01b0381166000908152600080516020615846833981519152602052604090205460ff16615425576001600160a01b0316600081815260008051602061584683398151915260205260408120805460ff191660011790553391907f73e573f9566d61418a34d5de3ff49360f9c51fec37f7486551670290f6285dab907f2f8788117e7eff1d82e926ec794901d17c78024a50270940304540a733656f0d9080a4600190565b60008181526006602090815260408083206001600160a01b038616845290915290205460ff166154b15760008181526006602090815260408083206001600160a01b0395909516808452949091528120805460ff19166001179055339291907f2f8788117e7eff1d82e926ec794901d17c78024a50270940304540a733656f0d9080a4600190565b600260075414615718576002600755565b633ee5aeb560e01b60005260046000fd5b823b615737575b5050505050565b604051630a85bd0160e11b81526001600160a01b0391821660048201529181166024830152604482019390935260806064820152911691602090829081906157839060848301906140e7565b03816000865af180916000916157fb575b50906157c557506157a3615092565b805190816157c05782633250574960e11b60005260045260246000fd5b602001fd5b6001600160e01b03191663757a42ff60e11b016157e757503880808080615730565b633250574960e11b60005260045260246000fd5b6020813d60201161583d575b8161581460209383614372565b810103126158395751906001600160e01b031982168203615836575038615794565b80fd5b5080fd5b3d915061580756fe72e6a9b491581b344add3f7be10265867e64fdd874e84e97031c08ad09aea58ca26469706673582212208f44c82cc18aceaf418fcf05e191abd54d2faf5fe9ad6d6b9f05a0369b9cb88164736f6c634300081c00332f8788117e7eff1d82e926ec794901d17c78024a50270940304540a733656f0d72e6a9b491581b344add3f7be10265867e64fdd874e84e97031c08ad09aea58c54cdd369e4e8a8515e52ca72ec816c2101831ad1f18bf44102ed171459c9b4f8",
    "linkReferences": {}
  },
  "methodIdentifiers": {
    "DEFAULT_ADMIN_ROLE()": "a217fddf",
    "UPDATER_ROLE()": "47e63380",
    "approve(address,uint256)": "095ea7b3",
    "balanceOf(address)": "70a08231",
    "buyTicket(uint256,string,string,string)": "59280508",
    "campaignCount()": "7274e30d",
    "campaigns(uint256)": "141961bc",
    "cancelTransfer(uint256)": "59caecb5",
    "completeTransfer(uint256)": "619c83ed",
    "createCampaign(string,string,uint96,uint8,uint8,uint40,uint40,string,string,string,uint32,string,string,string,string)": "3d9ce1c5",
    "createTestCampaign(string,uint96,uint32)": "183f4a17",
    "createTransfer(uint256,uint256)": "09787803",
    "getApproved(uint256)": "081812fc",
    "getCampaignById(uint256)": "e6ffcaa1",
    "getCampaignTickets(uint256)": "fe1e81b1",
    "getCampaignsByCity(string,uint256,uint256)": "bd5667f4",
    "getCampaignsByCountry(string,uint256,uint256)": "2a467a73",
    "getCampaignsByPage(uint256,uint256)": "b80450ba",
    "getPendingTransfersByCampaign(uint256)": "381097b3",
    "getRoleAdmin(bytes32)": "248a9ca3",
    "getTicket(uint256)": "7dc379fa",
    "getTicketSecret(uint256)": "ee44404d",
    "getTransfer(uint256)": "c16fe907",
    "getUserTickets(address)": "0484a22f",
    "grantRole(bytes32,address)": "2f2ff15d",
    "hasRole(bytes32,address)": "91d14854",
    "isApprovedForAll(address,address)": "e985e9c5",
    "name()": "06fdde03",
    "ownerOf(uint256)": "6352211e",
    "pause()": "8456cb59",
    "paused()": "5c975abb",
    "platformOwner()": "4df8ccb1",
    "redeemTicket(uint256,string)": "51a2c4e3",
    "removeUpdater(address)": "04b07a5e",
    "renounceRole(bytes32,address)": "36568abe",
    "revokeRole(bytes32,address)": "d547741f",
    "safeTransferFrom(address,address,uint256)": "42842e0e",
    "safeTransferFrom(address,address,uint256,bytes)": "b88d4fde",
    "setApprovalForAll(address,bool)": "a22cb465",
    "setTicketSecret(uint256,uint32,string)": "37f690ee",
    "setUpdater(address)": "9d54f419",
    "supportsInterface(bytes4)": "01ffc9a7",
    "symbol()": "95d89b41",
    "tickets(uint256)": "50b44712",
    "tokenIdCounter()": "98bdf6f5",
    "tokenURI(uint256)": "c87b56dd",
    "transferCount()": "e3d33fc9",
    "transferFrom(address,address,uint256)": "23b872dd",
    "transfers(uint256)": "9377d711",
    "unpause()": "3f4ba83a"
  },
  "id": 42
}