{
	"abi": [
		{
			"type": "function",
			"name": "buyTicket",
			"inputs": [
				{
					"name": "_campaignId",
					"type": "uint256",
					"internalType": "uint256"
				}
			],
			"outputs": [],
			"stateMutability": "payable"
		},
		{
			"type": "function",
			"name": "campaigns",
			"inputs": [
				{
					"name": "",
					"type": "uint256",
					"internalType": "uint256"
				}
			],
			"outputs": [
				{
					"name": "id",
					"type": "uint256",
					"internalType": "uint256"
				},
				{
					"name": "owner",
					"type": "address",
					"internalType": "address"
				},
				{
					"name": "name",
					"type": "string",
					"internalType": "string"
				},
				{
					"name": "ticketPrice",
					"type": "uint256",
					"internalType": "uint256"
				},
				{
					"name": "totalTickets",
					"type": "uint256",
					"internalType": "uint256"
				},
				{
					"name": "availableTickets",
					"type": "uint256",
					"internalType": "uint256"
				},
				{
					"name": "active",
					"type": "bool",
					"internalType": "bool"
				}
			],
			"stateMutability": "view"
		},
		{
			"type": "function",
			"name": "createCampaign",
			"inputs": [
				{
					"name": "_name",
					"type": "string",
					"internalType": "string"
				},
				{
					"name": "_ticketPrice",
					"type": "uint256",
					"internalType": "uint256"
				},
				{
					"name": "_totalTickets",
					"type": "uint256",
					"internalType": "uint256"
				}
			],
			"outputs": [
				{
					"name": "",
					"type": "uint256",
					"internalType": "uint256"
				}
			],
			"stateMutability": "nonpayable"
		},
		{
			"type": "function",
			"name": "getCampaign",
			"inputs": [
				{
					"name": "_campaignId",
					"type": "uint256",
					"internalType": "uint256"
				}
			],
			"outputs": [
				{
					"name": "",
					"type": "tuple",
					"internalType": "struct SimpleTicketingSystem.Campaign",
					"components": [
						{
							"name": "id",
							"type": "uint256",
							"internalType": "uint256"
						},
						{
							"name": "owner",
							"type": "address",
							"internalType": "address"
						},
						{
							"name": "name",
							"type": "string",
							"internalType": "string"
						},
						{
							"name": "ticketPrice",
							"type": "uint256",
							"internalType": "uint256"
						},
						{
							"name": "totalTickets",
							"type": "uint256",
							"internalType": "uint256"
						},
						{
							"name": "availableTickets",
							"type": "uint256",
							"internalType": "uint256"
						},
						{
							"name": "active",
							"type": "bool",
							"internalType": "bool"
						}
					]
				}
			],
			"stateMutability": "view"
		},
		{
			"type": "function",
			"name": "getUserTickets",
			"inputs": [
				{
					"name": "_user",
					"type": "address",
					"internalType": "address"
				},
				{
					"name": "_campaignId",
					"type": "uint256",
					"internalType": "uint256"
				}
			],
			"outputs": [
				{
					"name": "",
					"type": "tuple[]",
					"internalType": "struct SimpleTicketingSystem.Ticket[]",
					"components": [
						{
							"name": "campaignId",
							"type": "uint256",
							"internalType": "uint256"
						},
						{
							"name": "owner",
							"type": "address",
							"internalType": "address"
						},
						{
							"name": "isRedeemed",
							"type": "bool",
							"internalType": "bool"
						}
					]
				}
			],
			"stateMutability": "view"
		},
		{
			"type": "function",
			"name": "redeemTicket",
			"inputs": [
				{
					"name": "_campaignId",
					"type": "uint256",
					"internalType": "uint256"
				},
				{
					"name": "_ticketIndex",
					"type": "uint256",
					"internalType": "uint256"
				}
			],
			"outputs": [],
			"stateMutability": "nonpayable"
		},
		{
			"type": "function",
			"name": "userTickets",
			"inputs": [
				{
					"name": "",
					"type": "address",
					"internalType": "address"
				},
				{
					"name": "",
					"type": "uint256",
					"internalType": "uint256"
				},
				{
					"name": "",
					"type": "uint256",
					"internalType": "uint256"
				}
			],
			"outputs": [
				{
					"name": "campaignId",
					"type": "uint256",
					"internalType": "uint256"
				},
				{
					"name": "owner",
					"type": "address",
					"internalType": "address"
				},
				{
					"name": "isRedeemed",
					"type": "bool",
					"internalType": "bool"
				}
			],
			"stateMutability": "view"
		},
		{
			"type": "event",
			"name": "CampaignCreated",
			"inputs": [
				{
					"name": "campaignId",
					"type": "uint256",
					"indexed": true,
					"internalType": "uint256"
				},
				{
					"name": "name",
					"type": "string",
					"indexed": false,
					"internalType": "string"
				},
				{
					"name": "ticketPrice",
					"type": "uint256",
					"indexed": false,
					"internalType": "uint256"
				}
			],
			"anonymous": false
		},
		{
			"type": "event",
			"name": "TicketPurchased",
			"inputs": [
				{
					"name": "campaignId",
					"type": "uint256",
					"indexed": true,
					"internalType": "uint256"
				},
				{
					"name": "buyer",
					"type": "address",
					"indexed": true,
					"internalType": "address"
				}
			],
			"anonymous": false
		},
		{
			"type": "event",
			"name": "TicketRedeemed",
			"inputs": [
				{
					"name": "campaignId",
					"type": "uint256",
					"indexed": true,
					"internalType": "uint256"
				},
				{
					"name": "holder",
					"type": "address",
					"indexed": true,
					"internalType": "address"
				}
			],
			"anonymous": false
		},
		{
			"type": "error",
			"name": "CampaignNotActive",
			"inputs": []
		},
		{
			"type": "error",
			"name": "InsufficientPayment",
			"inputs": []
		},
		{
			"type": "error",
			"name": "NoTicketsAvailable",
			"inputs": []
		},
		{
			"type": "error",
			"name": "NotTicketOwner",
			"inputs": []
		},
		{
			"type": "error",
			"name": "TicketAlreadyRedeemed",
			"inputs": []
		}
	],
	"bytecode": {
		"object": "0x608060405234801561001057600080fd5b50610d7f806100206000396000f3fe6080604052600436106100705760003560e01c80635017fca91161004e5780635017fca9146101015780635598f8cc1461014657806367dd74ca14610173578063814058be1461018657600080fd5b8063141961bc14610075578063191c87ab146100b15780633020580b146100d3575b600080fd5b34801561008157600080fd5b50610095610090366004610874565b6101b3565b6040516100a897969594939291906108d3565b60405180910390f35b3480156100bd57600080fd5b506100d16100cc366004610925565b610284565b005b3480156100df57600080fd5b506100f36100ee36600461095d565b61037f565b6040519081526020016100a8565b34801561010d57600080fd5b5061012161011c366004610a3d565b61049b565b604080519384526001600160a01b0390921660208401521515908201526060016100a8565b34801561015257600080fd5b50610166610161366004610874565b6104f9565b6040516100a89190610a70565b6100d1610181366004610874565b610642565b34801561019257600080fd5b506101a66101a1366004610adf565b6107cb565b6040516100a89190610b09565b60006020819052908152604090208054600182015460028301805492936001600160a01b03909216926101e590610b6d565b80601f016020809104026020016040519081016040528092919081815260200182805461021190610b6d565b801561025e5780601f106102335761010080835404028352916020019161025e565b820191906000526020600020905b81548152906001019060200180831161024157829003601f168201915b505050506003830154600484015460058501546006909501549394919390925060ff1687565b3360009081526001602090815260408083208584529091529020805482106102bf5760405163e18d39ad60e01b815260040160405180910390fd5b8082815481106102d1576102d1610ba7565b906000526020600020906002020160010160149054906101000a900460ff161561030e576040516301faedd760e61b815260040160405180910390fd5b600181838154811061032257610322610ba7565b6000918252602082206001600290920201018054921515600160a01b0260ff60a01b1990931692909217909155604051339185917f716bb19bdc2c35c51f08204334d6e0362bbe5428bbda94d186a1f2c8fa87b10c9190a3505050565b600280546000918261039083610bd3565b90915550506040805160e081018252600280548083523360208085019182528486018a8152606086018a90526080860189905260a08601899052600160c087018190526000948552918490529590922084518155905191810180546001600160a01b0319166001600160a01b039093169290921790915592519192919082019061041a9082610c3d565b50606082015160038201556080820151600482015560a0820151600582015560c0909101516006909101805460ff19169115159190911790556002546040517f2170fee8e65b01596ec56f4b4df98e903e2baf55bb74a163480d31de5ce83025906104889087908790610cfd565b60405180910390a2506002549392505050565b600160205282600052604060002060205281600052604060002081815481106104c357600080fd5b6000918252602090912060029091020180546001909101549093506001600160a01b0381169250600160a01b900460ff16905083565b6105446040518060e001604052806000815260200160006001600160a01b03168152602001606081526020016000815260200160008152602001600081526020016000151581525090565b60008281526020818152604091829020825160e0810184528154815260018201546001600160a01b031692810192909252600281018054929391929184019161058c90610b6d565b80601f01602080910402602001604051908101604052809291908181526020018280546105b890610b6d565b80156106055780601f106105da57610100808354040283529160200191610605565b820191906000526020600020905b8154815290600101906020018083116105e857829003601f168201915b505050918352505060038201546020820152600482015460408201526005820154606082015260069091015460ff16151560809091015292915050565b6000818152602081905260409020600681015460ff166106755760405163219a945b60e11b815260040160405180910390fd5b806005015460000361069a57604051632e12ccb760e11b815260040160405180910390fd5b80600301543410156106bf5760405163cd1c886760e01b815260040160405180910390fd5b6005810180549060006106d183610d1f565b909155505060408051606081018252838152336020808301828152600084860181815293815260018084528682208983528452958120805480880182559082529290208451600290930201918255519301805491511515600160a01b026001600160a81b03199092166001600160a01b03949094169390931717909155600382015434111561079957600382015433906108fc9061076f9034610d36565b6040518115909202916000818181858888f19350505050158015610797573d6000803e3d6000fd5b505b604051339084907f785f2865353ae960010300f584fc6c577b757a853af69a99c769df3c8232d3de90600090a3505050565b6001600160a01b03821660009081526001602090815260408083208484528252808320805482518185028101850190935280835260609492939192909184015b828210156108675760008481526020908190206040805160608101825260028602909201805483526001908101546001600160a01b03811684860152600160a01b900460ff16151591830191909152908352909201910161080b565b5050505090505b92915050565b60006020828403121561088657600080fd5b5035919050565b6000815180845260005b818110156108b357602081850181015186830182015201610897565b506000602082860101526020601f19601f83011685010191505092915050565b8781526001600160a01b038716602082015260e0604082018190526000906108fd9083018861088d565b90508560608301528460808301528360a083015282151560c083015298975050505050505050565b6000806040838503121561093857600080fd5b50508035926020909101359150565b634e487b7160e01b600052604160045260246000fd5b60008060006060848603121561097257600080fd5b833567ffffffffffffffff8082111561098a57600080fd5b818601915086601f83011261099e57600080fd5b8135818111156109b0576109b0610947565b604051601f8201601f19908116603f011681019083821181831017156109d8576109d8610947565b816040528281528960208487010111156109f157600080fd5b82602086016020830137600060208483010152809750505050505060208401359150604084013590509250925092565b80356001600160a01b0381168114610a3857600080fd5b919050565b600080600060608486031215610a5257600080fd5b610a5b84610a21565b95602085013595506040909401359392505050565b602081528151602082015260018060a01b0360208301511660408201526000604083015160e06060840152610aa961010084018261088d565b905060608401516080840152608084015160a084015260a084015160c084015260c0840151151560e08401528091505092915050565b60008060408385031215610af257600080fd5b610afb83610a21565b946020939093013593505050565b602080825282518282018190526000919060409081850190868401855b82811015610b6057815180518552868101516001600160a01b03168786015285015115158585015260609093019290850190600101610b26565b5091979650505050505050565b600181811c90821680610b8157607f821691505b602082108103610ba157634e487b7160e01b600052602260045260246000fd5b50919050565b634e487b7160e01b600052603260045260246000fd5b634e487b7160e01b600052601160045260246000fd5b600060018201610be557610be5610bbd565b5060010190565b601f821115610c38576000816000526020600020601f850160051c81016020861015610c155750805b601f850160051c820191505b81811015610c3457828155600101610c21565b5050505b505050565b815167ffffffffffffffff811115610c5757610c57610947565b610c6b81610c658454610b6d565b84610bec565b602080601f831160018114610ca05760008415610c885750858301515b600019600386901b1c1916600185901b178555610c34565b600085815260208120601f198616915b82811015610ccf57888601518255948401946001909101908401610cb0565b5085821015610ced5787850151600019600388901b60f8161c191681555b5050505050600190811b01905550565b604081526000610d10604083018561088d565b90508260208301529392505050565b600081610d2e57610d2e610bbd565b506000190190565b8181038181111561086e5761086e610bbd56fea2646970667358221220cd80ee72aefa830b0816320b02e647aee8897f8a0f60e00695352eb0e93aecba64736f6c63430008170033",
		"linkReferences": {}
	},
	"methodIdentifiers": {
		"buyTicket(uint256)": "67dd74ca",
		"campaigns(uint256)": "141961bc",
		"createCampaign(string,uint256,uint256)": "3020580b",
		"getCampaign(uint256)": "5598f8cc",
		"getUserTickets(address,uint256)": "814058be",
		"redeemTicket(uint256,uint256)": "191c87ab",
		"userTickets(address,uint256,uint256)": "5017fca9"
	},
	"id": 20
}