{
	"abi": [
		{
			"type": "function",
			"name": "buyTicket",
			"inputs": [
				{
					"name": "_campaignId",
					"type": "uint256",
					"internalType": "uint256"
				}
			],
			"outputs": [],
			"stateMutability": "payable"
		},
		{
			"type": "function",
			"name": "campaigns",
			"inputs": [
				{
					"name": "",
					"type": "uint256",
					"internalType": "uint256"
				}
			],
			"outputs": [
				{
					"name": "id",
					"type": "uint256",
					"internalType": "uint256"
				},
				{
					"name": "owner",
					"type": "address",
					"internalType": "address"
				},
				{
					"name": "name",
					"type": "string",
					"internalType": "string"
				},
				{
					"name": "ticketPrice",
					"type": "uint256",
					"internalType": "uint256"
				},
				{
					"name": "totalTickets",
					"type": "uint256",
					"internalType": "uint256"
				},
				{
					"name": "availableTickets",
					"type": "uint256",
					"internalType": "uint256"
				},
				{
					"name": "expiryDate",
					"type": "uint256",
					"internalType": "uint256"
				},
				{
					"name": "active",
					"type": "bool",
					"internalType": "bool"
				}
			],
			"stateMutability": "view"
		},
		{
			"type": "function",
			"name": "createCampaign",
			"inputs": [
				{
					"name": "_name",
					"type": "string",
					"internalType": "string"
				},
				{
					"name": "_ticketPrice",
					"type": "uint256",
					"internalType": "uint256"
				},
				{
					"name": "_totalTickets",
					"type": "uint256",
					"internalType": "uint256"
				},
				{
					"name": "_durationInDays",
					"type": "uint256",
					"internalType": "uint256"
				}
			],
			"outputs": [
				{
					"name": "",
					"type": "uint256",
					"internalType": "uint256"
				}
			],
			"stateMutability": "nonpayable"
		},
		{
			"type": "function",
			"name": "getCampaign",
			"inputs": [
				{
					"name": "_campaignId",
					"type": "uint256",
					"internalType": "uint256"
				}
			],
			"outputs": [
				{
					"name": "",
					"type": "tuple",
					"internalType": "struct TicketingSystem.Campaign",
					"components": [
						{
							"name": "id",
							"type": "uint256",
							"internalType": "uint256"
						},
						{
							"name": "owner",
							"type": "address",
							"internalType": "address"
						},
						{
							"name": "name",
							"type": "string",
							"internalType": "string"
						},
						{
							"name": "ticketPrice",
							"type": "uint256",
							"internalType": "uint256"
						},
						{
							"name": "totalTickets",
							"type": "uint256",
							"internalType": "uint256"
						},
						{
							"name": "availableTickets",
							"type": "uint256",
							"internalType": "uint256"
						},
						{
							"name": "expiryDate",
							"type": "uint256",
							"internalType": "uint256"
						},
						{
							"name": "active",
							"type": "bool",
							"internalType": "bool"
						}
					]
				}
			],
			"stateMutability": "view"
		},
		{
			"type": "function",
			"name": "getUserTickets",
			"inputs": [
				{
					"name": "_user",
					"type": "address",
					"internalType": "address"
				},
				{
					"name": "_campaignId",
					"type": "uint256",
					"internalType": "uint256"
				}
			],
			"outputs": [
				{
					"name": "",
					"type": "tuple[]",
					"internalType": "struct TicketingSystem.Ticket[]",
					"components": [
						{
							"name": "campaignId",
							"type": "uint256",
							"internalType": "uint256"
						},
						{
							"name": "owner",
							"type": "address",
							"internalType": "address"
						},
						{
							"name": "isRedeemed",
							"type": "bool",
							"internalType": "bool"
						}
					]
				}
			],
			"stateMutability": "view"
		},
		{
			"type": "function",
			"name": "redeemTicket",
			"inputs": [
				{
					"name": "_campaignId",
					"type": "uint256",
					"internalType": "uint256"
				},
				{
					"name": "_ticketIndex",
					"type": "uint256",
					"internalType": "uint256"
				}
			],
			"outputs": [],
			"stateMutability": "nonpayable"
		},
		{
			"type": "function",
			"name": "userTickets",
			"inputs": [
				{
					"name": "",
					"type": "address",
					"internalType": "address"
				},
				{
					"name": "",
					"type": "uint256",
					"internalType": "uint256"
				},
				{
					"name": "",
					"type": "uint256",
					"internalType": "uint256"
				}
			],
			"outputs": [
				{
					"name": "campaignId",
					"type": "uint256",
					"internalType": "uint256"
				},
				{
					"name": "owner",
					"type": "address",
					"internalType": "address"
				},
				{
					"name": "isRedeemed",
					"type": "bool",
					"internalType": "bool"
				}
			],
			"stateMutability": "view"
		},
		{
			"type": "event",
			"name": "CampaignCreated",
			"inputs": [
				{
					"name": "campaignId",
					"type": "uint256",
					"indexed": true,
					"internalType": "uint256"
				},
				{
					"name": "name",
					"type": "string",
					"indexed": false,
					"internalType": "string"
				},
				{
					"name": "ticketPrice",
					"type": "uint256",
					"indexed": false,
					"internalType": "uint256"
				}
			],
			"anonymous": false
		},
		{
			"type": "event",
			"name": "TicketPurchased",
			"inputs": [
				{
					"name": "campaignId",
					"type": "uint256",
					"indexed": true,
					"internalType": "uint256"
				},
				{
					"name": "buyer",
					"type": "address",
					"indexed": true,
					"internalType": "address"
				}
			],
			"anonymous": false
		},
		{
			"type": "event",
			"name": "TicketRedeemed",
			"inputs": [
				{
					"name": "campaignId",
					"type": "uint256",
					"indexed": true,
					"internalType": "uint256"
				},
				{
					"name": "holder",
					"type": "address",
					"indexed": true,
					"internalType": "address"
				}
			],
			"anonymous": false
		},
		{
			"type": "error",
			"name": "CampaignExpired",
			"inputs": []
		},
		{
			"type": "error",
			"name": "CampaignNotActive",
			"inputs": []
		},
		{
			"type": "error",
			"name": "InsufficientPayment",
			"inputs": []
		},
		{
			"type": "error",
			"name": "NoTicketsAvailable",
			"inputs": []
		},
		{
			"type": "error",
			"name": "NotTicketOwner",
			"inputs": []
		},
		{
			"type": "error",
			"name": "TicketAlreadyRedeemed",
			"inputs": []
		}
	],
	"bytecode": {
		"object": "0x608060405234801561001057600080fd5b50610e5f806100206000396000f3fe6080604052600436106100705760003560e01c80635598f8cc1161004e5780635598f8cc1461011957806367dd74ca14610146578063814058be14610159578063b5a898ae1461018657600080fd5b8063141961bc14610075578063191c87ab146100b25780635017fca9146100d4575b600080fd5b34801561008157600080fd5b50610095610090366004610916565b6101b4565b6040516100a9989796959493929190610975565b60405180910390f35b3480156100be57600080fd5b506100d26100cd3660046109ce565b61028b565b005b3480156100e057600080fd5b506100f46100ef366004610a0c565b6103b7565b604080519384526001600160a01b0390921660208401521515908201526060016100a9565b34801561012557600080fd5b50610139610134366004610916565b610415565b6040516100a99190610a3f565b6100d2610154366004610916565b610571565b34801561016557600080fd5b50610179610174366004610aba565b61071e565b6040516100a99190610ae4565b34801561019257600080fd5b506101a66101a1366004610b5e565b6107c7565b6040519081526020016100a9565b60006020819052908152604090208054600182015460028301805492936001600160a01b03909216926101e690610c23565b80601f016020809104026020016040519081016040528092919081815260200182805461021290610c23565b801561025f5780601f106102345761010080835404028352916020019161025f565b820191906000526020600020905b81548152906001019060200180831161024257829003601f168201915b505050600384015460048501546005860154600687015460079097015495969295919450925060ff1688565b3360009081526001602090815260408083208584529091529020805482106102c65760405163e18d39ad60e01b815260040160405180910390fd5b8082815481106102d8576102d8610c5d565b906000526020600020906002020160010160149054906101000a900460ff1615610315576040516301faedd760e61b815260040160405180910390fd5b600083815260208190526040902060060154421061034657604051638320b48360e01b815260040160405180910390fd5b600181838154811061035a5761035a610c5d565b6000918252602082206001600290920201018054921515600160a01b0260ff60a01b1990931692909217909155604051339185917f716bb19bdc2c35c51f08204334d6e0362bbe5428bbda94d186a1f2c8fa87b10c9190a3505050565b600160205282600052604060002060205281600052604060002081815481106103df57600080fd5b6000918252602090912060029091020180546001909101549093506001600160a01b0381169250600160a01b900460ff16905083565b6104686040518061010001604052806000815260200160006001600160a01b0316815260200160608152602001600081526020016000815260200160008152602001600081526020016000151581525090565b600082815260208181526040918290208251610100810184528154815260018201546001600160a01b03169281019290925260028101805492939192918401916104b190610c23565b80601f01602080910402602001604051908101604052809291908181526020018280546104dd90610c23565b801561052a5780601f106104ff5761010080835404028352916020019161052a565b820191906000526020600020905b81548152906001019060200180831161050d57829003601f168201915b50505091835250506003820154602082015260048201546040820152600582015460608201526006820154608082015260079091015460ff16151560a09091015292915050565b6000818152602081905260409020600781015460ff166105a45760405163219a945b60e11b815260040160405180910390fd5b806006015442106105c857604051638320b48360e01b815260040160405180910390fd5b80600501546000036105ed57604051632e12ccb760e11b815260040160405180910390fd5b80600301543410156106125760405163cd1c886760e01b815260040160405180910390fd5b60058101805490600061062483610c89565b909155505060408051606081018252838152336020808301828152600084860181815293815260018084528682208983528452958120805480880182559082529290208451600290930201918255519301805491511515600160a01b026001600160a81b03199092166001600160a01b0394909416939093171790915560038201543411156106ec57600382015433906108fc906106c29034610ca0565b6040518115909202916000818181858888f193505050501580156106ea573d6000803e3d6000fd5b505b604051339084907f785f2865353ae960010300f584fc6c577b757a853af69a99c769df3c8232d3de90600090a3505050565b6001600160a01b03821660009081526001602090815260408083208484528252808320805482518185028101850190935280835260609492939192909184015b828210156107ba5760008481526020908190206040805160608101825260028602909201805483526001908101546001600160a01b03811684860152600160a01b900460ff16151591830191909152908352909201910161075e565b5050505090505b92915050565b60028054600091826107d883610cb3565b91905055506040518061010001604052806002548152602001336001600160a01b0316815260200186815260200185815260200184815260200184815260200183620151806108279190610ccc565b6108319042610ce3565b815260016020918201819052600280546000908152808452604090819020855181559385015192840180546001600160a01b0319166001600160a01b0390941693909317909255908301519082019061088a9082610d47565b50606082015160038201556080820151600482015560a0820151600582015560c0820151600682015560e0909101516007909101805460ff19169115159190911790556002546040517f2170fee8e65b01596ec56f4b4df98e903e2baf55bb74a163480d31de5ce83025906109029088908890610e07565b60405180910390a250600254949350505050565b60006020828403121561092857600080fd5b5035919050565b6000815180845260005b8181101561095557602081850181015186830182015201610939565b506000602082860101526020601f19601f83011685010191505092915050565b8881526001600160a01b0388166020820152610100604082018190526000906109a08382018a61092f565b60608401989098525050608081019490945260a084019290925260c0830152151560e0909101529392505050565b600080604083850312156109e157600080fd5b50508035926020909101359150565b80356001600160a01b0381168114610a0757600080fd5b919050565b600080600060608486031215610a2157600080fd5b610a2a846109f0565b95602085013595506040909401359392505050565b602081528151602082015260018060a01b03602083015116604082015260006040830151610100806060850152610a7a61012085018361092f565b915060608501516080850152608085015160a085015260a085015160c085015260c085015160e085015260e0850151151581850152508091505092915050565b60008060408385031215610acd57600080fd5b610ad6836109f0565b946020939093013593505050565b602080825282518282018190526000919060409081850190868401855b82811015610b3b57815180518552868101516001600160a01b03168786015285015115158585015260609093019290850190600101610b01565b5091979650505050505050565b634e487b7160e01b600052604160045260246000fd5b60008060008060808587031215610b7457600080fd5b843567ffffffffffffffff80821115610b8c57600080fd5b818701915087601f830112610ba057600080fd5b813581811115610bb257610bb2610b48565b604051601f8201601f19908116603f01168101908382118183101715610bda57610bda610b48565b816040528281528a6020848701011115610bf357600080fd5b82602086016020830137600060209382018401529a91890135995050604088013597606001359650945050505050565b600181811c90821680610c3757607f821691505b602082108103610c5757634e487b7160e01b600052602260045260246000fd5b50919050565b634e487b7160e01b600052603260045260246000fd5b634e487b7160e01b600052601160045260246000fd5b600081610c9857610c98610c73565b506000190190565b818103818111156107c1576107c1610c73565b600060018201610cc557610cc5610c73565b5060010190565b80820281158282048414176107c1576107c1610c73565b808201808211156107c1576107c1610c73565b601f821115610d42576000816000526020600020601f850160051c81016020861015610d1f5750805b601f850160051c820191505b81811015610d3e57828155600101610d2b565b5050505b505050565b815167ffffffffffffffff811115610d6157610d61610b48565b610d7581610d6f8454610c23565b84610cf6565b602080601f831160018114610daa5760008415610d925750858301515b600019600386901b1c1916600185901b178555610d3e565b600085815260208120601f198616915b82811015610dd957888601518255948401946001909101908401610dba565b5085821015610df75787850151600019600388901b60f8161c191681555b5050505050600190811b01905550565b604081526000610e1a604083018561092f565b9050826020830152939250505056fea264697066735822122056de0f0554bce211748684f2059f7b52e066e2b653a78b0c51ea37f32f83727864736f6c63430008170033",
		"linkReferences": {}
	},
	"methodIdentifiers": {
		"buyTicket(uint256)": "67dd74ca",
		"campaigns(uint256)": "141961bc",
		"createCampaign(string,uint256,uint256,uint256)": "b5a898ae",
		"getCampaign(uint256)": "5598f8cc",
		"getUserTickets(address,uint256)": "814058be",
		"redeemTicket(uint256,uint256)": "191c87ab",
		"userTickets(address,uint256,uint256)": "5017fca9"
	},
	"id": 20
}